{
  "contractName": "IPFSProxy",
  "abi": [
    {
      "constant": false,
      "inputs": [
        {
          "name": "_member",
          "type": "address"
        }
      ],
      "name": "removeMember",
      "outputs": [],
      "payable": false,
      "stateMutability": "nonpayable",
      "type": "function"
    },
    {
      "constant": true,
      "inputs": [
        {
          "name": "",
          "type": "address"
        },
        {
          "name": "",
          "type": "address"
        }
      ],
      "name": "complained",
      "outputs": [
        {
          "name": "",
          "type": "bool"
        }
      ],
      "payable": false,
      "stateMutability": "view",
      "type": "function"
    },
    {
      "constant": true,
      "inputs": [],
      "name": "sizeLimit",
      "outputs": [
        {
          "name": "",
          "type": "uint256"
        }
      ],
      "payable": false,
      "stateMutability": "view",
      "type": "function"
    },
    {
      "constant": true,
      "inputs": [
        {
          "name": "",
          "type": "address"
        }
      ],
      "name": "complaint",
      "outputs": [
        {
          "name": "",
          "type": "uint256"
        }
      ],
      "payable": false,
      "stateMutability": "view",
      "type": "function"
    },
    {
      "constant": true,
      "inputs": [],
      "name": "m_numMembers",
      "outputs": [
        {
          "name": "",
          "type": "uint256"
        }
      ],
      "payable": false,
      "stateMutability": "view",
      "type": "function"
    },
    {
      "constant": true,
      "inputs": [],
      "name": "banThreshold",
      "outputs": [
        {
          "name": "",
          "type": "uint256"
        }
      ],
      "payable": false,
      "stateMutability": "view",
      "type": "function"
    },
    {
      "constant": true,
      "inputs": [],
      "name": "m_required",
      "outputs": [
        {
          "name": "",
          "type": "uint256"
        }
      ],
      "payable": false,
      "stateMutability": "view",
      "type": "function"
    },
    {
      "constant": true,
      "inputs": [
        {
          "name": "_addr",
          "type": "address"
        }
      ],
      "name": "isMember",
      "outputs": [
        {
          "name": "",
          "type": "bool"
        }
      ],
      "payable": false,
      "stateMutability": "view",
      "type": "function"
    },
    {
      "constant": false,
      "inputs": [
        {
          "name": "_operation",
          "type": "bytes32"
        }
      ],
      "name": "revoke",
      "outputs": [],
      "payable": false,
      "stateMutability": "nonpayable",
      "type": "function"
    },
    {
      "constant": false,
      "inputs": [
        {
          "name": "_newRequired",
          "type": "uint256"
        }
      ],
      "name": "changeRequirement",
      "outputs": [],
      "payable": false,
      "stateMutability": "nonpayable",
      "type": "function"
    },
    {
      "constant": true,
      "inputs": [
        {
          "name": "_operation",
          "type": "bytes32"
        },
        {
          "name": "_member",
          "type": "address"
        }
      ],
      "name": "hasConfirmed",
      "outputs": [
        {
          "name": "",
          "type": "bool"
        }
      ],
      "payable": false,
      "stateMutability": "view",
      "type": "function"
    },
    {
      "constant": false,
      "inputs": [
        {
          "name": "_from",
          "type": "address"
        },
        {
          "name": "_to",
          "type": "address"
        }
      ],
      "name": "changeMember",
      "outputs": [],
      "payable": false,
      "stateMutability": "nonpayable",
      "type": "function"
    },
    {
      "constant": false,
      "inputs": [
        {
          "name": "_member",
          "type": "address"
        }
      ],
      "name": "addMember",
      "outputs": [],
      "payable": false,
      "stateMutability": "nonpayable",
      "type": "function"
    },
    {
      "inputs": [],
      "payable": false,
      "stateMutability": "nonpayable",
      "type": "constructor"
    },
    {
      "anonymous": false,
      "inputs": [
        {
          "indexed": false,
          "name": "pubKey",
          "type": "address"
        },
        {
          "indexed": false,
          "name": "ttl",
          "type": "uint256"
        }
      ],
      "name": "ContractAdded",
      "type": "event"
    },
    {
      "anonymous": false,
      "inputs": [
        {
          "indexed": false,
          "name": "pubKey",
          "type": "address"
        }
      ],
      "name": "ContractRemoved",
      "type": "event"
    },
    {
      "anonymous": false,
      "inputs": [
        {
          "indexed": false,
          "name": "IPFSHash",
          "type": "string"
        }
      ],
      "name": "Banned",
      "type": "event"
    },
    {
      "anonymous": false,
      "inputs": [
        {
          "indexed": false,
          "name": "complainer",
          "type": "address"
        },
        {
          "indexed": false,
          "name": "member",
          "type": "address"
        },
        {
          "indexed": false,
          "name": "complaints",
          "type": "uint256"
        }
      ],
      "name": "BanAttempt",
      "type": "event"
    },
    {
      "anonymous": false,
      "inputs": [
        {
          "indexed": false,
          "name": "limit",
          "type": "uint256"
        }
      ],
      "name": "PersistLimitChanged",
      "type": "event"
    },
    {
      "anonymous": false,
      "inputs": [
        {
          "indexed": false,
          "name": "member",
          "type": "address"
        },
        {
          "indexed": false,
          "name": "operation",
          "type": "bytes32"
        }
      ],
      "name": "Confirmation",
      "type": "event"
    },
    {
      "anonymous": false,
      "inputs": [
        {
          "indexed": false,
          "name": "member",
          "type": "address"
        },
        {
          "indexed": false,
          "name": "operation",
          "type": "bytes32"
        }
      ],
      "name": "Revoke",
      "type": "event"
    },
    {
      "anonymous": false,
      "inputs": [
        {
          "indexed": false,
          "name": "oldMember",
          "type": "address"
        },
        {
          "indexed": false,
          "name": "newMember",
          "type": "address"
        }
      ],
      "name": "MemberChanged",
      "type": "event"
    },
    {
      "anonymous": false,
      "inputs": [
        {
          "indexed": false,
          "name": "newMember",
          "type": "address"
        }
      ],
      "name": "MemberAdded",
      "type": "event"
    },
    {
      "anonymous": false,
      "inputs": [
        {
          "indexed": false,
          "name": "oldMember",
          "type": "address"
        }
      ],
      "name": "MemberRemoved",
      "type": "event"
    },
    {
      "anonymous": false,
      "inputs": [
        {
          "indexed": false,
          "name": "newRequirement",
          "type": "uint256"
        }
      ],
      "name": "RequirementChanged",
      "type": "event"
    },
    {
      "anonymous": false,
      "inputs": [
        {
          "indexed": false,
          "name": "pubKey",
          "type": "address"
        },
        {
          "indexed": false,
          "name": "hashAdded",
          "type": "string"
        },
        {
          "indexed": false,
          "name": "ttl",
          "type": "uint256"
        }
      ],
      "name": "HashAdded",
      "type": "event"
    },
    {
      "anonymous": false,
      "inputs": [
        {
          "indexed": false,
          "name": "pubKey",
          "type": "address"
        },
        {
          "indexed": false,
          "name": "hashRemoved",
          "type": "string"
        }
      ],
      "name": "HashRemoved",
      "type": "event"
    },
    {
      "constant": false,
      "inputs": [
        {
          "name": "_IPFSHash",
          "type": "string"
        },
        {
          "name": "_ttl",
          "type": "uint256"
        }
      ],
      "name": "addHash",
      "outputs": [],
      "payable": false,
      "stateMutability": "nonpayable",
      "type": "function"
    },
    {
      "constant": false,
      "inputs": [
        {
          "name": "_IPFSHash",
          "type": "string"
        }
      ],
      "name": "removeHash",
      "outputs": [],
      "payable": false,
      "stateMutability": "nonpayable",
      "type": "function"
    },
    {
      "constant": false,
      "inputs": [
        {
          "name": "_toWatch",
          "type": "address"
        },
        {
          "name": "_ttl",
          "type": "uint256"
        }
      ],
      "name": "addContract",
      "outputs": [],
      "payable": false,
      "stateMutability": "nonpayable",
      "type": "function"
    },
    {
      "constant": false,
      "inputs": [
        {
          "name": "_contractAddress",
          "type": "address"
        }
      ],
      "name": "removeContract",
      "outputs": [],
      "payable": false,
      "stateMutability": "nonpayable",
      "type": "function"
    },
    {
      "constant": false,
      "inputs": [
        {
          "name": "_member",
          "type": "address"
        },
        {
          "name": "_evidence",
          "type": "string"
        }
      ],
      "name": "banMember",
      "outputs": [],
      "payable": false,
      "stateMutability": "nonpayable",
      "type": "function"
    },
    {
      "constant": false,
      "inputs": [
        {
          "name": "_banThreshold",
          "type": "uint256"
        }
      ],
      "name": "updateBanThreshold",
      "outputs": [],
      "payable": false,
      "stateMutability": "nonpayable",
      "type": "function"
    },
    {
      "constant": false,
      "inputs": [
        {
          "name": "_limit",
          "type": "uint256"
        }
      ],
      "name": "setTotalPersistLimit",
      "outputs": [],
      "payable": false,
      "stateMutability": "nonpayable",
      "type": "function"
    }
  ],
  "bytecode": "0x606060405234156200001057600080fd5b6101098054806020026020016040519081016040528092919081815260200182805480156200009557602002820191906000526020600020905b8160009054906101000a900473ffffffffffffffffffffffffffffffffffffffff1673ffffffffffffffffffffffffffffffffffffffff16815260200190600101908083116200004a575b50505050506001600060018351016001819055503373ffffffffffffffffffffffffffffffffffffffff166002600161010081101515620000d257fe5b0181905550600161010260003373ffffffffffffffffffffffffffffffffffffffff16815260200190815260200160002081905550600090505b8251811015620001b45782818151811015156200012557fe5b9060200190602002015173ffffffffffffffffffffffffffffffffffffffff16600282600201610100811015156200015957fe5b018190555080600201610102600085848151811015156200017657fe5b9060200190602002015173ffffffffffffffffffffffffffffffffffffffff168152602001908152602001600020819055508060010190506200010c565b81600081905550505050620001df306000620002296401000000000262000c04176401000000009004565b620001ff6001620002c36401000000000262000b9d176401000000009004565b620002236402540be4006200030b6401000000000262000e1a176401000000009004565b6200062d565b62000248336200038a6401000000000262000bce176401000000009004565b15156200025457600080fd5b7ff5258aee5f005d2bd983df8c969cd8db92fce883ceeab8c8a3f1e2f71aecb7ac8282604051808373ffffffffffffffffffffffffffffffffffffffff1673ffffffffffffffffffffffffffffffffffffffff1681526020018281526020019250505060405180910390a15050565b80604051808281526020019150506040518091039020620002f881620003c064010000000002620014f2176401000000009004565b15620003075781610107819055505b5050565b806040518082815260200191505060405180910390206200034081620003c064010000000002620014f2176401000000009004565b15620003865781610108819055507f4b763fe790b8ee35d687c7519e4c28df97f1d0ecbc9812d7bb01ce1909e8ecf0826040518082815260200191505060405180910390a15b5050565b60008061010260008473ffffffffffffffffffffffffffffffffffffffff16815260200190815260200160002054119050919050565b60008060008061010260003373ffffffffffffffffffffffffffffffffffffffff16815260200190815260200160002054925060008314156200040357620005ce565b6101036000866000191660001916815260200190815260200160002091506000826000015414156200048d5760005482600001819055506000826001018190555061010480548091906001016200045b9190620005d6565b82600201819055508461010483600201548154811015156200047957fe5b906000526020600020900181600019169055505b8260020a90506000818360010154161415620005cd577fe1c52dc63b719ade82e8bea94cc41a0d5d28e4aaf536adb5e9cccc9ff8c1aeda3386604051808373ffffffffffffffffffffffffffffffffffffffff1673ffffffffffffffffffffffffffffffffffffffff16815260200182600019166000191681526020019250505060405180910390a160018260000154111515620005a55761010461010360008760001916600019168152602001908152602001600020600201548154811015156200055557fe5b9060005260206000209001600090556101036000866000191660001916815260200190815260200160002060008082016000905560018201600090556002820160009055505060019350620005ce565b8160000160008154809291906001900391905055508082600101600082825417925050819055505b5b505050919050565b8154818355818115116200060057818360005260206000209182019101620005ff919062000605565b5b505050565b6200062a91905b80821115620006265760008160009055506001016200060c565b5090565b90565b611999806200063d6000396000f300606060405260043610610112576000357c0100000000000000000000000000000000000000000000000000000000900463ffffffff1680630b1ca49a146101175780630fb4ecdf14610150578063210fd271146101c057806325fcdad8146101e95780632648853114610236578063300abd61146102b2578063312ad4b9146102db578063746c9171146103045780638b278a301461032d578063a230c52414610350578063b5522e89146103a1578063b75c7dc6146103e3578063ba51a6df1461040a578063c0bb6c271461042d578063c2cf732614610450578063c353a89e146104ae578063c375c2ef14610506578063c96f50411461053f578063ca6d56dc146105a5578063fa59d199146105de575b600080fd5b341561012257600080fd5b61014e600480803573ffffffffffffffffffffffffffffffffffffffff1690602001909190505061063b565b005b341561015b57600080fd5b6101a6600480803573ffffffffffffffffffffffffffffffffffffffff1690602001909190803573ffffffffffffffffffffffffffffffffffffffff169060200190919050506107ac565b604051808215151515815260200191505060405180910390f35b34156101cb57600080fd5b6101d36107dc565b6040518082815260200191505060405180910390f35b34156101f457600080fd5b610220600480803573ffffffffffffffffffffffffffffffffffffffff169060200190919050506107e3565b6040518082815260200191505060405180910390f35b341561024157600080fd5b6102b0600480803573ffffffffffffffffffffffffffffffffffffffff1690602001909190803590602001908201803590602001908080601f016020809104026020016040519081016040528093929190818152602001838380828437820191505050505050919050506107fc565b005b34156102bd57600080fd5b6102c5610b8a565b6040518082815260200191505060405180910390f35b34156102e657600080fd5b6102ee610b90565b6040518082815260200191505060405180910390f35b341561030f57600080fd5b610317610b97565b6040518082815260200191505060405180910390f35b341561033857600080fd5b61034e6004808035906020019091905050610b9d565b005b341561035b57600080fd5b610387600480803573ffffffffffffffffffffffffffffffffffffffff16906020019091905050610bce565b604051808215151515815260200191505060405180910390f35b34156103ac57600080fd5b6103e1600480803573ffffffffffffffffffffffffffffffffffffffff16906020019091908035906020019091905050610c04565b005b34156103ee57600080fd5b610408600480803560001916906020019091905050610c87565b005b341561041557600080fd5b61042b6004808035906020019091905050610d9b565b005b341561043857600080fd5b61044e6004808035906020019091905050610e1a565b005b341561045b57600080fd5b61049460048080356000191690602001909190803573ffffffffffffffffffffffffffffffffffffffff16906020019091905050610e82565b604051808215151515815260200191505060405180910390f35b34156104b957600080fd5b610504600480803573ffffffffffffffffffffffffffffffffffffffff1690602001909190803573ffffffffffffffffffffffffffffffffffffffff16906020019091905050610f02565b005b341561051157600080fd5b61053d600480803573ffffffffffffffffffffffffffffffffffffffff16906020019091905050611126565b005b341561054a57600080fd5b6105a3600480803590602001908201803590602001908080601f016020809104026020016040519081016040528093929190818152602001838380828437820191505050505050919080359060200190919050506111a0565b005b34156105b057600080fd5b6105dc600480803573ffffffffffffffffffffffffffffffffffffffff16906020019091905050611290565b005b34156105e957600080fd5b610639600480803590602001908201803590602001908080601f0160208091040260200160405190810160405280939291908181526020018383808284378201915050505050509190505061140b565b005b600081604051808273ffffffffffffffffffffffffffffffffffffffff1673ffffffffffffffffffffffffffffffffffffffff166c010000000000000000000000000281526014019150506040518091039020610697816114f2565b156107a75761010260008473ffffffffffffffffffffffffffffffffffffffff16815260200190815260200160002054915060008214156106d7576107a6565b600180540360005411156106ea576107a6565b6000600283610100811015156106fc57fe5b0181905550600061010260008573ffffffffffffffffffffffffffffffffffffffff168152602001908152602001600020819055506107396116fe565b6107416117b4565b507f6e76fb4c77256006d9c38ec7d82b45a8c8f3c27b1d6766fffc42dfb8de68449283604051808273ffffffffffffffffffffffffffffffffffffffff1673ffffffffffffffffffffffffffffffffffffffff16815260200191505060405180910390a15b5b505050565b6101056020528160005260406000206020528060005260406000206000915091509054906101000a900460ff1681565b6101085481565b6101066020528060005260406000206000915090505481565b61080533610bce565b151561081057600080fd5b61081982610bce565b151561082457600080fd5b61010560003373ffffffffffffffffffffffffffffffffffffffff1673ffffffffffffffffffffffffffffffffffffffff16815260200190815260200160002060008373ffffffffffffffffffffffffffffffffffffffff1673ffffffffffffffffffffffffffffffffffffffff16815260200190815260200160002060009054906101000a900460ff161515156108bb57600080fd5b600161010560003373ffffffffffffffffffffffffffffffffffffffff1673ffffffffffffffffffffffffffffffffffffffff16815260200190815260200160002060008473ffffffffffffffffffffffffffffffffffffffff1673ffffffffffffffffffffffffffffffffffffffff16815260200190815260200160002060006101000a81548160ff021916908315150217905550600161010660008473ffffffffffffffffffffffffffffffffffffffff1673ffffffffffffffffffffffffffffffffffffffff168152602001908152602001600020600082825401925050819055506101075461010660008473ffffffffffffffffffffffffffffffffffffffff1673ffffffffffffffffffffffffffffffffffffffff16815260200190815260200160002054101515610aa6576109f58261063b565b6109fe82610bce565b1515610aa1577fe9c2fbd5c4da96336898a171638c7891027728531326a4e0e590759b33755628816040518080602001828103825283818151815260200191508051906020019080838360005b83811015610a66578082015181840152602081019050610a4b565b50505050905090810190601f168015610a935780820380516001836020036101000a031916815260200191505b509250505060405180910390a15b610b86565b7fd2cf7704cfac41908cef775ac7e8e4359647bf2058f4b85278e308ae34c7c191338361010660008673ffffffffffffffffffffffffffffffffffffffff1673ffffffffffffffffffffffffffffffffffffffff16815260200190815260200160002054604051808473ffffffffffffffffffffffffffffffffffffffff1673ffffffffffffffffffffffffffffffffffffffff1681526020018373ffffffffffffffffffffffffffffffffffffffff1673ffffffffffffffffffffffffffffffffffffffff168152602001828152602001935050505060405180910390a15b5050565b60015481565b6101075481565b60005481565b80604051808281526020019150506040518091039020610bbc816114f2565b15610bca5781610107819055505b5050565b60008061010260008473ffffffffffffffffffffffffffffffffffffffff16815260200190815260200160002054119050919050565b610c0d33610bce565b1515610c1857600080fd5b7ff5258aee5f005d2bd983df8c969cd8db92fce883ceeab8c8a3f1e2f71aecb7ac8282604051808373ffffffffffffffffffffffffffffffffffffffff1673ffffffffffffffffffffffffffffffffffffffff1681526020018281526020019250505060405180910390a15050565b600080600061010260003373ffffffffffffffffffffffffffffffffffffffff1681526020019081526020016000205492506000831415610cc757610d95565b8260020a91506101036000856000191660001916815260200190815260200160002090506000828260010154161115610d945780600001600081548092919060010191905055508181600101600082825403925050819055507fc7fb647e59b18047309aa15aad418e5d7ca96d173ad704f1031a2c3d7591734b3385604051808373ffffffffffffffffffffffffffffffffffffffff1673ffffffffffffffffffffffffffffffffffffffff16815260200182600019166000191681526020019250505060405180910390a15b5b50505050565b80604051808281526020019150506040518091039020610dba816114f2565b15610e1657600154821115610dce57610e15565b81600081905550610ddd6116fe565b7facbdb084c721332ac59f9b8e392196c9eb0e4932862da8eb9beaf0dad4f550da826040518082815260200191505060405180910390a15b5b5050565b80604051808281526020019150506040518091039020610e39816114f2565b15610e7e5781610108819055507f4b763fe790b8ee35d687c7519e4c28df97f1d0ecbc9812d7bb01ce1909e8ecf0826040518082815260200191505060405180910390a15b5050565b60008060008061010360008760001916600019168152602001908152602001600020925061010260008673ffffffffffffffffffffffffffffffffffffffff1681526020019081526020016000205491506000821415610ee55760009350610ef9565b8160020a9050600081846001015416141593505b50505092915050565b60008282604051808373ffffffffffffffffffffffffffffffffffffffff1673ffffffffffffffffffffffffffffffffffffffff166c010000000000000000000000000281526014018273ffffffffffffffffffffffffffffffffffffffff1673ffffffffffffffffffffffffffffffffffffffff166c01000000000000000000000000028152601401925050506040518091039020610fa1816114f2565b1561112057610faf83610bce565b15610fb95761111f565b61010260008573ffffffffffffffffffffffffffffffffffffffff1681526020019081526020016000205491506000821415610ff45761111f565b610ffc6116fe565b8273ffffffffffffffffffffffffffffffffffffffff166002836101008110151561102357fe5b0181905550600061010260008673ffffffffffffffffffffffffffffffffffffffff168152602001908152602001600020819055508161010260008573ffffffffffffffffffffffffffffffffffffffff168152602001908152602001600020819055507f05d866cd9c6000815d031b7ce30f30f643766eba16be13cff25924dc8ad820928484604051808373ffffffffffffffffffffffffffffffffffffffff1673ffffffffffffffffffffffffffffffffffffffff1681526020018273ffffffffffffffffffffffffffffffffffffffff1673ffffffffffffffffffffffffffffffffffffffff1681526020019250505060405180910390a15b5b50505050565b61112f33610bce565b151561113a57600080fd5b7f8d30d41865a0b811b9545d879520d2dde9f4cc49e4241f486ad9752bc904b56581604051808273ffffffffffffffffffffffffffffffffffffffff1673ffffffffffffffffffffffffffffffffffffffff16815260200191505060405180910390a150565b6111a933610bce565b15156111b457600080fd5b7f860caf696acfb28a58ef6f4a46b7fc197a29e60739a95d692ac1522e9ea11925338383604051808473ffffffffffffffffffffffffffffffffffffffff1673ffffffffffffffffffffffffffffffffffffffff16815260200180602001838152602001828103825284818151815260200191508051906020019080838360005b83811015611250578082015181840152602081019050611235565b50505050905090810190601f16801561127d5780820380516001836020036101000a031916815260200191505b5094505050505060405180910390a15050565b80604051808273ffffffffffffffffffffffffffffffffffffffff1673ffffffffffffffffffffffffffffffffffffffff166c0100000000000000000000000002815260140191505060405180910390206112ea816114f2565b15611407576112f882610bce565b1561130257611406565b61130a6116fe565b60fa6001541015156113205761131e6117b4565b505b60fa60015410151561133157611406565b6001600081548092919060010191905055508173ffffffffffffffffffffffffffffffffffffffff1660026001546101008110151561136c57fe5b018190555060015461010260008473ffffffffffffffffffffffffffffffffffffffff168152602001908152602001600020819055507fb251eb052afc73ffd02ffe85ad79990a8b3fed60d76dbc2fa2fdd7123dffd91482604051808273ffffffffffffffffffffffffffffffffffffffff1673ffffffffffffffffffffffffffffffffffffffff16815260200191505060405180910390a15b5b5050565b61141433610bce565b151561141f57600080fd5b7f1c5a900544651f923f018310e949445eb80e82a5159edcedbd2b2deec2bbb4ee3382604051808373ffffffffffffffffffffffffffffffffffffffff1673ffffffffffffffffffffffffffffffffffffffff16815260200180602001828103825283818151815260200191508051906020019080838360005b838110156114b4578082015181840152602081019050611499565b50505050905090810190601f1680156114e15780820380516001836020036101000a031916815260200191505b50935050505060405180910390a150565b60008060008061010260003373ffffffffffffffffffffffffffffffffffffffff1681526020019081526020016000205492506000831415611533576116f6565b6101036000866000191660001916815260200190815260200160002091506000826000015414156115b957600054826000018190555060008260010181905550610104805480919060010161158891906118fb565b82600201819055508461010483600201548154811015156115a557fe5b906000526020600020900181600019169055505b8260020a905060008183600101541614156116f5577fe1c52dc63b719ade82e8bea94cc41a0d5d28e4aaf536adb5e9cccc9ff8c1aeda3386604051808373ffffffffffffffffffffffffffffffffffffffff1673ffffffffffffffffffffffffffffffffffffffff16815260200182600019166000191681526020019250505060405180910390a1600182600001541115156116cd57610104610103600087600019166000191681526020019081526020016000206002015481548110151561167e57fe5b90600052602060002090016000905561010360008660001916600019168152602001908152602001600020600080820160009055600182016000905560028201600090555050600193506116f6565b8160000160008154809291906001900391905055508082600101600082825417925050819055505b5b505050919050565b600080610104805490509150600090505b818110156117a15760006001026101048281548110151561172c57fe5b906000526020600020900154600019161415156117965761010360006101048381548110151561175857fe5b906000526020600020900154600019166000191681526020019081526020016000206000808201600090556001820160009055600282016000905550505b80600101905061170f565b61010460006117b09190611927565b5050565b600080600190505b6001548110156118f7575b600154811080156117ea57506000600282610100811015156117e557fe5b015414155b156117fc5780806001019150506117c7565b5b600180541180156118215750600060026001546101008110151561181d57fe5b0154145b1561183e57600160008154809291906001900391905055506117fd565b600154811080156118635750600060026001546101008110151561185e57fe5b015414155b8015611880575060006002826101008110151561187c57fe5b0154145b156118f25760026001546101008110151561189757fe5b0154600282610100811015156118a957fe5b0181905550806101026000600284610100811015156118c457fe5b015481526020019081526020016000208190555060006002600154610100811015156118ec57fe5b01819055505b6117bc565b5090565b815481835581811511611922578183600052602060002091820191016119219190611948565b5b505050565b50805460008255906000526020600020908101906119459190611948565b50565b61196a91905b8082111561196657600081600090555060010161194e565b5090565b905600a165627a7a72305820fc4c7736bf03b9cbcd6183cf833b5bc6879023579b3ae1d4dd2ed805c0e2bb3b0029",
  "source": "pragma solidity ^0.4.11;\n\nimport \"./IPFSEvents.sol\";\nimport \"./Multimember.sol\";\n\ncontract IPFSProxy is IPFSEvents, Multimember {\n\tmapping(address => mapping( address => bool)) public complained;\n\tmapping(address => uint) public complaint;\n\tuint public banThreshold;\n\tuint public sizeLimit;\n\taddress[] members;\n\t\n\t/**\n\t* @dev Throws if called by any account other than a valid member. \n\t*/\n\tmodifier onlyValidMembers {\n\t\trequire (isMember(msg.sender));\n\t\t_;\n\t}\n\n    event ContractAdded(address pubKey, uint ttl);\n    event ContractRemoved(address pubKey);\n\tevent Banned(string IPFSHash);\n\tevent BanAttempt(address complainer, address member, uint complaints);\n\tevent PersistLimitChanged(uint limit);\t\n\n\t/**\n\t* @dev Constructor - adds the owner of the contract to the list of valid members\n\t*/\n\tfunction IPFSProxy() Multimember (members, 1) public {\n\t\taddContract(this, 0);\n\t\tupdateBanThreshold(1);\n\t\tsetTotalPersistLimit(10000000000); //10 GB\n\t}\n\n\t/**\n\t* @dev Add hash to persistent storage\n\t* @param _IPFSHash The ipfs hash to propagate.\n\t* @param _ttl amount of time is seconds to persist this. \n\t*/\n\tfunction addHash(string _IPFSHash, uint _ttl) public onlyValidMembers {\n\t\tHashAdded(msg.sender,_IPFSHash,_ttl);\n\t}\n\n\t/**\n\t* @dev Remove hash from persistent storage\n\t* @param _IPFSHash The ipfs hash to propagate.\t\n\t*/\n\tfunction removeHash(string _IPFSHash) public onlyValidMembers {\n\t\tHashRemoved(msg.sender,_IPFSHash);\n\t}\n\n\n\t/** \n\t* Add a contract to watch list. Each node will then \n\t* watch it for `HashAdded(msg.sender,_IPFSHash,_ttl);` \n\t* events and it will cache these events\n\t*/\n\n\tfunction addContract(address _toWatch, uint _ttl) public onlyValidMembers {\n\t\tContractAdded(_toWatch, _ttl);\n\t}\n\n\t/**\n\t* @dev Remove contract from watch list\n\t*/\n\tfunction removeContract(address _contractAddress) public onlyValidMembers {\n\t\tContractRemoved(_contractAddress);\n\t}\n\n\t/**\n\t*@dev removes a member who exceeds the cap\n\t*/\n\tfunction banMember (address _member, string _evidence) public onlyValidMembers {\n\t\trequire(isMember(_member));\n\t\trequire(!complained[msg.sender][_member]);\n\t\tcomplained[msg.sender][_member] = true;\n\t\tcomplaint[_member] += 1;\t\n\t\tif (complaint[_member] >= banThreshold) { \n\t\t\tremoveMember(_member);\n\t\t\tif (!isMember(_member)) {\n\t\t\t\tBanned(_evidence);\n\t\t\t} \n\t\t} else {\n\t\t\tBanAttempt(msg.sender, _member, complaint[_member]);\n\t\t}\n\t}\n\t/**\n\t* @dev update ban threshold\n\t*/\n\tfunction updateBanThreshold (uint _banThreshold) public onlymanymembers(keccak256(_banThreshold)) {\n\t\tbanThreshold = _banThreshold;\n\t}\n\n\t/**\n\t* @dev set total allowed upload\n\t*\n\t**/\n\tfunction setTotalPersistLimit (uint _limit) public onlymanymembers(keccak256(_limit)) {\n\t\tsizeLimit = _limit;\n\t\tPersistLimitChanged(_limit);\n\t}\n}\n",
  "sourcePath": "/Users/sponnet/Documents/projects/IPFSConsortiumContracts/contracts/IPFSProxy.sol",
  "compiler": {
    "name": "solc",
    "version": "0.4.19+commit.c4cbbb05.Emscripten.clang"
  },
  "schemaVersion": "1.0.1",
  "updatedAt": "2018-02-23T12:50:57.295Z"
}