{
  "contractName": "IPFSProxy",
  "abi": [
    {
      "constant": false,
      "inputs": [
        {
          "name": "_member",
          "type": "address"
        }
      ],
      "name": "removeMember",
      "outputs": [],
      "payable": false,
      "stateMutability": "nonpayable",
      "type": "function"
    },
    {
      "constant": true,
      "inputs": [
        {
          "name": "",
          "type": "address"
        },
        {
          "name": "",
          "type": "address"
        }
      ],
      "name": "complained",
      "outputs": [
        {
          "name": "",
          "type": "bool"
        }
      ],
      "payable": false,
      "stateMutability": "view",
      "type": "function"
    },
    {
      "constant": true,
      "inputs": [],
      "name": "sizeLimit",
      "outputs": [
        {
          "name": "",
          "type": "uint256"
        }
      ],
      "payable": false,
      "stateMutability": "view",
      "type": "function"
    },
    {
      "constant": true,
      "inputs": [
        {
          "name": "",
          "type": "address"
        }
      ],
      "name": "complaint",
      "outputs": [
        {
          "name": "",
          "type": "uint256"
        }
      ],
      "payable": false,
      "stateMutability": "view",
      "type": "function"
    },
    {
      "constant": true,
      "inputs": [],
      "name": "m_numMembers",
      "outputs": [
        {
          "name": "",
          "type": "uint256"
        }
      ],
      "payable": false,
      "stateMutability": "view",
      "type": "function"
    },
    {
      "constant": true,
      "inputs": [],
      "name": "banThreshold",
      "outputs": [
        {
          "name": "",
          "type": "uint256"
        }
      ],
      "payable": false,
      "stateMutability": "view",
      "type": "function"
    },
    {
      "constant": true,
      "inputs": [],
      "name": "m_required",
      "outputs": [
        {
          "name": "",
          "type": "uint256"
        }
      ],
      "payable": false,
      "stateMutability": "view",
      "type": "function"
    },
    {
      "constant": true,
      "inputs": [
        {
          "name": "_addr",
          "type": "address"
        }
      ],
      "name": "isMember",
      "outputs": [
        {
          "name": "",
          "type": "bool"
        }
      ],
      "payable": false,
      "stateMutability": "view",
      "type": "function"
    },
    {
      "constant": false,
      "inputs": [
        {
          "name": "_operation",
          "type": "bytes32"
        }
      ],
      "name": "revoke",
      "outputs": [],
      "payable": false,
      "stateMutability": "nonpayable",
      "type": "function"
    },
    {
      "constant": false,
      "inputs": [
        {
          "name": "_newRequired",
          "type": "uint256"
        }
      ],
      "name": "changeRequirement",
      "outputs": [],
      "payable": false,
      "stateMutability": "nonpayable",
      "type": "function"
    },
    {
      "constant": true,
      "inputs": [
        {
          "name": "_operation",
          "type": "bytes32"
        },
        {
          "name": "_member",
          "type": "address"
        }
      ],
      "name": "hasConfirmed",
      "outputs": [
        {
          "name": "",
          "type": "bool"
        }
      ],
      "payable": false,
      "stateMutability": "view",
      "type": "function"
    },
    {
      "constant": false,
      "inputs": [
        {
          "name": "_from",
          "type": "address"
        },
        {
          "name": "_to",
          "type": "address"
        }
      ],
      "name": "changeMember",
      "outputs": [],
      "payable": false,
      "stateMutability": "nonpayable",
      "type": "function"
    },
    {
      "constant": false,
      "inputs": [
        {
          "name": "_member",
          "type": "address"
        }
      ],
      "name": "addMember",
      "outputs": [],
      "payable": false,
      "stateMutability": "nonpayable",
      "type": "function"
    },
    {
      "inputs": [],
      "payable": false,
      "stateMutability": "nonpayable",
      "type": "constructor"
    },
    {
      "anonymous": false,
      "inputs": [
        {
          "indexed": false,
          "name": "member",
          "type": "address"
        },
        {
          "indexed": false,
          "name": "pubKey",
          "type": "address"
        },
        {
          "indexed": false,
          "name": "ttl",
          "type": "uint256"
        }
      ],
      "name": "ContractAdded",
      "type": "event"
    },
    {
      "anonymous": false,
      "inputs": [
        {
          "indexed": false,
          "name": "member",
          "type": "address"
        },
        {
          "indexed": false,
          "name": "pubKey",
          "type": "address"
        }
      ],
      "name": "ContractRemoved",
      "type": "event"
    },
    {
      "anonymous": false,
      "inputs": [
        {
          "indexed": false,
          "name": "member",
          "type": "address"
        },
        {
          "indexed": false,
          "name": "metadataHash",
          "type": "string"
        }
      ],
      "name": "MetadataContractAdded",
      "type": "event"
    },
    {
      "anonymous": false,
      "inputs": [
        {
          "indexed": false,
          "name": "member",
          "type": "address"
        },
        {
          "indexed": false,
          "name": "metadataHash",
          "type": "string"
        }
      ],
      "name": "MetadataContractRemoved",
      "type": "event"
    },
    {
      "anonymous": false,
      "inputs": [
        {
          "indexed": false,
          "name": "consoritumHash",
          "type": "string"
        }
      ],
      "name": "Banned",
      "type": "event"
    },
    {
      "anonymous": false,
      "inputs": [
        {
          "indexed": false,
          "name": "complainer",
          "type": "address"
        },
        {
          "indexed": false,
          "name": "member",
          "type": "address"
        },
        {
          "indexed": false,
          "name": "complaints",
          "type": "uint256"
        }
      ],
      "name": "BanAttempt",
      "type": "event"
    },
    {
      "anonymous": false,
      "inputs": [
        {
          "indexed": false,
          "name": "limit",
          "type": "uint256"
        }
      ],
      "name": "PersistLimitChanged",
      "type": "event"
    },
    {
      "anonymous": false,
      "inputs": [
        {
          "indexed": false,
          "name": "member",
          "type": "address"
        },
        {
          "indexed": false,
          "name": "operation",
          "type": "bytes32"
        }
      ],
      "name": "Confirmation",
      "type": "event"
    },
    {
      "anonymous": false,
      "inputs": [
        {
          "indexed": false,
          "name": "member",
          "type": "address"
        },
        {
          "indexed": false,
          "name": "operation",
          "type": "bytes32"
        }
      ],
      "name": "Revoke",
      "type": "event"
    },
    {
      "anonymous": false,
      "inputs": [
        {
          "indexed": false,
          "name": "oldMember",
          "type": "address"
        },
        {
          "indexed": false,
          "name": "newMember",
          "type": "address"
        }
      ],
      "name": "MemberChanged",
      "type": "event"
    },
    {
      "anonymous": false,
      "inputs": [
        {
          "indexed": false,
          "name": "newMember",
          "type": "address"
        }
      ],
      "name": "MemberAdded",
      "type": "event"
    },
    {
      "anonymous": false,
      "inputs": [
        {
          "indexed": false,
          "name": "oldMember",
          "type": "address"
        }
      ],
      "name": "MemberRemoved",
      "type": "event"
    },
    {
      "anonymous": false,
      "inputs": [
        {
          "indexed": false,
          "name": "newRequirement",
          "type": "uint256"
        }
      ],
      "name": "RequirementChanged",
      "type": "event"
    },
    {
      "anonymous": false,
      "inputs": [
        {
          "indexed": false,
          "name": "pubKey",
          "type": "address"
        },
        {
          "indexed": false,
          "name": "hashAdded",
          "type": "string"
        },
        {
          "indexed": false,
          "name": "ttl",
          "type": "uint256"
        }
      ],
      "name": "HashAdded",
      "type": "event"
    },
    {
      "anonymous": false,
      "inputs": [
        {
          "indexed": false,
          "name": "pubKey",
          "type": "address"
        },
        {
          "indexed": false,
          "name": "hashRemoved",
          "type": "string"
        }
      ],
      "name": "HashRemoved",
      "type": "event"
    },
    {
      "constant": false,
      "inputs": [
        {
          "name": "ipfsHash",
          "type": "string"
        },
        {
          "name": "ttl",
          "type": "uint256"
        }
      ],
      "name": "addHash",
      "outputs": [],
      "payable": false,
      "stateMutability": "nonpayable",
      "type": "function"
    },
    {
      "constant": false,
      "inputs": [
        {
          "name": "ipfsHash",
          "type": "string"
        }
      ],
      "name": "removeHash",
      "outputs": [],
      "payable": false,
      "stateMutability": "nonpayable",
      "type": "function"
    },
    {
      "constant": false,
      "inputs": [
        {
          "name": "toWatch",
          "type": "address"
        },
        {
          "name": "ttl",
          "type": "uint256"
        }
      ],
      "name": "addContract",
      "outputs": [],
      "payable": false,
      "stateMutability": "nonpayable",
      "type": "function"
    },
    {
      "constant": false,
      "inputs": [
        {
          "name": "contractAddress",
          "type": "address"
        }
      ],
      "name": "removeContract",
      "outputs": [],
      "payable": false,
      "stateMutability": "nonpayable",
      "type": "function"
    },
    {
      "constant": false,
      "inputs": [
        {
          "name": "_metadataHash",
          "type": "string"
        }
      ],
      "name": "metadataContractAdded",
      "outputs": [],
      "payable": false,
      "stateMutability": "nonpayable",
      "type": "function"
    },
    {
      "constant": false,
      "inputs": [
        {
          "name": "_metadataHash",
          "type": "string"
        }
      ],
      "name": "metadataContractRemoved",
      "outputs": [],
      "payable": false,
      "stateMutability": "nonpayable",
      "type": "function"
    },
    {
      "constant": false,
      "inputs": [
        {
          "name": "member",
          "type": "address"
        },
        {
          "name": "evidence",
          "type": "string"
        }
      ],
      "name": "banMember",
      "outputs": [],
      "payable": false,
      "stateMutability": "nonpayable",
      "type": "function"
    },
    {
      "constant": false,
      "inputs": [
        {
          "name": "threshold",
          "type": "uint256"
        }
      ],
      "name": "updateBanThreshold",
      "outputs": [],
      "payable": false,
      "stateMutability": "nonpayable",
      "type": "function"
    },
    {
      "constant": false,
      "inputs": [
        {
          "name": "limit",
          "type": "uint256"
        }
      ],
      "name": "setTotalPersistLimit",
      "outputs": [],
      "payable": false,
      "stateMutability": "nonpayable",
      "type": "function"
    }
  ],
  "bytecode": "0x606060405234156200001057600080fd5b6101098054806020026020016040519081016040528092919081815260200182805480156200009557602002820191906000526020600020905b8160009054906101000a900473ffffffffffffffffffffffffffffffffffffffff1673ffffffffffffffffffffffffffffffffffffffff16815260200190600101908083116200004a575b50505050506001600060018351016001819055503373ffffffffffffffffffffffffffffffffffffffff166002600161010081101515620000d257fe5b0181905550600161010260003373ffffffffffffffffffffffffffffffffffffffff16815260200190815260200160002081905550600090505b8251811015620001b45782818151811015156200012557fe5b9060200190602002015173ffffffffffffffffffffffffffffffffffffffff16600282600201610100811015156200015957fe5b018190555080600201610102600085848151811015156200017657fe5b9060200190602002015173ffffffffffffffffffffffffffffffffffffffff168152602001908152602001600020819055508060010190506200010c565b81600081905550505050620001df306000620002296401000000000262000ea2176401000000009004565b620001ff6001620002f76401000000000262000e3b176401000000009004565b620002236402540be4006200033f64010000000002620010ec176401000000009004565b62000661565b6200024833620003be6401000000000262000e6c176401000000009004565b15156200025457600080fd5b7f059d7576e9633bca7696f2c9a469531f9ac98e62b3160b7fffcd804d18a7fc60338383604051808473ffffffffffffffffffffffffffffffffffffffff1673ffffffffffffffffffffffffffffffffffffffff1681526020018373ffffffffffffffffffffffffffffffffffffffff1673ffffffffffffffffffffffffffffffffffffffff168152602001828152602001935050505060405180910390a15050565b806040518082815260200191505060405180910390206200032c81620003f46401000000000262001833176401000000009004565b156200033b5781610107819055505b5050565b806040518082815260200191505060405180910390206200037481620003f46401000000000262001833176401000000009004565b15620003ba5781610108819055507f4b763fe790b8ee35d687c7519e4c28df97f1d0ecbc9812d7bb01ce1909e8ecf0826040518082815260200191505060405180910390a15b5050565b60008061010260008473ffffffffffffffffffffffffffffffffffffffff16815260200190815260200160002054119050919050565b60008060008061010260003373ffffffffffffffffffffffffffffffffffffffff1681526020019081526020016000205492506000831415620004375762000602565b610103600086600019166000191681526020019081526020016000209150600082600001541415620004c15760005482600001819055506000826001018190555061010480548091906001016200048f91906200060a565b8260020181905550846101048360020154815481101515620004ad57fe5b906000526020600020900181600019169055505b8260020a9050600081836001015416141562000601577fe1c52dc63b719ade82e8bea94cc41a0d5d28e4aaf536adb5e9cccc9ff8c1aeda3386604051808373ffffffffffffffffffffffffffffffffffffffff1673ffffffffffffffffffffffffffffffffffffffff16815260200182600019166000191681526020019250505060405180910390a160018260000154111515620005d95761010461010360008760001916600019168152602001908152602001600020600201548154811015156200058957fe5b906000526020600020900160009055610103600086600019166000191681526020019081526020016000206000808201600090556001820160009055600282016000905550506001935062000602565b8160000160008154809291906001900391905055508082600101600082825417925050819055505b5b505050919050565b815481835581811511620006345781836000526020600020918201910162000633919062000639565b5b505050565b6200065e91905b808211156200065a57600081600090555060010162000640565b5090565b90565b611cda80620006716000396000f300606060405260043610610128576000357c0100000000000000000000000000000000000000000000000000000000900463ffffffff16806305c7d5971461012d5780630b1ca49a1461018a5780630fb4ecdf146101c3578063129aec5d14610233578063210fd2711461029057806325fcdad8146102b95780632648853114610306578063300abd6114610382578063312ad4b9146103ab578063746c9171146103d45780638b278a30146103fd578063a230c52414610420578063b5522e8914610471578063b75c7dc6146104b3578063ba51a6df146104da578063c0bb6c27146104fd578063c2cf732614610520578063c353a89e1461057e578063c375c2ef146105d6578063c96f50411461060f578063ca6d56dc14610675578063fa59d199146106ae575b600080fd5b341561013857600080fd5b610188600480803590602001908201803590602001908080601f0160208091040260200160405190810160405280939291908181526020018383808284378201915050505050509190505061070b565b005b341561019557600080fd5b6101c1600480803573ffffffffffffffffffffffffffffffffffffffff169060200190919050506107f2565b005b34156101ce57600080fd5b610219600480803573ffffffffffffffffffffffffffffffffffffffff1690602001909190803573ffffffffffffffffffffffffffffffffffffffff16906020019091905050610963565b604051808215151515815260200191505060405180910390f35b341561023e57600080fd5b61028e600480803590602001908201803590602001908080601f01602080910402602001604051908101604052809392919081815260200183838082843782019150505050505091905050610993565b005b341561029b57600080fd5b6102a3610a7a565b6040518082815260200191505060405180910390f35b34156102c457600080fd5b6102f0600480803573ffffffffffffffffffffffffffffffffffffffff16906020019091905050610a81565b6040518082815260200191505060405180910390f35b341561031157600080fd5b610380600480803573ffffffffffffffffffffffffffffffffffffffff1690602001909190803590602001908201803590602001908080601f01602080910402602001604051908101604052809392919081815260200183838082843782019150505050505091905050610a9a565b005b341561038d57600080fd5b610395610e28565b6040518082815260200191505060405180910390f35b34156103b657600080fd5b6103be610e2e565b6040518082815260200191505060405180910390f35b34156103df57600080fd5b6103e7610e35565b6040518082815260200191505060405180910390f35b341561040857600080fd5b61041e6004808035906020019091905050610e3b565b005b341561042b57600080fd5b610457600480803573ffffffffffffffffffffffffffffffffffffffff16906020019091905050610e6c565b604051808215151515815260200191505060405180910390f35b341561047c57600080fd5b6104b1600480803573ffffffffffffffffffffffffffffffffffffffff16906020019091908035906020019091905050610ea2565b005b34156104be57600080fd5b6104d8600480803560001916906020019091905050610f59565b005b34156104e557600080fd5b6104fb600480803590602001909190505061106d565b005b341561050857600080fd5b61051e60048080359060200190919050506110ec565b005b341561052b57600080fd5b61056460048080356000191690602001909190803573ffffffffffffffffffffffffffffffffffffffff16906020019091905050611154565b604051808215151515815260200191505060405180910390f35b341561058957600080fd5b6105d4600480803573ffffffffffffffffffffffffffffffffffffffff1690602001909190803573ffffffffffffffffffffffffffffffffffffffff169060200190919050506111d4565b005b34156105e157600080fd5b61060d600480803573ffffffffffffffffffffffffffffffffffffffff169060200190919050506113f8565b005b341561061a57600080fd5b610673600480803590602001908201803590602001908080601f016020809104026020016040519081016040528093929190818152602001838380828437820191505050505050919080359060200190919050506114e1565b005b341561068057600080fd5b6106ac600480803573ffffffffffffffffffffffffffffffffffffffff169060200190919050506115d1565b005b34156106b957600080fd5b610709600480803590602001908201803590602001908080601f0160208091040260200160405190810160405280939291908181526020018383808284378201915050505050509190505061174c565b005b61071433610e6c565b151561071f57600080fd5b7fca48d34931d5bde17142b334b693a3d8ce0c5410b09508515f796c4edeece2333382604051808373ffffffffffffffffffffffffffffffffffffffff1673ffffffffffffffffffffffffffffffffffffffff16815260200180602001828103825283818151815260200191508051906020019080838360005b838110156107b4578082015181840152602081019050610799565b50505050905090810190601f1680156107e15780820380516001836020036101000a031916815260200191505b50935050505060405180910390a150565b600081604051808273ffffffffffffffffffffffffffffffffffffffff1673ffffffffffffffffffffffffffffffffffffffff166c01000000000000000000000000028152601401915050604051809103902061084e81611833565b1561095e5761010260008473ffffffffffffffffffffffffffffffffffffffff168152602001908152602001600020549150600082141561088e5761095d565b600180540360005411156108a15761095d565b6000600283610100811015156108b357fe5b0181905550600061010260008573ffffffffffffffffffffffffffffffffffffffff168152602001908152602001600020819055506108f0611a3f565b6108f8611af5565b507f6e76fb4c77256006d9c38ec7d82b45a8c8f3c27b1d6766fffc42dfb8de68449283604051808273ffffffffffffffffffffffffffffffffffffffff1673ffffffffffffffffffffffffffffffffffffffff16815260200191505060405180910390a15b5b505050565b6101056020528160005260406000206020528060005260406000206000915091509054906101000a900460ff1681565b61099c33610e6c565b15156109a757600080fd5b7f7cb485ea0b94006836e7843f732bd430e6bdacfb671c89e0c45e90b50bdeebab3382604051808373ffffffffffffffffffffffffffffffffffffffff1673ffffffffffffffffffffffffffffffffffffffff16815260200180602001828103825283818151815260200191508051906020019080838360005b83811015610a3c578082015181840152602081019050610a21565b50505050905090810190601f168015610a695780820380516001836020036101000a031916815260200191505b50935050505060405180910390a150565b6101085481565b6101066020528060005260406000206000915090505481565b610aa333610e6c565b1515610aae57600080fd5b610ab782610e6c565b1515610ac257600080fd5b61010560003373ffffffffffffffffffffffffffffffffffffffff1673ffffffffffffffffffffffffffffffffffffffff16815260200190815260200160002060008373ffffffffffffffffffffffffffffffffffffffff1673ffffffffffffffffffffffffffffffffffffffff16815260200190815260200160002060009054906101000a900460ff16151515610b5957600080fd5b600161010560003373ffffffffffffffffffffffffffffffffffffffff1673ffffffffffffffffffffffffffffffffffffffff16815260200190815260200160002060008473ffffffffffffffffffffffffffffffffffffffff1673ffffffffffffffffffffffffffffffffffffffff16815260200190815260200160002060006101000a81548160ff021916908315150217905550600161010660008473ffffffffffffffffffffffffffffffffffffffff1673ffffffffffffffffffffffffffffffffffffffff168152602001908152602001600020600082825401925050819055506101075461010660008473ffffffffffffffffffffffffffffffffffffffff1673ffffffffffffffffffffffffffffffffffffffff16815260200190815260200160002054101515610d4457610c93826107f2565b610c9c82610e6c565b1515610d3f577fe9c2fbd5c4da96336898a171638c7891027728531326a4e0e590759b33755628816040518080602001828103825283818151815260200191508051906020019080838360005b83811015610d04578082015181840152602081019050610ce9565b50505050905090810190601f168015610d315780820380516001836020036101000a031916815260200191505b509250505060405180910390a15b610e24565b7fd2cf7704cfac41908cef775ac7e8e4359647bf2058f4b85278e308ae34c7c191338361010660008673ffffffffffffffffffffffffffffffffffffffff1673ffffffffffffffffffffffffffffffffffffffff16815260200190815260200160002054604051808473ffffffffffffffffffffffffffffffffffffffff1673ffffffffffffffffffffffffffffffffffffffff1681526020018373ffffffffffffffffffffffffffffffffffffffff1673ffffffffffffffffffffffffffffffffffffffff168152602001828152602001935050505060405180910390a15b5050565b60015481565b6101075481565b60005481565b80604051808281526020019150506040518091039020610e5a81611833565b15610e685781610107819055505b5050565b60008061010260008473ffffffffffffffffffffffffffffffffffffffff16815260200190815260200160002054119050919050565b610eab33610e6c565b1515610eb657600080fd5b7f059d7576e9633bca7696f2c9a469531f9ac98e62b3160b7fffcd804d18a7fc60338383604051808473ffffffffffffffffffffffffffffffffffffffff1673ffffffffffffffffffffffffffffffffffffffff1681526020018373ffffffffffffffffffffffffffffffffffffffff1673ffffffffffffffffffffffffffffffffffffffff168152602001828152602001935050505060405180910390a15050565b600080600061010260003373ffffffffffffffffffffffffffffffffffffffff1681526020019081526020016000205492506000831415610f9957611067565b8260020a915061010360008560001916600019168152602001908152602001600020905060008282600101541611156110665780600001600081548092919060010191905055508181600101600082825403925050819055507fc7fb647e59b18047309aa15aad418e5d7ca96d173ad704f1031a2c3d7591734b3385604051808373ffffffffffffffffffffffffffffffffffffffff1673ffffffffffffffffffffffffffffffffffffffff16815260200182600019166000191681526020019250505060405180910390a15b5b50505050565b8060405180828152602001915050604051809103902061108c81611833565b156110e8576001548211156110a0576110e7565b816000819055506110af611a3f565b7facbdb084c721332ac59f9b8e392196c9eb0e4932862da8eb9beaf0dad4f550da826040518082815260200191505060405180910390a15b5b5050565b8060405180828152602001915050604051809103902061110b81611833565b156111505781610108819055507f4b763fe790b8ee35d687c7519e4c28df97f1d0ecbc9812d7bb01ce1909e8ecf0826040518082815260200191505060405180910390a15b5050565b60008060008061010360008760001916600019168152602001908152602001600020925061010260008673ffffffffffffffffffffffffffffffffffffffff16815260200190815260200160002054915060008214156111b757600093506111cb565b8160020a9050600081846001015416141593505b50505092915050565b60008282604051808373ffffffffffffffffffffffffffffffffffffffff1673ffffffffffffffffffffffffffffffffffffffff166c010000000000000000000000000281526014018273ffffffffffffffffffffffffffffffffffffffff1673ffffffffffffffffffffffffffffffffffffffff166c0100000000000000000000000002815260140192505050604051809103902061127381611833565b156113f25761128183610e6c565b1561128b576113f1565b61010260008573ffffffffffffffffffffffffffffffffffffffff16815260200190815260200160002054915060008214156112c6576113f1565b6112ce611a3f565b8273ffffffffffffffffffffffffffffffffffffffff16600283610100811015156112f557fe5b0181905550600061010260008673ffffffffffffffffffffffffffffffffffffffff168152602001908152602001600020819055508161010260008573ffffffffffffffffffffffffffffffffffffffff168152602001908152602001600020819055507f05d866cd9c6000815d031b7ce30f30f643766eba16be13cff25924dc8ad820928484604051808373ffffffffffffffffffffffffffffffffffffffff1673ffffffffffffffffffffffffffffffffffffffff1681526020018273ffffffffffffffffffffffffffffffffffffffff1673ffffffffffffffffffffffffffffffffffffffff1681526020019250505060405180910390a15b5b50505050565b61140133610e6c565b151561140c57600080fd5b3073ffffffffffffffffffffffffffffffffffffffff168173ffffffffffffffffffffffffffffffffffffffff161415151561144757600080fd5b7f1de42a421eef953b12e8dffca9f7ba12e7962c982fc649e5e2c32ea0e7e3ca643382604051808373ffffffffffffffffffffffffffffffffffffffff1673ffffffffffffffffffffffffffffffffffffffff1681526020018273ffffffffffffffffffffffffffffffffffffffff1673ffffffffffffffffffffffffffffffffffffffff1681526020019250505060405180910390a150565b6114ea33610e6c565b15156114f557600080fd5b7f860caf696acfb28a58ef6f4a46b7fc197a29e60739a95d692ac1522e9ea11925338383604051808473ffffffffffffffffffffffffffffffffffffffff1673ffffffffffffffffffffffffffffffffffffffff16815260200180602001838152602001828103825284818151815260200191508051906020019080838360005b83811015611591578082015181840152602081019050611576565b50505050905090810190601f1680156115be5780820380516001836020036101000a031916815260200191505b5094505050505060405180910390a15050565b80604051808273ffffffffffffffffffffffffffffffffffffffff1673ffffffffffffffffffffffffffffffffffffffff166c01000000000000000000000000028152601401915050604051809103902061162b81611833565b156117485761163982610e6c565b1561164357611747565b61164b611a3f565b60fa6001541015156116615761165f611af5565b505b60fa60015410151561167257611747565b6001600081548092919060010191905055508173ffffffffffffffffffffffffffffffffffffffff166002600154610100811015156116ad57fe5b018190555060015461010260008473ffffffffffffffffffffffffffffffffffffffff168152602001908152602001600020819055507fb251eb052afc73ffd02ffe85ad79990a8b3fed60d76dbc2fa2fdd7123dffd91482604051808273ffffffffffffffffffffffffffffffffffffffff1673ffffffffffffffffffffffffffffffffffffffff16815260200191505060405180910390a15b5b5050565b61175533610e6c565b151561176057600080fd5b7f1c5a900544651f923f018310e949445eb80e82a5159edcedbd2b2deec2bbb4ee3382604051808373ffffffffffffffffffffffffffffffffffffffff1673ffffffffffffffffffffffffffffffffffffffff16815260200180602001828103825283818151815260200191508051906020019080838360005b838110156117f55780820151818401526020810190506117da565b50505050905090810190601f1680156118225780820380516001836020036101000a031916815260200191505b50935050505060405180910390a150565b60008060008061010260003373ffffffffffffffffffffffffffffffffffffffff168152602001908152602001600020549250600083141561187457611a37565b6101036000866000191660001916815260200190815260200160002091506000826000015414156118fa5760005482600001819055506000826001018190555061010480548091906001016118c99190611c3c565b82600201819055508461010483600201548154811015156118e657fe5b906000526020600020900181600019169055505b8260020a90506000818360010154161415611a36577fe1c52dc63b719ade82e8bea94cc41a0d5d28e4aaf536adb5e9cccc9ff8c1aeda3386604051808373ffffffffffffffffffffffffffffffffffffffff1673ffffffffffffffffffffffffffffffffffffffff16815260200182600019166000191681526020019250505060405180910390a160018260000154111515611a0e5761010461010360008760001916600019168152602001908152602001600020600201548154811015156119bf57fe5b9060005260206000209001600090556101036000866000191660001916815260200190815260200160002060008082016000905560018201600090556002820160009055505060019350611a37565b8160000160008154809291906001900391905055508082600101600082825417925050819055505b5b505050919050565b600080610104805490509150600090505b81811015611ae257600060010261010482815481101515611a6d57fe5b90600052602060002090015460001916141515611ad757610103600061010483815481101515611a9957fe5b906000526020600020900154600019166000191681526020019081526020016000206000808201600090556001820160009055600282016000905550505b806001019050611a50565b6101046000611af19190611c68565b5050565b600080600190505b600154811015611c38575b60015481108015611b2b5750600060028261010081101515611b2657fe5b015414155b15611b3d578080600101915050611b08565b5b60018054118015611b6257506000600260015461010081101515611b5e57fe5b0154145b15611b7f5760016000815480929190600190039190505550611b3e565b60015481108015611ba457506000600260015461010081101515611b9f57fe5b015414155b8015611bc15750600060028261010081101515611bbd57fe5b0154145b15611c3357600260015461010081101515611bd857fe5b015460028261010081101515611bea57fe5b018190555080610102600060028461010081101515611c0557fe5b01548152602001908152602001600020819055506000600260015461010081101515611c2d57fe5b01819055505b611afd565b5090565b815481835581811511611c6357818360005260206000209182019101611c629190611c89565b5b505050565b5080546000825590600052602060002090810190611c869190611c89565b50565b611cab91905b80821115611ca7576000816000905550600101611c8f565b5090565b905600a165627a7a72305820d8ee19fcbe9750c1eccba9cfb4ad938bd19b897dbbdd13e5836e5d33f096f0090029",
  "source": "pragma solidity ^0.4.11;\n\n\nimport \"./IPFSEvents.sol\";\nimport \"./Multimember.sol\";\n\n\ncontract IPFSProxy is IPFSEvents, Multimember {\n    mapping(address => mapping( address => bool)) public complained;\n    mapping(address => uint) public complaint;\n    uint public banThreshold;\n    uint public sizeLimit;\n    address[] members;\n    \n    /**\n    * @dev Throws if called by any account other than a valid member. \n    */\n    modifier onlyValidMembers {\n        require (isMember(msg.sender));\n        _;\n    }\n\n    event ContractAdded(address member, address pubKey, uint ttl);\n    event ContractRemoved(address member, address pubKey);\n    event MetadataContractAdded(address member, string metadataHash);\n    event MetadataContractRemoved(address member, string metadataHash);\n    event Banned(string consoritumHash);\n    event BanAttempt(address complainer, address member, uint complaints);\n    event PersistLimitChanged(uint limit);\t\n\n    /**\n    * @dev Constructor - adds the owner of the contract to the list of valid members\n    */\n    function IPFSProxy() Multimember (members, 1) public {\n        addContract(this, 0);\n        updateBanThreshold(1);\n        setTotalPersistLimit(10000000000); //10 GB\n    }\n\n    /**\n    * @dev Add hash to persistent storage\n    * @param ipfsHash The ipfs hash to propagate.\n    * @param ttl amount of time is seconds to persist this. \n    */\n    function addHash(string ipfsHash, uint ttl) public onlyValidMembers {\n        HashAdded(msg.sender,ipfsHash,ttl);\n    }\n\n    /**\n    * @dev Remove hash from persistent storage\n    * @param ipfsHash The ipfs hash to propagate.\t\n    */\n    function removeHash(string ipfsHash) public onlyValidMembers {\n        HashRemoved(msg.sender,ipfsHash);\n    }\n\n    /** \n    * Add a contract to watch list. Each node will then \n    * watch it for `HashAdded(msg.sender,ipfsHash,ttlv);` \n    * events and it will cache these events\n    */\n    function addContract(address toWatch, uint ttl) public onlyValidMembers {\n        ContractAdded(msg.sender, toWatch, ttl);\n    }\n\n    /**\n    * @dev Remove contract from watch list\n    */\n    function removeContract(address contractAddress) public onlyValidMembers {\n        require(contractAddress != address(this));\n        ContractRemoved(msg.sender,contractAddress);\n    }\n\n   /** \n    * Add a metadata of a contract to watch list. Each node will then \n    * read the ipfs hash file with the metadata about the contract \n    */\n    function metadataContractAdded(string _metadataHash) public onlyValidMembers {\n        MetadataContractAdded(msg.sender, _metadataHash);\n    }\n\n    /** \n    * removed a metadata of a contract to watch list.\n    */\n    function metadataContractRemoved(string _metadataHash) public onlyValidMembers {\n        MetadataContractRemoved(msg.sender, _metadataHash);\n    }\n\n    /**\n    *@dev removes a member who exceeds the cap\n    */\n    function banMember (address member, string evidence) public onlyValidMembers {\n        require(isMember(member));\n        require(!complained[msg.sender][member]);\n        complained[msg.sender][member] = true;\n        complaint[member] += 1;\t\n        if (complaint[member] >= banThreshold) { \n            removeMember(member);\n            if (!isMember(member)) {\n                Banned(evidence);\n            } \n        } else {\n            BanAttempt(msg.sender, member, complaint[member]);\n        }\n    }\n\n    /**\n    * @dev update ban threshold\n    */\n    function updateBanThreshold (uint threshold) public onlymanymembers(keccak256(threshold)) {\n        banThreshold = threshold;\n    }\n\n    /**\n    * @dev set total allowed upload\n    *\n    **/\n    function setTotalPersistLimit (uint limit) public onlymanymembers(keccak256(limit)) {\n        sizeLimit = limit;\n        PersistLimitChanged(limit);\n    }\n}\n",
  "sourcePath": "/Users/edu/IPFSConsortium/IPFSConsortiumContracts/contracts/IPFSProxy.sol",
  "compiler": {
    "name": "solc",
    "version": "0.4.19+commit.c4cbbb05.Emscripten.clang"
  },
  "schemaVersion": "2.0.0",
  "updatedAt": "2018-03-28T15:39:17.708Z"
}