{
  "contractName": "IPFSProxy",
  "abi": [
    {
      "constant": false,
      "inputs": [
        {
          "name": "_member",
          "type": "address"
        }
      ],
      "name": "removeMember",
      "outputs": [],
      "payable": false,
      "stateMutability": "nonpayable",
      "type": "function"
    },
    {
      "constant": true,
      "inputs": [],
      "name": "persistLimit",
      "outputs": [
        {
          "name": "",
          "type": "uint256"
        }
      ],
      "payable": false,
      "stateMutability": "view",
      "type": "function"
    },
    {
      "constant": true,
      "inputs": [],
      "name": "m_numMembers",
      "outputs": [
        {
          "name": "",
          "type": "uint256"
        }
      ],
      "payable": false,
      "stateMutability": "view",
      "type": "function"
    },
    {
      "constant": true,
      "inputs": [],
      "name": "m_required",
      "outputs": [
        {
          "name": "",
          "type": "uint256"
        }
      ],
      "payable": false,
      "stateMutability": "view",
      "type": "function"
    },
    {
      "constant": true,
      "inputs": [
        {
          "name": "_addr",
          "type": "address"
        }
      ],
      "name": "isMember",
      "outputs": [
        {
          "name": "",
          "type": "bool"
        }
      ],
      "payable": false,
      "stateMutability": "view",
      "type": "function"
    },
    {
      "constant": false,
      "inputs": [
        {
          "name": "_operation",
          "type": "bytes32"
        }
      ],
      "name": "revoke",
      "outputs": [],
      "payable": false,
      "stateMutability": "nonpayable",
      "type": "function"
    },
    {
      "constant": false,
      "inputs": [
        {
          "name": "_newRequired",
          "type": "uint256"
        }
      ],
      "name": "changeRequirement",
      "outputs": [],
      "payable": false,
      "stateMutability": "nonpayable",
      "type": "function"
    },
    {
      "constant": true,
      "inputs": [
        {
          "name": "_operation",
          "type": "bytes32"
        },
        {
          "name": "_member",
          "type": "address"
        }
      ],
      "name": "hasConfirmed",
      "outputs": [
        {
          "name": "",
          "type": "bool"
        }
      ],
      "payable": false,
      "stateMutability": "view",
      "type": "function"
    },
    {
      "constant": false,
      "inputs": [
        {
          "name": "_from",
          "type": "address"
        },
        {
          "name": "_to",
          "type": "address"
        }
      ],
      "name": "changeMember",
      "outputs": [],
      "payable": false,
      "stateMutability": "nonpayable",
      "type": "function"
    },
    {
      "constant": false,
      "inputs": [
        {
          "name": "_member",
          "type": "address"
        }
      ],
      "name": "addMember",
      "outputs": [],
      "payable": false,
      "stateMutability": "nonpayable",
      "type": "function"
    },
    {
      "inputs": [
        {
          "name": "_members",
          "type": "address[]"
        },
        {
          "name": "_required",
          "type": "uint256"
        },
        {
          "name": "_persistlimit",
          "type": "uint256"
        }
      ],
      "payable": false,
      "stateMutability": "nonpayable",
      "type": "constructor"
    },
    {
      "anonymous": false,
      "inputs": [
        {
          "indexed": false,
          "name": "limit",
          "type": "uint256"
        }
      ],
      "name": "PersistLimitChanged",
      "type": "event"
    },
    {
      "anonymous": false,
      "inputs": [
        {
          "indexed": false,
          "name": "pubKey",
          "type": "address"
        }
      ],
      "name": "ContractAdded",
      "type": "event"
    },
    {
      "anonymous": false,
      "inputs": [
        {
          "indexed": false,
          "name": "pubKey",
          "type": "address"
        }
      ],
      "name": "ContractRemoved",
      "type": "event"
    },
    {
      "anonymous": false,
      "inputs": [
        {
          "indexed": false,
          "name": "member",
          "type": "address"
        },
        {
          "indexed": false,
          "name": "operation",
          "type": "bytes32"
        }
      ],
      "name": "Confirmation",
      "type": "event"
    },
    {
      "anonymous": false,
      "inputs": [
        {
          "indexed": false,
          "name": "member",
          "type": "address"
        },
        {
          "indexed": false,
          "name": "operation",
          "type": "bytes32"
        }
      ],
      "name": "Revoke",
      "type": "event"
    },
    {
      "anonymous": false,
      "inputs": [
        {
          "indexed": false,
          "name": "oldMember",
          "type": "address"
        },
        {
          "indexed": false,
          "name": "newMember",
          "type": "address"
        }
      ],
      "name": "MemberChanged",
      "type": "event"
    },
    {
      "anonymous": false,
      "inputs": [
        {
          "indexed": false,
          "name": "newMember",
          "type": "address"
        }
      ],
      "name": "MemberAdded",
      "type": "event"
    },
    {
      "anonymous": false,
      "inputs": [
        {
          "indexed": false,
          "name": "oldMember",
          "type": "address"
        }
      ],
      "name": "MemberRemoved",
      "type": "event"
    },
    {
      "anonymous": false,
      "inputs": [
        {
          "indexed": false,
          "name": "newRequirement",
          "type": "uint256"
        }
      ],
      "name": "RequirementChanged",
      "type": "event"
    },
    {
      "anonymous": false,
      "inputs": [
        {
          "indexed": false,
          "name": "hash",
          "type": "string"
        },
        {
          "indexed": false,
          "name": "ttl",
          "type": "uint256"
        }
      ],
      "name": "HashAdded",
      "type": "event"
    },
    {
      "anonymous": false,
      "inputs": [
        {
          "indexed": false,
          "name": "hash",
          "type": "string"
        }
      ],
      "name": "HashRemoved",
      "type": "event"
    },
    {
      "anonymous": false,
      "inputs": [
        {
          "indexed": false,
          "name": "hash",
          "type": "string"
        }
      ],
      "name": "MetadataObjectAdded",
      "type": "event"
    },
    {
      "anonymous": false,
      "inputs": [
        {
          "indexed": false,
          "name": "hash",
          "type": "string"
        }
      ],
      "name": "MetadataObjectRemoved",
      "type": "event"
    },
    {
      "constant": false,
      "inputs": [
        {
          "name": "_ipfsHash",
          "type": "string"
        },
        {
          "name": "_ttl",
          "type": "uint256"
        }
      ],
      "name": "addHash",
      "outputs": [],
      "payable": false,
      "stateMutability": "nonpayable",
      "type": "function"
    },
    {
      "constant": false,
      "inputs": [
        {
          "name": "_ipfsHash",
          "type": "string"
        }
      ],
      "name": "removeHash",
      "outputs": [],
      "payable": false,
      "stateMutability": "nonpayable",
      "type": "function"
    },
    {
      "constant": false,
      "inputs": [
        {
          "name": "_contractAddress",
          "type": "address"
        }
      ],
      "name": "addContract",
      "outputs": [],
      "payable": false,
      "stateMutability": "nonpayable",
      "type": "function"
    },
    {
      "constant": false,
      "inputs": [
        {
          "name": "_contractAddress",
          "type": "address"
        }
      ],
      "name": "removeContract",
      "outputs": [],
      "payable": false,
      "stateMutability": "nonpayable",
      "type": "function"
    },
    {
      "constant": false,
      "inputs": [
        {
          "name": "_metadataHash",
          "type": "string"
        }
      ],
      "name": "addMetadataObject",
      "outputs": [],
      "payable": false,
      "stateMutability": "nonpayable",
      "type": "function"
    },
    {
      "constant": false,
      "inputs": [
        {
          "name": "_metadataHash",
          "type": "string"
        }
      ],
      "name": "removeMetadataObject",
      "outputs": [],
      "payable": false,
      "stateMutability": "nonpayable",
      "type": "function"
    },
    {
      "constant": false,
      "inputs": [
        {
          "name": "_limit",
          "type": "uint256"
        }
      ],
      "name": "setTotalPersistLimit",
      "outputs": [],
      "payable": false,
      "stateMutability": "nonpayable",
      "type": "function"
    }
  ],
  "bytecode": "0x606060405234156200001057600080fd5b60405162001ced38038062001ced8339810160405280805182019190602001805190602001909190805190602001909190505060008383600060018351016001819055503373ffffffffffffffffffffffffffffffffffffffff1660026001610100811015156200007d57fe5b0181905550600161010260003373ffffffffffffffffffffffffffffffffffffffff16815260200190815260200160002081905550600090505b82518110156200015f578281815181101515620000d057fe5b9060200190602002015173ffffffffffffffffffffffffffffffffffffffff16600282600201610100811015156200010457fe5b018190555080600201610102600085848151811015156200012157fe5b9060200190602002015173ffffffffffffffffffffffffffffffffffffffff16815260200190815260200160002081905550806001019050620000b7565b816000819055505050506200018882620002476401000000000262000ba5176401000000009004565b600090505b83518110156200021e577fb251eb052afc73ffd02ffe85ad79990a8b3fed60d76dbc2fa2fdd7123dffd9148482815181101515620001c757fe5b90602001906020020151604051808273ffffffffffffffffffffffffffffffffffffffff1673ffffffffffffffffffffffffffffffffffffffff16815260200191505060405180910390a18060010190506200018d565b6200023d30620002c6640100000000026200080e176401000000009004565b50505050620005f5565b806040518082815260200191505060405180910390206200027c81620003526401000000000262001241176401000000009004565b15620002c25781610105819055507f4b763fe790b8ee35d687c7519e4c28df97f1d0ecbc9812d7bb01ce1909e8ecf0826040518082815260200191505060405180910390a15b5050565b620002e533620005686401000000000262000889176401000000009004565b156200034f577f89c66952b48f3e96bf1d8ba1b63189520fd988a6979b8b740bd5c5d8dc53e20581604051808273ffffffffffffffffffffffffffffffffffffffff1673ffffffffffffffffffffffffffffffffffffffff16815260200191505060405180910390a15b50565b60008060008061010260003373ffffffffffffffffffffffffffffffffffffffff1681526020019081526020016000205492506000831415620003955762000560565b6101036000866000191660001916815260200190815260200160002091506000826000015414156200041f576000548260000181905550600082600101819055506101048054809190600101620003ed91906200059e565b82600201819055508461010483600201548154811015156200040b57fe5b906000526020600020900181600019169055505b8260020a905060008183600101541614156200055f577fe1c52dc63b719ade82e8bea94cc41a0d5d28e4aaf536adb5e9cccc9ff8c1aeda3386604051808373ffffffffffffffffffffffffffffffffffffffff1673ffffffffffffffffffffffffffffffffffffffff16815260200182600019166000191681526020019250505060405180910390a16001826000015411151562000537576101046101036000876000191660001916815260200190815260200160002060020154815481101515620004e757fe5b906000526020600020900160009055610103600086600019166000191681526020019081526020016000206000808201600090556001820160009055600282016000905550506001935062000560565b8160000160008154809291906001900391905055508082600101600082825417925050819055505b5b505050919050565b60008061010260008473ffffffffffffffffffffffffffffffffffffffff16815260200190815260200160002054119050919050565b815481835581811511620005c857818360005260206000209182019101620005c79190620005cd565b5b505050565b620005f291905b80821115620005ee576000816000905550600101620005d4565b5090565b90565b6116e880620006056000396000f3006060604052600436106100f1576000357c0100000000000000000000000000000000000000000000000000000000900463ffffffff1680630b1ca49a146100f65780631fe51f821461012f578063300abd611461015857806355368442146101815780635f539d69146101de578063746c917114610217578063a230c52414610240578063af47752814610291578063b75c7dc6146102ee578063ba51a6df14610315578063c0bb6c2714610338578063c2cf73261461035b578063c353a89e146103b9578063c375c2ef14610411578063c96f50411461044a578063ca6d56dc146104b0578063fa59d199146104e9575b600080fd5b341561010157600080fd5b61012d600480803573ffffffffffffffffffffffffffffffffffffffff16906020019091905050610546565b005b341561013a57600080fd5b6101426106b7565b6040518082815260200191505060405180910390f35b341561016357600080fd5b61016b6106be565b6040518082815260200191505060405180910390f35b341561018c57600080fd5b6101dc600480803590602001908201803590602001908080601f016020809104026020016040519081016040528093929190818152602001838380828437820191505050505050919050506106c4565b005b34156101e957600080fd5b610215600480803573ffffffffffffffffffffffffffffffffffffffff1690602001909190505061080e565b005b341561022257600080fd5b61022a610883565b6040518082815260200191505060405180910390f35b341561024b57600080fd5b610277600480803573ffffffffffffffffffffffffffffffffffffffff16906020019091905050610889565b604051808215151515815260200191505060405180910390f35b341561029c57600080fd5b6102ec600480803590602001908201803590602001908080601f016020809104026020016040519081016040528093929190818152602001838380828437820191505050505050919050506108bf565b005b34156102f957600080fd5b610313600480803560001916906020019091905050610a12565b005b341561032057600080fd5b6103366004808035906020019091905050610b26565b005b341561034357600080fd5b6103596004808035906020019091905050610ba5565b005b341561036657600080fd5b61039f60048080356000191690602001909190803573ffffffffffffffffffffffffffffffffffffffff16906020019091905050610c0d565b604051808215151515815260200191505060405180910390f35b34156103c457600080fd5b61040f600480803573ffffffffffffffffffffffffffffffffffffffff1690602001909190803573ffffffffffffffffffffffffffffffffffffffff16906020019091905050610c8d565b005b341561041c57600080fd5b610448600480803573ffffffffffffffffffffffffffffffffffffffff16906020019091905050610eb1565b005b341561045557600080fd5b6104ae600480803590602001908201803590602001908080601f01602080910402602001604051908101604052809392919081815260200183838082843782019150505050505091908035906020019091905050610f61565b005b34156104bb57600080fd5b6104e7600480803573ffffffffffffffffffffffffffffffffffffffff16906020019091905050611018565b005b34156104f457600080fd5b610544600480803590602001908201803590602001908080601f01602080910402602001604051908101604052809392919081815260200183838082843782019150505050505091905050611193565b005b600081604051808273ffffffffffffffffffffffffffffffffffffffff1673ffffffffffffffffffffffffffffffffffffffff166c0100000000000000000000000002815260140191505060405180910390206105a281611241565b156106b25761010260008473ffffffffffffffffffffffffffffffffffffffff16815260200190815260200160002054915060008214156105e2576106b1565b600180540360005411156105f5576106b1565b60006002836101008110151561060757fe5b0181905550600061010260008573ffffffffffffffffffffffffffffffffffffffff1681526020019081526020016000208190555061064461144d565b61064c611503565b507f6e76fb4c77256006d9c38ec7d82b45a8c8f3c27b1d6766fffc42dfb8de68449283604051808273ffffffffffffffffffffffffffffffffffffffff1673ffffffffffffffffffffffffffffffffffffffff16815260200191505060405180910390a15b5b505050565b6101055481565b60015481565b6106cd33610889565b1561080b577f692b13c4ae14384c86067c051aab033690eee637544b39272a7ce03d397911e3816040518080602001828103825283818151815260200191508051906020019080838360005b83811015610734578082015181840152602081019050610719565b50505050905090810190601f1680156107615780820380516001836020036101000a031916815260200191505b509250505060405180910390a17ff3865eef141cd6675da8f4daf1a58923ca5873d9ade45d87b55d048d34c8bf1a816040518080602001828103825283818151815260200191508051906020019080838360005b838110156107d05780820151818401526020810190506107b5565b50505050905090810190601f1680156107fd5780820380516001836020036101000a031916815260200191505b509250505060405180910390a15b50565b61081733610889565b15610880577f89c66952b48f3e96bf1d8ba1b63189520fd988a6979b8b740bd5c5d8dc53e20581604051808273ffffffffffffffffffffffffffffffffffffffff1673ffffffffffffffffffffffffffffffffffffffff16815260200191505060405180910390a15b50565b60005481565b60008061010260008473ffffffffffffffffffffffffffffffffffffffff16815260200190815260200160002054119050919050565b6108c833610889565b15610a0f577f5408fd7f5e5816164e1c98cc4d631233737963ce260f8ac2c5d85b895bfbc9ff8160006040518080602001838152602001828103825284818151815260200191508051906020019080838360005b8381101561093757808201518184015260208101905061091c565b50505050905090810190601f1680156109645780820380516001836020036101000a031916815260200191505b50935050505060405180910390a17f6080dac389662cd5c2c1b74876cff3c343500a99e9f0bcd2488346545c732c2b816040518080602001828103825283818151815260200191508051906020019080838360005b838110156109d45780820151818401526020810190506109b9565b50505050905090810190601f168015610a015780820380516001836020036101000a031916815260200191505b509250505060405180910390a15b50565b600080600061010260003373ffffffffffffffffffffffffffffffffffffffff1681526020019081526020016000205492506000831415610a5257610b20565b8260020a91506101036000856000191660001916815260200190815260200160002090506000828260010154161115610b1f5780600001600081548092919060010191905055508181600101600082825403925050819055507fc7fb647e59b18047309aa15aad418e5d7ca96d173ad704f1031a2c3d7591734b3385604051808373ffffffffffffffffffffffffffffffffffffffff1673ffffffffffffffffffffffffffffffffffffffff16815260200182600019166000191681526020019250505060405180910390a15b5b50505050565b80604051808281526020019150506040518091039020610b4581611241565b15610ba157600154821115610b5957610ba0565b81600081905550610b6861144d565b7facbdb084c721332ac59f9b8e392196c9eb0e4932862da8eb9beaf0dad4f550da826040518082815260200191505060405180910390a15b5b5050565b80604051808281526020019150506040518091039020610bc481611241565b15610c095781610105819055507f4b763fe790b8ee35d687c7519e4c28df97f1d0ecbc9812d7bb01ce1909e8ecf0826040518082815260200191505060405180910390a15b5050565b60008060008061010360008760001916600019168152602001908152602001600020925061010260008673ffffffffffffffffffffffffffffffffffffffff1681526020019081526020016000205491506000821415610c705760009350610c84565b8160020a9050600081846001015416141593505b50505092915050565b60008282604051808373ffffffffffffffffffffffffffffffffffffffff1673ffffffffffffffffffffffffffffffffffffffff166c010000000000000000000000000281526014018273ffffffffffffffffffffffffffffffffffffffff1673ffffffffffffffffffffffffffffffffffffffff166c01000000000000000000000000028152601401925050506040518091039020610d2c81611241565b15610eab57610d3a83610889565b15610d4457610eaa565b61010260008573ffffffffffffffffffffffffffffffffffffffff1681526020019081526020016000205491506000821415610d7f57610eaa565b610d8761144d565b8273ffffffffffffffffffffffffffffffffffffffff1660028361010081101515610dae57fe5b0181905550600061010260008673ffffffffffffffffffffffffffffffffffffffff168152602001908152602001600020819055508161010260008573ffffffffffffffffffffffffffffffffffffffff168152602001908152602001600020819055507f05d866cd9c6000815d031b7ce30f30f643766eba16be13cff25924dc8ad820928484604051808373ffffffffffffffffffffffffffffffffffffffff1673ffffffffffffffffffffffffffffffffffffffff1681526020018273ffffffffffffffffffffffffffffffffffffffff1673ffffffffffffffffffffffffffffffffffffffff1681526020019250505060405180910390a15b5b50505050565b610eba33610889565b15610f5e573073ffffffffffffffffffffffffffffffffffffffff168173ffffffffffffffffffffffffffffffffffffffff1614151515610efa57600080fd5b7f8d30d41865a0b811b9545d879520d2dde9f4cc49e4241f486ad9752bc904b56581604051808273ffffffffffffffffffffffffffffffffffffffff1673ffffffffffffffffffffffffffffffffffffffff16815260200191505060405180910390a15b50565b610f6a33610889565b15611014577f5408fd7f5e5816164e1c98cc4d631233737963ce260f8ac2c5d85b895bfbc9ff82826040518080602001838152602001828103825284818151815260200191508051906020019080838360005b83811015610fd8578082015181840152602081019050610fbd565b50505050905090810190601f1680156110055780820380516001836020036101000a031916815260200191505b50935050505060405180910390a15b5050565b80604051808273ffffffffffffffffffffffffffffffffffffffff1673ffffffffffffffffffffffffffffffffffffffff166c01000000000000000000000000028152601401915050604051809103902061107281611241565b1561118f5761108082610889565b1561108a5761118e565b61109261144d565b60fa6001541015156110a8576110a6611503565b505b60fa6001541015156110b95761118e565b6001600081548092919060010191905055508173ffffffffffffffffffffffffffffffffffffffff166002600154610100811015156110f457fe5b018190555060015461010260008473ffffffffffffffffffffffffffffffffffffffff168152602001908152602001600020819055507fb251eb052afc73ffd02ffe85ad79990a8b3fed60d76dbc2fa2fdd7123dffd91482604051808273ffffffffffffffffffffffffffffffffffffffff1673ffffffffffffffffffffffffffffffffffffffff16815260200191505060405180910390a15b5b5050565b61119c33610889565b1561123e577f692b13c4ae14384c86067c051aab033690eee637544b39272a7ce03d397911e3816040518080602001828103825283818151815260200191508051906020019080838360005b838110156112035780820151818401526020810190506111e8565b50505050905090810190601f1680156112305780820380516001836020036101000a031916815260200191505b509250505060405180910390a15b50565b60008060008061010260003373ffffffffffffffffffffffffffffffffffffffff168152602001908152602001600020549250600083141561128257611445565b6101036000866000191660001916815260200190815260200160002091506000826000015414156113085760005482600001819055506000826001018190555061010480548091906001016112d7919061164a565b82600201819055508461010483600201548154811015156112f457fe5b906000526020600020900181600019169055505b8260020a90506000818360010154161415611444577fe1c52dc63b719ade82e8bea94cc41a0d5d28e4aaf536adb5e9cccc9ff8c1aeda3386604051808373ffffffffffffffffffffffffffffffffffffffff1673ffffffffffffffffffffffffffffffffffffffff16815260200182600019166000191681526020019250505060405180910390a16001826000015411151561141c5761010461010360008760001916600019168152602001908152602001600020600201548154811015156113cd57fe5b9060005260206000209001600090556101036000866000191660001916815260200190815260200160002060008082016000905560018201600090556002820160009055505060019350611445565b8160000160008154809291906001900391905055508082600101600082825417925050819055505b5b505050919050565b600080610104805490509150600090505b818110156114f05760006001026101048281548110151561147b57fe5b906000526020600020900154600019161415156114e5576101036000610104838154811015156114a757fe5b906000526020600020900154600019166000191681526020019081526020016000206000808201600090556001820160009055600282016000905550505b80600101905061145e565b61010460006114ff9190611676565b5050565b600080600190505b600154811015611646575b60015481108015611539575060006002826101008110151561153457fe5b015414155b1561154b578080600101915050611516565b5b600180541180156115705750600060026001546101008110151561156c57fe5b0154145b1561158d576001600081548092919060019003919050555061154c565b600154811080156115b2575060006002600154610100811015156115ad57fe5b015414155b80156115cf57506000600282610100811015156115cb57fe5b0154145b15611641576002600154610100811015156115e657fe5b0154600282610100811015156115f857fe5b01819055508061010260006002846101008110151561161357fe5b0154815260200190815260200160002081905550600060026001546101008110151561163b57fe5b01819055505b61150b565b5090565b815481835581811511611671578183600052602060002091820191016116709190611697565b5b505050565b50805460008255906000526020600020908101906116949190611697565b50565b6116b991905b808211156116b557600081600090555060010161169d565b5090565b905600a165627a7a7230582044b68409a40f4b5bce9d0ca79da8a0bd49b4cee51008976b44182b29ceb26ef90029",
  "source": "pragma solidity ^0.4.19;\n\nimport \"./IPFSEvents.sol\";\nimport \"./Multimember.sol\";\n\ncontract IPFSProxy is IPFSEvents, Multimember {\n    uint public persistLimit;\n\n    event PersistLimitChanged(uint limit);\t\n    event ContractAdded(address pubKey);\n    event ContractRemoved(address pubKey);\n\n    /**\n    * @dev Constructor - adds the owner of the contract to the list of valid members\n    */\n    function IPFSProxy(address[] _members,uint _required, uint _persistlimit) Multimember (_members, _required) public {\n        setTotalPersistLimit(_persistlimit);\n         for (uint i = 0; i < _members.length; ++i) {\n            MemberAdded(_members[i]);\n         }\n         addContract(this);\n    }\n\n    /**\n    * @dev Add hash to persistent storage\n    * @param _ipfsHash The ipfs hash to propagate.\n    * @param _ttl amount of time is seconds to persist this. 0 = infinite\n    */\n    function addHash(string _ipfsHash, uint _ttl) public onlymember {\n        HashAdded(_ipfsHash,_ttl);\n    }\n\n    /**\n    * @dev Remove hash from persistent storage\n    * @param _ipfsHash The ipfs hash to propagate.\t\n    */\n    function removeHash(string _ipfsHash) public onlymember {\n        HashRemoved(_ipfsHash);\n    }\n\n   /** \n    * Add a contract to watch list. Each proxy will then \n    * watch it for HashAdded and HashRemoved events \n    * and cache these events\n    */\n    function addContract(address _contractAddress) public onlymember {\n        ContractAdded(_contractAddress);\n    }\n\n    /**\n    * @dev Remove contract from watch list\n    */\n    function removeContract(address _contractAddress) public onlymember {\n        require(_contractAddress != address(this));\n        ContractRemoved(_contractAddress);\n    }\n\n   /** \n    * Add a metadata of an object. Each proxy will then \n    * read the ipfs hash file with the metadata about the object and parse it \n    */\n    function addMetadataObject(string _metadataHash) public onlymember {\n        HashAdded(_metadataHash,0);\n        MetadataObjectAdded(_metadataHash);\n    }\n\n    /** \n    * removed a metadata of an object.\n    */\n    function removeMetadataObject(string _metadataHash) public onlymember {\n        HashRemoved(_metadataHash);\n        MetadataObjectRemoved(_metadataHash);\n    }\n\n    /**\n    * @dev set total allowed upload\n    *\n    **/\n    function setTotalPersistLimit (uint _limit) public onlymanymembers(keccak256(_limit)) {\n        persistLimit = _limit;\n        PersistLimitChanged(_limit);\n    }\n}\n",
  "sourcePath": "/Users/sponnet/Documents/projects/IPFSConsortiumContracts/contracts/IPFSProxy.sol",
  "compiler": {
    "name": "solc",
    "version": "0.4.19+commit.c4cbbb05.Emscripten.clang"
  },
  "schemaVersion": "2.0.0",
  "updatedAt": "2018-04-12T19:51:44.702Z"
}