{
  "contractName": "IPFSProxy",
  "abi": [
    {
      "constant": false,
      "inputs": [
        {
          "name": "_member",
          "type": "address"
        }
      ],
      "name": "removeMember",
      "outputs": [],
      "payable": false,
      "stateMutability": "nonpayable",
      "type": "function"
    },
    {
      "constant": true,
      "inputs": [
        {
          "name": "",
          "type": "address"
        },
        {
          "name": "",
          "type": "address"
        }
      ],
      "name": "complained",
      "outputs": [
        {
          "name": "",
          "type": "bool"
        }
      ],
      "payable": false,
      "stateMutability": "view",
      "type": "function"
    },
    {
      "constant": true,
      "inputs": [],
      "name": "sizeLimit",
      "outputs": [
        {
          "name": "",
          "type": "uint256"
        }
      ],
      "payable": false,
      "stateMutability": "view",
      "type": "function"
    },
    {
      "constant": true,
      "inputs": [
        {
          "name": "",
          "type": "address"
        }
      ],
      "name": "complaint",
      "outputs": [
        {
          "name": "",
          "type": "uint256"
        }
      ],
      "payable": false,
      "stateMutability": "view",
      "type": "function"
    },
    {
      "constant": true,
      "inputs": [],
      "name": "m_numMembers",
      "outputs": [
        {
          "name": "",
          "type": "uint256"
        }
      ],
      "payable": false,
      "stateMutability": "view",
      "type": "function"
    },
    {
      "constant": true,
      "inputs": [],
      "name": "banThreshold",
      "outputs": [
        {
          "name": "",
          "type": "uint256"
        }
      ],
      "payable": false,
      "stateMutability": "view",
      "type": "function"
    },
    {
      "constant": true,
      "inputs": [],
      "name": "m_required",
      "outputs": [
        {
          "name": "",
          "type": "uint256"
        }
      ],
      "payable": false,
      "stateMutability": "view",
      "type": "function"
    },
    {
      "constant": true,
      "inputs": [
        {
          "name": "_addr",
          "type": "address"
        }
      ],
      "name": "isMember",
      "outputs": [
        {
          "name": "",
          "type": "bool"
        }
      ],
      "payable": false,
      "stateMutability": "view",
      "type": "function"
    },
    {
      "constant": false,
      "inputs": [
        {
          "name": "_operation",
          "type": "bytes32"
        }
      ],
      "name": "revoke",
      "outputs": [],
      "payable": false,
      "stateMutability": "nonpayable",
      "type": "function"
    },
    {
      "constant": false,
      "inputs": [
        {
          "name": "_newRequired",
          "type": "uint256"
        }
      ],
      "name": "changeRequirement",
      "outputs": [],
      "payable": false,
      "stateMutability": "nonpayable",
      "type": "function"
    },
    {
      "constant": true,
      "inputs": [
        {
          "name": "_operation",
          "type": "bytes32"
        },
        {
          "name": "_member",
          "type": "address"
        }
      ],
      "name": "hasConfirmed",
      "outputs": [
        {
          "name": "",
          "type": "bool"
        }
      ],
      "payable": false,
      "stateMutability": "view",
      "type": "function"
    },
    {
      "constant": false,
      "inputs": [
        {
          "name": "_from",
          "type": "address"
        },
        {
          "name": "_to",
          "type": "address"
        }
      ],
      "name": "changeMember",
      "outputs": [],
      "payable": false,
      "stateMutability": "nonpayable",
      "type": "function"
    },
    {
      "constant": false,
      "inputs": [
        {
          "name": "_member",
          "type": "address"
        }
      ],
      "name": "addMember",
      "outputs": [],
      "payable": false,
      "stateMutability": "nonpayable",
      "type": "function"
    },
    {
      "inputs": [],
      "payable": false,
      "stateMutability": "nonpayable",
      "type": "constructor"
    },
    {
      "anonymous": false,
      "inputs": [
        {
          "indexed": false,
          "name": "member",
          "type": "address"
        },
        {
          "indexed": false,
          "name": "pubKey",
          "type": "address"
        },
        {
          "indexed": false,
          "name": "ttl",
          "type": "uint256"
        }
      ],
      "name": "ContractAdded",
      "type": "event"
    },
    {
      "anonymous": false,
      "inputs": [
        {
          "indexed": false,
          "name": "member",
          "type": "address"
        },
        {
          "indexed": false,
          "name": "pubKey",
          "type": "address"
        }
      ],
      "name": "ContractRemoved",
      "type": "event"
    },
    {
      "anonymous": false,
      "inputs": [
        {
          "indexed": false,
          "name": "member",
          "type": "address"
        },
        {
          "indexed": false,
          "name": "metadataHash",
          "type": "string"
        }
      ],
      "name": "MetadataContractAdded",
      "type": "event"
    },
    {
      "anonymous": false,
      "inputs": [
        {
          "indexed": false,
          "name": "member",
          "type": "address"
        },
        {
          "indexed": false,
          "name": "metadataHash",
          "type": "string"
        }
      ],
      "name": "MetadataContractRemoved",
      "type": "event"
    },
    {
      "anonymous": false,
      "inputs": [
        {
          "indexed": false,
          "name": "consoritumHash",
          "type": "string"
        }
      ],
      "name": "Banned",
      "type": "event"
    },
    {
      "anonymous": false,
      "inputs": [
        {
          "indexed": false,
          "name": "complainer",
          "type": "address"
        },
        {
          "indexed": false,
          "name": "member",
          "type": "address"
        },
        {
          "indexed": false,
          "name": "complaints",
          "type": "uint256"
        }
      ],
      "name": "BanAttempt",
      "type": "event"
    },
    {
      "anonymous": false,
      "inputs": [
        {
          "indexed": false,
          "name": "limit",
          "type": "uint256"
        }
      ],
      "name": "PersistLimitChanged",
      "type": "event"
    },
    {
      "anonymous": false,
      "inputs": [
        {
          "indexed": false,
          "name": "member",
          "type": "address"
        },
        {
          "indexed": false,
          "name": "operation",
          "type": "bytes32"
        }
      ],
      "name": "Confirmation",
      "type": "event"
    },
    {
      "anonymous": false,
      "inputs": [
        {
          "indexed": false,
          "name": "member",
          "type": "address"
        },
        {
          "indexed": false,
          "name": "operation",
          "type": "bytes32"
        }
      ],
      "name": "Revoke",
      "type": "event"
    },
    {
      "anonymous": false,
      "inputs": [
        {
          "indexed": false,
          "name": "oldMember",
          "type": "address"
        },
        {
          "indexed": false,
          "name": "newMember",
          "type": "address"
        }
      ],
      "name": "MemberChanged",
      "type": "event"
    },
    {
      "anonymous": false,
      "inputs": [
        {
          "indexed": false,
          "name": "newMember",
          "type": "address"
        }
      ],
      "name": "MemberAdded",
      "type": "event"
    },
    {
      "anonymous": false,
      "inputs": [
        {
          "indexed": false,
          "name": "oldMember",
          "type": "address"
        }
      ],
      "name": "MemberRemoved",
      "type": "event"
    },
    {
      "anonymous": false,
      "inputs": [
        {
          "indexed": false,
          "name": "newRequirement",
          "type": "uint256"
        }
      ],
      "name": "RequirementChanged",
      "type": "event"
    },
    {
      "anonymous": false,
      "inputs": [
        {
          "indexed": false,
          "name": "pubKey",
          "type": "address"
        },
        {
          "indexed": false,
          "name": "hashAdded",
          "type": "string"
        },
        {
          "indexed": false,
          "name": "ttl",
          "type": "uint256"
        }
      ],
      "name": "HashAdded",
      "type": "event"
    },
    {
      "anonymous": false,
      "inputs": [
        {
          "indexed": false,
          "name": "pubKey",
          "type": "address"
        },
        {
          "indexed": false,
          "name": "hashRemoved",
          "type": "string"
        }
      ],
      "name": "HashRemoved",
      "type": "event"
    },
    {
      "constant": false,
      "inputs": [
        {
          "name": "ipfsHash",
          "type": "string"
        },
        {
          "name": "ttl",
          "type": "uint256"
        }
      ],
      "name": "addHash",
      "outputs": [],
      "payable": false,
      "stateMutability": "nonpayable",
      "type": "function"
    },
    {
      "constant": false,
      "inputs": [
        {
          "name": "ipfsHash",
          "type": "string"
        }
      ],
      "name": "removeHash",
      "outputs": [],
      "payable": false,
      "stateMutability": "nonpayable",
      "type": "function"
    },
    {
      "constant": false,
      "inputs": [
        {
          "name": "toWatch",
          "type": "address"
        },
        {
          "name": "ttl",
          "type": "uint256"
        }
      ],
      "name": "addContract",
      "outputs": [],
      "payable": false,
      "stateMutability": "nonpayable",
      "type": "function"
    },
    {
      "constant": false,
      "inputs": [
        {
          "name": "contractAddress",
          "type": "address"
        }
      ],
      "name": "removeContract",
      "outputs": [],
      "payable": false,
      "stateMutability": "nonpayable",
      "type": "function"
    },
    {
      "constant": false,
      "inputs": [
        {
          "name": "_metadataHash",
          "type": "string"
        }
      ],
      "name": "metadataContractAdded",
      "outputs": [],
      "payable": false,
      "stateMutability": "nonpayable",
      "type": "function"
    },
    {
      "constant": false,
      "inputs": [
        {
          "name": "_metadataHash",
          "type": "string"
        }
      ],
      "name": "metadataContractRemoved",
      "outputs": [],
      "payable": false,
      "stateMutability": "nonpayable",
      "type": "function"
    },
    {
      "constant": false,
      "inputs": [
        {
          "name": "member",
          "type": "address"
        },
        {
          "name": "evidence",
          "type": "string"
        }
      ],
      "name": "banMember",
      "outputs": [],
      "payable": false,
      "stateMutability": "nonpayable",
      "type": "function"
    },
    {
      "constant": false,
      "inputs": [
        {
          "name": "threshold",
          "type": "uint256"
        }
      ],
      "name": "updateBanThreshold",
      "outputs": [],
      "payable": false,
      "stateMutability": "nonpayable",
      "type": "function"
    },
    {
      "constant": false,
      "inputs": [
        {
          "name": "limit",
          "type": "uint256"
        }
      ],
      "name": "setTotalPersistLimit",
      "outputs": [],
      "payable": false,
      "stateMutability": "nonpayable",
      "type": "function"
    }
  ],
  "bytecode": "0x606060405234156200001057600080fd5b6101098054806020026020016040519081016040528092919081815260200182805480156200009557602002820191906000526020600020905b8160009054906101000a900473ffffffffffffffffffffffffffffffffffffffff1673ffffffffffffffffffffffffffffffffffffffff16815260200190600101908083116200004a575b50505050506001600060018351016001819055503373ffffffffffffffffffffffffffffffffffffffff166002600161010081101515620000d257fe5b0181905550600161010260003373ffffffffffffffffffffffffffffffffffffffff16815260200190815260200160002081905550600090505b8251811015620001b45782818151811015156200012557fe5b9060200190602002015173ffffffffffffffffffffffffffffffffffffffff16600282600201610100811015156200015957fe5b018190555080600201610102600085848151811015156200017657fe5b9060200190602002015173ffffffffffffffffffffffffffffffffffffffff168152602001908152602001600020819055508060010190506200010c565b81600081905550505050620001df30600062000229640100000000026200104b176401000000009004565b620001ff6001620002f76401000000000262000fe4176401000000009004565b620002236402540be4006200033f6401000000000262001295176401000000009004565b62000661565b6200024833620003be6401000000000262001015176401000000009004565b15156200025457600080fd5b7f059d7576e9633bca7696f2c9a469531f9ac98e62b3160b7fffcd804d18a7fc60338383604051808473ffffffffffffffffffffffffffffffffffffffff1673ffffffffffffffffffffffffffffffffffffffff1681526020018373ffffffffffffffffffffffffffffffffffffffff1673ffffffffffffffffffffffffffffffffffffffff168152602001828152602001935050505060405180910390a15050565b806040518082815260200191505060405180910390206200032c81620003f464010000000002620019dc176401000000009004565b156200033b5781610107819055505b5050565b806040518082815260200191505060405180910390206200037481620003f464010000000002620019dc176401000000009004565b15620003ba5781610108819055507f4b763fe790b8ee35d687c7519e4c28df97f1d0ecbc9812d7bb01ce1909e8ecf0826040518082815260200191505060405180910390a15b5050565b60008061010260008473ffffffffffffffffffffffffffffffffffffffff16815260200190815260200160002054119050919050565b60008060008061010260003373ffffffffffffffffffffffffffffffffffffffff1681526020019081526020016000205492506000831415620004375762000602565b610103600086600019166000191681526020019081526020016000209150600082600001541415620004c15760005482600001819055506000826001018190555061010480548091906001016200048f91906200060a565b8260020181905550846101048360020154815481101515620004ad57fe5b906000526020600020900181600019169055505b8260020a9050600081836001015416141562000601577fe1c52dc63b719ade82e8bea94cc41a0d5d28e4aaf536adb5e9cccc9ff8c1aeda3386604051808373ffffffffffffffffffffffffffffffffffffffff1673ffffffffffffffffffffffffffffffffffffffff16815260200182600019166000191681526020019250505060405180910390a160018260000154111515620005d95761010461010360008760001916600019168152602001908152602001600020600201548154811015156200058957fe5b906000526020600020900160009055610103600086600019166000191681526020019081526020016000206000808201600090556001820160009055600282016000905550506001935062000602565b8160000160008154809291906001900391905055508082600101600082825417925050819055505b5b505050919050565b815481835581811511620006345781836000526020600020918201910162000633919062000639565b5b505050565b6200065e91905b808211156200065a57600081600090555060010162000640565b5090565b90565b611e8380620006716000396000f300606060405260043610610128576000357c0100000000000000000000000000000000000000000000000000000000900463ffffffff16806305c7d5971461012d5780630b1ca49a1461018a5780630fb4ecdf146101c3578063129aec5d14610233578063210fd2711461029057806325fcdad8146102b95780632648853114610306578063300abd6114610382578063312ad4b9146103ab578063746c9171146103d45780638b278a30146103fd578063a230c52414610420578063b5522e8914610471578063b75c7dc6146104b3578063ba51a6df146104da578063c0bb6c27146104fd578063c2cf732614610520578063c353a89e1461057e578063c375c2ef146105d6578063c96f50411461060f578063ca6d56dc14610675578063fa59d199146106ae575b600080fd5b341561013857600080fd5b610188600480803590602001908201803590602001908080601f0160208091040260200160405190810160405280939291908181526020018383808284378201915050505050509190505061070b565b005b341561019557600080fd5b6101c1600480803573ffffffffffffffffffffffffffffffffffffffff169060200190919050506108cb565b005b34156101ce57600080fd5b610219600480803573ffffffffffffffffffffffffffffffffffffffff1690602001909190803573ffffffffffffffffffffffffffffffffffffffff16906020019091905050610a3c565b604051808215151515815260200191505060405180910390f35b341561023e57600080fd5b61028e600480803590602001908201803590602001908080601f01602080910402602001604051908101604052809392919081815260200183838082843782019150505050505091905050610a6c565b005b341561029b57600080fd5b6102a3610c23565b6040518082815260200191505060405180910390f35b34156102c457600080fd5b6102f0600480803573ffffffffffffffffffffffffffffffffffffffff16906020019091905050610c2a565b6040518082815260200191505060405180910390f35b341561031157600080fd5b610380600480803573ffffffffffffffffffffffffffffffffffffffff1690602001909190803590602001908201803590602001908080601f01602080910402602001604051908101604052809392919081815260200183838082843782019150505050505091905050610c43565b005b341561038d57600080fd5b610395610fd1565b6040518082815260200191505060405180910390f35b34156103b657600080fd5b6103be610fd7565b6040518082815260200191505060405180910390f35b34156103df57600080fd5b6103e7610fde565b6040518082815260200191505060405180910390f35b341561040857600080fd5b61041e6004808035906020019091905050610fe4565b005b341561042b57600080fd5b610457600480803573ffffffffffffffffffffffffffffffffffffffff16906020019091905050611015565b604051808215151515815260200191505060405180910390f35b341561047c57600080fd5b6104b1600480803573ffffffffffffffffffffffffffffffffffffffff1690602001909190803590602001909190505061104b565b005b34156104be57600080fd5b6104d8600480803560001916906020019091905050611102565b005b34156104e557600080fd5b6104fb6004808035906020019091905050611216565b005b341561050857600080fd5b61051e6004808035906020019091905050611295565b005b341561052b57600080fd5b61056460048080356000191690602001909190803573ffffffffffffffffffffffffffffffffffffffff169060200190919050506112fd565b604051808215151515815260200191505060405180910390f35b341561058957600080fd5b6105d4600480803573ffffffffffffffffffffffffffffffffffffffff1690602001909190803573ffffffffffffffffffffffffffffffffffffffff1690602001909190505061137d565b005b34156105e157600080fd5b61060d600480803573ffffffffffffffffffffffffffffffffffffffff169060200190919050506115a1565b005b341561061a57600080fd5b610673600480803590602001908201803590602001908080601f0160208091040260200160405190810160405280939291908181526020018383808284378201915050505050509190803590602001909190505061168a565b005b341561068057600080fd5b6106ac600480803573ffffffffffffffffffffffffffffffffffffffff1690602001909190505061177a565b005b34156106b957600080fd5b610709600480803590602001908201803590602001908080601f016020809104026020016040519081016040528093929190818152602001838380828437820191505050505050919050506118f5565b005b61071433611015565b151561071f57600080fd5b7f860caf696acfb28a58ef6f4a46b7fc197a29e60739a95d692ac1522e9ea1192533826000604051808473ffffffffffffffffffffffffffffffffffffffff1673ffffffffffffffffffffffffffffffffffffffff16815260200180602001838152602001828103825284818151815260200191508051906020019080838360005b838110156107bc5780820151818401526020810190506107a1565b50505050905090810190601f1680156107e95780820380516001836020036101000a031916815260200191505b5094505050505060405180910390a17fca48d34931d5bde17142b334b693a3d8ce0c5410b09508515f796c4edeece2333382604051808373ffffffffffffffffffffffffffffffffffffffff1673ffffffffffffffffffffffffffffffffffffffff16815260200180602001828103825283818151815260200191508051906020019080838360005b8381101561088d578082015181840152602081019050610872565b50505050905090810190601f1680156108ba5780820380516001836020036101000a031916815260200191505b50935050505060405180910390a150565b600081604051808273ffffffffffffffffffffffffffffffffffffffff1673ffffffffffffffffffffffffffffffffffffffff166c010000000000000000000000000281526014019150506040518091039020610927816119dc565b15610a375761010260008473ffffffffffffffffffffffffffffffffffffffff168152602001908152602001600020549150600082141561096757610a36565b6001805403600054111561097a57610a36565b60006002836101008110151561098c57fe5b0181905550600061010260008573ffffffffffffffffffffffffffffffffffffffff168152602001908152602001600020819055506109c9611be8565b6109d1611c9e565b507f6e76fb4c77256006d9c38ec7d82b45a8c8f3c27b1d6766fffc42dfb8de68449283604051808273ffffffffffffffffffffffffffffffffffffffff1673ffffffffffffffffffffffffffffffffffffffff16815260200191505060405180910390a15b5b505050565b6101056020528160005260406000206020528060005260406000206000915091509054906101000a900460ff1681565b610a7533611015565b1515610a8057600080fd5b7f1c5a900544651f923f018310e949445eb80e82a5159edcedbd2b2deec2bbb4ee3382604051808373ffffffffffffffffffffffffffffffffffffffff1673ffffffffffffffffffffffffffffffffffffffff16815260200180602001828103825283818151815260200191508051906020019080838360005b83811015610b15578082015181840152602081019050610afa565b50505050905090810190601f168015610b425780820380516001836020036101000a031916815260200191505b50935050505060405180910390a17f7cb485ea0b94006836e7843f732bd430e6bdacfb671c89e0c45e90b50bdeebab3382604051808373ffffffffffffffffffffffffffffffffffffffff1673ffffffffffffffffffffffffffffffffffffffff16815260200180602001828103825283818151815260200191508051906020019080838360005b83811015610be5578082015181840152602081019050610bca565b50505050905090810190601f168015610c125780820380516001836020036101000a031916815260200191505b50935050505060405180910390a150565b6101085481565b6101066020528060005260406000206000915090505481565b610c4c33611015565b1515610c5757600080fd5b610c6082611015565b1515610c6b57600080fd5b61010560003373ffffffffffffffffffffffffffffffffffffffff1673ffffffffffffffffffffffffffffffffffffffff16815260200190815260200160002060008373ffffffffffffffffffffffffffffffffffffffff1673ffffffffffffffffffffffffffffffffffffffff16815260200190815260200160002060009054906101000a900460ff16151515610d0257600080fd5b600161010560003373ffffffffffffffffffffffffffffffffffffffff1673ffffffffffffffffffffffffffffffffffffffff16815260200190815260200160002060008473ffffffffffffffffffffffffffffffffffffffff1673ffffffffffffffffffffffffffffffffffffffff16815260200190815260200160002060006101000a81548160ff021916908315150217905550600161010660008473ffffffffffffffffffffffffffffffffffffffff1673ffffffffffffffffffffffffffffffffffffffff168152602001908152602001600020600082825401925050819055506101075461010660008473ffffffffffffffffffffffffffffffffffffffff1673ffffffffffffffffffffffffffffffffffffffff16815260200190815260200160002054101515610eed57610e3c826108cb565b610e4582611015565b1515610ee8577fe9c2fbd5c4da96336898a171638c7891027728531326a4e0e590759b33755628816040518080602001828103825283818151815260200191508051906020019080838360005b83811015610ead578082015181840152602081019050610e92565b50505050905090810190601f168015610eda5780820380516001836020036101000a031916815260200191505b509250505060405180910390a15b610fcd565b7fd2cf7704cfac41908cef775ac7e8e4359647bf2058f4b85278e308ae34c7c191338361010660008673ffffffffffffffffffffffffffffffffffffffff1673ffffffffffffffffffffffffffffffffffffffff16815260200190815260200160002054604051808473ffffffffffffffffffffffffffffffffffffffff1673ffffffffffffffffffffffffffffffffffffffff1681526020018373ffffffffffffffffffffffffffffffffffffffff1673ffffffffffffffffffffffffffffffffffffffff168152602001828152602001935050505060405180910390a15b5050565b60015481565b6101075481565b60005481565b80604051808281526020019150506040518091039020611003816119dc565b156110115781610107819055505b5050565b60008061010260008473ffffffffffffffffffffffffffffffffffffffff16815260200190815260200160002054119050919050565b61105433611015565b151561105f57600080fd5b7f059d7576e9633bca7696f2c9a469531f9ac98e62b3160b7fffcd804d18a7fc60338383604051808473ffffffffffffffffffffffffffffffffffffffff1673ffffffffffffffffffffffffffffffffffffffff1681526020018373ffffffffffffffffffffffffffffffffffffffff1673ffffffffffffffffffffffffffffffffffffffff168152602001828152602001935050505060405180910390a15050565b600080600061010260003373ffffffffffffffffffffffffffffffffffffffff168152602001908152602001600020549250600083141561114257611210565b8260020a9150610103600085600019166000191681526020019081526020016000209050600082826001015416111561120f5780600001600081548092919060010191905055508181600101600082825403925050819055507fc7fb647e59b18047309aa15aad418e5d7ca96d173ad704f1031a2c3d7591734b3385604051808373ffffffffffffffffffffffffffffffffffffffff1673ffffffffffffffffffffffffffffffffffffffff16815260200182600019166000191681526020019250505060405180910390a15b5b50505050565b80604051808281526020019150506040518091039020611235816119dc565b156112915760015482111561124957611290565b81600081905550611258611be8565b7facbdb084c721332ac59f9b8e392196c9eb0e4932862da8eb9beaf0dad4f550da826040518082815260200191505060405180910390a15b5b5050565b806040518082815260200191505060405180910390206112b4816119dc565b156112f95781610108819055507f4b763fe790b8ee35d687c7519e4c28df97f1d0ecbc9812d7bb01ce1909e8ecf0826040518082815260200191505060405180910390a15b5050565b60008060008061010360008760001916600019168152602001908152602001600020925061010260008673ffffffffffffffffffffffffffffffffffffffff16815260200190815260200160002054915060008214156113605760009350611374565b8160020a9050600081846001015416141593505b50505092915050565b60008282604051808373ffffffffffffffffffffffffffffffffffffffff1673ffffffffffffffffffffffffffffffffffffffff166c010000000000000000000000000281526014018273ffffffffffffffffffffffffffffffffffffffff1673ffffffffffffffffffffffffffffffffffffffff166c0100000000000000000000000002815260140192505050604051809103902061141c816119dc565b1561159b5761142a83611015565b156114345761159a565b61010260008573ffffffffffffffffffffffffffffffffffffffff168152602001908152602001600020549150600082141561146f5761159a565b611477611be8565b8273ffffffffffffffffffffffffffffffffffffffff166002836101008110151561149e57fe5b0181905550600061010260008673ffffffffffffffffffffffffffffffffffffffff168152602001908152602001600020819055508161010260008573ffffffffffffffffffffffffffffffffffffffff168152602001908152602001600020819055507f05d866cd9c6000815d031b7ce30f30f643766eba16be13cff25924dc8ad820928484604051808373ffffffffffffffffffffffffffffffffffffffff1673ffffffffffffffffffffffffffffffffffffffff1681526020018273ffffffffffffffffffffffffffffffffffffffff1673ffffffffffffffffffffffffffffffffffffffff1681526020019250505060405180910390a15b5b50505050565b6115aa33611015565b15156115b557600080fd5b3073ffffffffffffffffffffffffffffffffffffffff168173ffffffffffffffffffffffffffffffffffffffff16141515156115f057600080fd5b7f1de42a421eef953b12e8dffca9f7ba12e7962c982fc649e5e2c32ea0e7e3ca643382604051808373ffffffffffffffffffffffffffffffffffffffff1673ffffffffffffffffffffffffffffffffffffffff1681526020018273ffffffffffffffffffffffffffffffffffffffff1673ffffffffffffffffffffffffffffffffffffffff1681526020019250505060405180910390a150565b61169333611015565b151561169e57600080fd5b7f860caf696acfb28a58ef6f4a46b7fc197a29e60739a95d692ac1522e9ea11925338383604051808473ffffffffffffffffffffffffffffffffffffffff1673ffffffffffffffffffffffffffffffffffffffff16815260200180602001838152602001828103825284818151815260200191508051906020019080838360005b8381101561173a57808201518184015260208101905061171f565b50505050905090810190601f1680156117675780820380516001836020036101000a031916815260200191505b5094505050505060405180910390a15050565b80604051808273ffffffffffffffffffffffffffffffffffffffff1673ffffffffffffffffffffffffffffffffffffffff166c0100000000000000000000000002815260140191505060405180910390206117d4816119dc565b156118f1576117e282611015565b156117ec576118f0565b6117f4611be8565b60fa60015410151561180a57611808611c9e565b505b60fa60015410151561181b576118f0565b6001600081548092919060010191905055508173ffffffffffffffffffffffffffffffffffffffff1660026001546101008110151561185657fe5b018190555060015461010260008473ffffffffffffffffffffffffffffffffffffffff168152602001908152602001600020819055507fb251eb052afc73ffd02ffe85ad79990a8b3fed60d76dbc2fa2fdd7123dffd91482604051808273ffffffffffffffffffffffffffffffffffffffff1673ffffffffffffffffffffffffffffffffffffffff16815260200191505060405180910390a15b5b5050565b6118fe33611015565b151561190957600080fd5b7f1c5a900544651f923f018310e949445eb80e82a5159edcedbd2b2deec2bbb4ee3382604051808373ffffffffffffffffffffffffffffffffffffffff1673ffffffffffffffffffffffffffffffffffffffff16815260200180602001828103825283818151815260200191508051906020019080838360005b8381101561199e578082015181840152602081019050611983565b50505050905090810190601f1680156119cb5780820380516001836020036101000a031916815260200191505b50935050505060405180910390a150565b60008060008061010260003373ffffffffffffffffffffffffffffffffffffffff1681526020019081526020016000205492506000831415611a1d57611be0565b610103600086600019166000191681526020019081526020016000209150600082600001541415611aa3576000548260000181905550600082600101819055506101048054809190600101611a729190611de5565b8260020181905550846101048360020154815481101515611a8f57fe5b906000526020600020900181600019169055505b8260020a90506000818360010154161415611bdf577fe1c52dc63b719ade82e8bea94cc41a0d5d28e4aaf536adb5e9cccc9ff8c1aeda3386604051808373ffffffffffffffffffffffffffffffffffffffff1673ffffffffffffffffffffffffffffffffffffffff16815260200182600019166000191681526020019250505060405180910390a160018260000154111515611bb7576101046101036000876000191660001916815260200190815260200160002060020154815481101515611b6857fe5b9060005260206000209001600090556101036000866000191660001916815260200190815260200160002060008082016000905560018201600090556002820160009055505060019350611be0565b8160000160008154809291906001900391905055508082600101600082825417925050819055505b5b505050919050565b600080610104805490509150600090505b81811015611c8b57600060010261010482815481101515611c1657fe5b90600052602060002090015460001916141515611c8057610103600061010483815481101515611c4257fe5b906000526020600020900154600019166000191681526020019081526020016000206000808201600090556001820160009055600282016000905550505b806001019050611bf9565b6101046000611c9a9190611e11565b5050565b600080600190505b600154811015611de1575b60015481108015611cd45750600060028261010081101515611ccf57fe5b015414155b15611ce6578080600101915050611cb1565b5b60018054118015611d0b57506000600260015461010081101515611d0757fe5b0154145b15611d285760016000815480929190600190039190505550611ce7565b60015481108015611d4d57506000600260015461010081101515611d4857fe5b015414155b8015611d6a5750600060028261010081101515611d6657fe5b0154145b15611ddc57600260015461010081101515611d8157fe5b015460028261010081101515611d9357fe5b018190555080610102600060028461010081101515611dae57fe5b01548152602001908152602001600020819055506000600260015461010081101515611dd657fe5b01819055505b611ca6565b5090565b815481835581811511611e0c57818360005260206000209182019101611e0b9190611e32565b5b505050565b5080546000825590600052602060002090810190611e2f9190611e32565b50565b611e5491905b80821115611e50576000816000905550600101611e38565b5090565b905600a165627a7a72305820894d81ae63ee32db0197dcc30ddf4b57ddce568e3e97bd9f76b1e79f02a89dde0029",
  "source": "pragma solidity ^0.4.11;\n\n\nimport \"./IPFSEvents.sol\";\nimport \"./Multimember.sol\";\n\n\ncontract IPFSProxy is IPFSEvents, Multimember {\n    mapping(address => mapping( address => bool)) public complained;\n    mapping(address => uint) public complaint;\n    uint public banThreshold;\n    uint public sizeLimit;\n    address[] members;\n    \n    /**\n    * @dev Throws if called by any account other than a valid member. \n    */\n    modifier onlyValidMembers {\n        require (isMember(msg.sender));\n        _;\n    }\n\n    event ContractAdded(address member, address pubKey, uint ttl);\n    event ContractRemoved(address member, address pubKey);\n    event MetadataContractAdded(address member, string metadataHash);\n    event MetadataContractRemoved(address member, string metadataHash);\n    event Banned(string consoritumHash);\n    event BanAttempt(address complainer, address member, uint complaints);\n    event PersistLimitChanged(uint limit);\t\n\n    /**\n    * @dev Constructor - adds the owner of the contract to the list of valid members\n    */\n    function IPFSProxy() Multimember (members, 1) public {\n        addContract(this, 0);\n        updateBanThreshold(1);\n        setTotalPersistLimit(10000000000); //10 GB\n    }\n\n    /**\n    * @dev Add hash to persistent storage\n    * @param ipfsHash The ipfs hash to propagate.\n    * @param ttl amount of time is seconds to persist this. \n    */\n    function addHash(string ipfsHash, uint ttl) public onlyValidMembers {\n        HashAdded(msg.sender,ipfsHash,ttl);\n    }\n\n    /**\n    * @dev Remove hash from persistent storage\n    * @param ipfsHash The ipfs hash to propagate.\t\n    */\n    function removeHash(string ipfsHash) public onlyValidMembers {\n        HashRemoved(msg.sender,ipfsHash);\n    }\n\n    /** \n    * Add a contract to watch list. Each node will then \n    * watch it for `HashAdded(msg.sender,ipfsHash,ttlv);` \n    * events and it will cache these events\n    */\n    function addContract(address toWatch, uint ttl) public onlyValidMembers {\n        ContractAdded(msg.sender, toWatch, ttl);\n    }\n\n    /**\n    * @dev Remove contract from watch list\n    */\n    function removeContract(address contractAddress) public onlyValidMembers {\n        require(contractAddress != address(this));\n        ContractRemoved(msg.sender,contractAddress);\n    }\n\n   /** \n    * Add a metadata of a contract to watch list. Each node will then \n    * read the ipfs hash file with the metadata about the contract \n    */\n    function metadataContractAdded(string _metadataHash) public onlyValidMembers {\n        HashAdded(msg.sender,_metadataHash,0);\n        MetadataContractAdded(msg.sender, _metadataHash);\n    }\n\n    /** \n    * removed a metadata of a contract to watch list.\n    */\n    function metadataContractRemoved(string _metadataHash) public onlyValidMembers {\n        HashRemoved(msg.sender,_metadataHash);\n        MetadataContractRemoved(msg.sender, _metadataHash);\n    }\n\n    /**\n    *@dev removes a member who exceeds the cap\n    */\n    function banMember (address member, string evidence) public onlyValidMembers {\n        require(isMember(member));\n        require(!complained[msg.sender][member]);\n        complained[msg.sender][member] = true;\n        complaint[member] += 1;\t\n        if (complaint[member] >= banThreshold) { \n            removeMember(member);\n            if (!isMember(member)) {\n                Banned(evidence);\n            } \n        } else {\n            BanAttempt(msg.sender, member, complaint[member]);\n        }\n    }\n\n    /**\n    * @dev update ban threshold\n    */\n    function updateBanThreshold (uint threshold) public onlymanymembers(keccak256(threshold)) {\n        banThreshold = threshold;\n    }\n\n    /**\n    * @dev set total allowed upload\n    *\n    **/\n    function setTotalPersistLimit (uint limit) public onlymanymembers(keccak256(limit)) {\n        sizeLimit = limit;\n        PersistLimitChanged(limit);\n    }\n}\n",
  "sourcePath": "/Users/edu/IPFSConsortium/IPFSConsortiumContracts/contracts/IPFSProxy.sol",
  "compiler": {
    "name": "solc",
    "version": "0.4.19+commit.c4cbbb05.Emscripten.clang"
  },
  "schemaVersion": "2.0.0",
  "updatedAt": "2018-03-28T21:33:34.305Z"
}