{
  "contractName": "IPFSProxy",
  "abi": [
    {
      "constant": false,
      "inputs": [
        {
          "name": "_member",
          "type": "address"
        }
      ],
      "name": "removeMember",
      "outputs": [],
      "payable": false,
      "stateMutability": "nonpayable",
      "type": "function"
    },
    {
      "constant": true,
      "inputs": [],
      "name": "persistLimit",
      "outputs": [
        {
          "name": "",
          "type": "uint256"
        }
      ],
      "payable": false,
      "stateMutability": "view",
      "type": "function"
    },
    {
      "constant": true,
      "inputs": [],
      "name": "m_numMembers",
      "outputs": [
        {
          "name": "",
          "type": "uint256"
        }
      ],
      "payable": false,
      "stateMutability": "view",
      "type": "function"
    },
    {
      "constant": true,
      "inputs": [],
      "name": "m_required",
      "outputs": [
        {
          "name": "",
          "type": "uint256"
        }
      ],
      "payable": false,
      "stateMutability": "view",
      "type": "function"
    },
    {
      "constant": true,
      "inputs": [
        {
          "name": "_addr",
          "type": "address"
        }
      ],
      "name": "isMember",
      "outputs": [
        {
          "name": "",
          "type": "bool"
        }
      ],
      "payable": false,
      "stateMutability": "view",
      "type": "function"
    },
    {
      "constant": false,
      "inputs": [
        {
          "name": "_operation",
          "type": "bytes32"
        }
      ],
      "name": "revoke",
      "outputs": [],
      "payable": false,
      "stateMutability": "nonpayable",
      "type": "function"
    },
    {
      "constant": false,
      "inputs": [
        {
          "name": "_newRequired",
          "type": "uint256"
        }
      ],
      "name": "changeRequirement",
      "outputs": [],
      "payable": false,
      "stateMutability": "nonpayable",
      "type": "function"
    },
    {
      "constant": true,
      "inputs": [
        {
          "name": "_operation",
          "type": "bytes32"
        },
        {
          "name": "_member",
          "type": "address"
        }
      ],
      "name": "hasConfirmed",
      "outputs": [
        {
          "name": "",
          "type": "bool"
        }
      ],
      "payable": false,
      "stateMutability": "view",
      "type": "function"
    },
    {
      "constant": false,
      "inputs": [
        {
          "name": "_from",
          "type": "address"
        },
        {
          "name": "_to",
          "type": "address"
        }
      ],
      "name": "changeMember",
      "outputs": [],
      "payable": false,
      "stateMutability": "nonpayable",
      "type": "function"
    },
    {
      "constant": false,
      "inputs": [
        {
          "name": "_member",
          "type": "address"
        }
      ],
      "name": "addMember",
      "outputs": [],
      "payable": false,
      "stateMutability": "nonpayable",
      "type": "function"
    },
    {
      "inputs": [
        {
          "name": "_members",
          "type": "address[]"
        },
        {
          "name": "_required",
          "type": "uint256"
        },
        {
          "name": "_persistlimit",
          "type": "uint256"
        }
      ],
      "payable": false,
      "stateMutability": "nonpayable",
      "type": "constructor"
    },
    {
      "anonymous": false,
      "inputs": [
        {
          "indexed": false,
          "name": "limit",
          "type": "uint256"
        }
      ],
      "name": "PersistLimitChanged",
      "type": "event"
    },
    {
      "anonymous": false,
      "inputs": [
        {
          "indexed": false,
          "name": "pubKey",
          "type": "address"
        },
        {
          "indexed": false,
          "name": "startBlock",
          "type": "uint256"
        }
      ],
      "name": "ContractAdded",
      "type": "event"
    },
    {
      "anonymous": false,
      "inputs": [
        {
          "indexed": false,
          "name": "pubKey",
          "type": "address"
        }
      ],
      "name": "ContractRemoved",
      "type": "event"
    },
    {
      "anonymous": false,
      "inputs": [
        {
          "indexed": false,
          "name": "member",
          "type": "address"
        },
        {
          "indexed": false,
          "name": "operation",
          "type": "bytes32"
        }
      ],
      "name": "Confirmation",
      "type": "event"
    },
    {
      "anonymous": false,
      "inputs": [
        {
          "indexed": false,
          "name": "member",
          "type": "address"
        },
        {
          "indexed": false,
          "name": "operation",
          "type": "bytes32"
        }
      ],
      "name": "Revoke",
      "type": "event"
    },
    {
      "anonymous": false,
      "inputs": [
        {
          "indexed": false,
          "name": "oldMember",
          "type": "address"
        },
        {
          "indexed": false,
          "name": "newMember",
          "type": "address"
        }
      ],
      "name": "MemberChanged",
      "type": "event"
    },
    {
      "anonymous": false,
      "inputs": [
        {
          "indexed": false,
          "name": "newMember",
          "type": "address"
        }
      ],
      "name": "MemberAdded",
      "type": "event"
    },
    {
      "anonymous": false,
      "inputs": [
        {
          "indexed": false,
          "name": "oldMember",
          "type": "address"
        }
      ],
      "name": "MemberRemoved",
      "type": "event"
    },
    {
      "anonymous": false,
      "inputs": [
        {
          "indexed": false,
          "name": "newRequirement",
          "type": "uint256"
        }
      ],
      "name": "RequirementChanged",
      "type": "event"
    },
    {
      "anonymous": false,
      "inputs": [
        {
          "indexed": false,
          "name": "hash",
          "type": "string"
        },
        {
          "indexed": false,
          "name": "ttl",
          "type": "uint256"
        }
      ],
      "name": "HashAdded",
      "type": "event"
    },
    {
      "anonymous": false,
      "inputs": [
        {
          "indexed": false,
          "name": "hash",
          "type": "string"
        }
      ],
      "name": "HashRemoved",
      "type": "event"
    },
    {
      "anonymous": false,
      "inputs": [
        {
          "indexed": false,
          "name": "hash",
          "type": "string"
        }
      ],
      "name": "MetadataObjectAdded",
      "type": "event"
    },
    {
      "anonymous": false,
      "inputs": [
        {
          "indexed": false,
          "name": "hash",
          "type": "string"
        }
      ],
      "name": "MetadataObjectRemoved",
      "type": "event"
    },
    {
      "constant": false,
      "inputs": [
        {
          "name": "_ipfsHash",
          "type": "string"
        },
        {
          "name": "_ttl",
          "type": "uint256"
        }
      ],
      "name": "addHash",
      "outputs": [],
      "payable": false,
      "stateMutability": "nonpayable",
      "type": "function"
    },
    {
      "constant": false,
      "inputs": [
        {
          "name": "_ipfsHash",
          "type": "string"
        }
      ],
      "name": "removeHash",
      "outputs": [],
      "payable": false,
      "stateMutability": "nonpayable",
      "type": "function"
    },
    {
      "constant": false,
      "inputs": [
        {
          "name": "_contractAddress",
          "type": "address"
        },
        {
          "name": "_startBlock",
          "type": "uint256"
        }
      ],
      "name": "addContract",
      "outputs": [],
      "payable": false,
      "stateMutability": "nonpayable",
      "type": "function"
    },
    {
      "constant": false,
      "inputs": [
        {
          "name": "_contractAddress",
          "type": "address"
        }
      ],
      "name": "removeContract",
      "outputs": [],
      "payable": false,
      "stateMutability": "nonpayable",
      "type": "function"
    },
    {
      "constant": false,
      "inputs": [
        {
          "name": "_metadataHash",
          "type": "string"
        }
      ],
      "name": "addMetadataObject",
      "outputs": [],
      "payable": false,
      "stateMutability": "nonpayable",
      "type": "function"
    },
    {
      "constant": false,
      "inputs": [
        {
          "name": "_metadataHash",
          "type": "string"
        }
      ],
      "name": "removeMetadataObject",
      "outputs": [],
      "payable": false,
      "stateMutability": "nonpayable",
      "type": "function"
    },
    {
      "constant": false,
      "inputs": [
        {
          "name": "_limit",
          "type": "uint256"
        }
      ],
      "name": "setTotalPersistLimit",
      "outputs": [],
      "payable": false,
      "stateMutability": "nonpayable",
      "type": "function"
    }
  ],
  "bytecode": "0x606060405234156200001057600080fd5b60405162001d0938038062001d098339810160405280805182019190602001805190602001909190805190602001909190505060008383600060018351016001819055503373ffffffffffffffffffffffffffffffffffffffff1660026001610100811015156200007d57fe5b0181905550600161010260003373ffffffffffffffffffffffffffffffffffffffff16815260200190815260200160002081905550600090505b82518110156200015f578281815181101515620000d057fe5b9060200190602002015173ffffffffffffffffffffffffffffffffffffffff16600282600201610100811015156200010457fe5b018190555080600201610102600085848151811015156200012157fe5b9060200190602002015173ffffffffffffffffffffffffffffffffffffffff16815260200190815260200160002081905550806001019050620000b7565b816000819055505050506200018882620002486401000000000262000bb7176401000000009004565b600090505b83518110156200021e577fb251eb052afc73ffd02ffe85ad79990a8b3fed60d76dbc2fa2fdd7123dffd9148482815181101515620001c757fe5b90602001906020020151604051808273ffffffffffffffffffffffffffffffffffffffff1673ffffffffffffffffffffffffffffffffffffffff16815260200191505060405180910390a18060010190506200018d565b6200023e3043620002c764010000000002620009a6176401000000009004565b50505050620005ff565b806040518082815260200191505060405180910390206200027d816200035c6401000000000262001253176401000000009004565b15620002c35781610105819055507f4b763fe790b8ee35d687c7519e4c28df97f1d0ecbc9812d7bb01ce1909e8ecf0826040518082815260200191505060405180910390a15b5050565b620002e63362000572640100000000026200081d176401000000009004565b1562000358577ff5258aee5f005d2bd983df8c969cd8db92fce883ceeab8c8a3f1e2f71aecb7ac8282604051808373ffffffffffffffffffffffffffffffffffffffff1673ffffffffffffffffffffffffffffffffffffffff1681526020018281526020019250505060405180910390a15b5050565b60008060008061010260003373ffffffffffffffffffffffffffffffffffffffff16815260200190815260200160002054925060008314156200039f576200056a565b61010360008660001916600019168152602001908152602001600020915060008260000154141562000429576000548260000181905550600082600101819055506101048054809190600101620003f79190620005a8565b82600201819055508461010483600201548154811015156200041557fe5b906000526020600020900181600019169055505b8260020a9050600081836001015416141562000569577fe1c52dc63b719ade82e8bea94cc41a0d5d28e4aaf536adb5e9cccc9ff8c1aeda3386604051808373ffffffffffffffffffffffffffffffffffffffff1673ffffffffffffffffffffffffffffffffffffffff16815260200182600019166000191681526020019250505060405180910390a16001826000015411151562000541576101046101036000876000191660001916815260200190815260200160002060020154815481101515620004f157fe5b90600052602060002090016000905561010360008660001916600019168152602001908152602001600020600080820160009055600182016000905560028201600090555050600193506200056a565b8160000160008154809291906001900391905055508082600101600082825417925050819055505b5b505050919050565b60008061010260008473ffffffffffffffffffffffffffffffffffffffff16815260200190815260200160002054119050919050565b815481835581811511620005d257818360005260206000209182019101620005d19190620005d7565b5b505050565b620005fc91905b80821115620005f8576000816000905550600101620005de565b5090565b90565b6116fa806200060f6000396000f3006060604052600436106100f1576000357c0100000000000000000000000000000000000000000000000000000000900463ffffffff1680630b1ca49a146100f65780631fe51f821461012f578063300abd61146101585780635536844214610181578063746c9171146101de578063a230c52414610207578063af47752814610258578063b5522e89146102b5578063b75c7dc6146102f7578063ba51a6df1461031e578063c0bb6c2714610341578063c2cf732614610364578063c353a89e146103c2578063c375c2ef1461041a578063c96f504114610453578063ca6d56dc146104b9578063fa59d199146104f2575b600080fd5b341561010157600080fd5b61012d600480803573ffffffffffffffffffffffffffffffffffffffff1690602001909190505061054f565b005b341561013a57600080fd5b6101426106c0565b6040518082815260200191505060405180910390f35b341561016357600080fd5b61016b6106c7565b6040518082815260200191505060405180910390f35b341561018c57600080fd5b6101dc600480803590602001908201803590602001908080601f016020809104026020016040519081016040528093929190818152602001838380828437820191505050505050919050506106cd565b005b34156101e957600080fd5b6101f1610817565b6040518082815260200191505060405180910390f35b341561021257600080fd5b61023e600480803573ffffffffffffffffffffffffffffffffffffffff1690602001909190505061081d565b604051808215151515815260200191505060405180910390f35b341561026357600080fd5b6102b3600480803590602001908201803590602001908080601f01602080910402602001604051908101604052809392919081815260200183838082843782019150505050505091905050610853565b005b34156102c057600080fd5b6102f5600480803573ffffffffffffffffffffffffffffffffffffffff169060200190919080359060200190919050506109a6565b005b341561030257600080fd5b61031c600480803560001916906020019091905050610a24565b005b341561032957600080fd5b61033f6004808035906020019091905050610b38565b005b341561034c57600080fd5b6103626004808035906020019091905050610bb7565b005b341561036f57600080fd5b6103a860048080356000191690602001909190803573ffffffffffffffffffffffffffffffffffffffff16906020019091905050610c1f565b604051808215151515815260200191505060405180910390f35b34156103cd57600080fd5b610418600480803573ffffffffffffffffffffffffffffffffffffffff1690602001909190803573ffffffffffffffffffffffffffffffffffffffff16906020019091905050610c9f565b005b341561042557600080fd5b610451600480803573ffffffffffffffffffffffffffffffffffffffff16906020019091905050610ec3565b005b341561045e57600080fd5b6104b7600480803590602001908201803590602001908080601f01602080910402602001604051908101604052809392919081815260200183838082843782019150505050505091908035906020019091905050610f73565b005b34156104c457600080fd5b6104f0600480803573ffffffffffffffffffffffffffffffffffffffff1690602001909190505061102a565b005b34156104fd57600080fd5b61054d600480803590602001908201803590602001908080601f016020809104026020016040519081016040528093929190818152602001838380828437820191505050505050919050506111a5565b005b600081604051808273ffffffffffffffffffffffffffffffffffffffff1673ffffffffffffffffffffffffffffffffffffffff166c0100000000000000000000000002815260140191505060405180910390206105ab81611253565b156106bb5761010260008473ffffffffffffffffffffffffffffffffffffffff16815260200190815260200160002054915060008214156105eb576106ba565b600180540360005411156105fe576106ba565b60006002836101008110151561061057fe5b0181905550600061010260008573ffffffffffffffffffffffffffffffffffffffff1681526020019081526020016000208190555061064d61145f565b610655611515565b507f6e76fb4c77256006d9c38ec7d82b45a8c8f3c27b1d6766fffc42dfb8de68449283604051808273ffffffffffffffffffffffffffffffffffffffff1673ffffffffffffffffffffffffffffffffffffffff16815260200191505060405180910390a15b5b505050565b6101055481565b60015481565b6106d63361081d565b15610814577f692b13c4ae14384c86067c051aab033690eee637544b39272a7ce03d397911e3816040518080602001828103825283818151815260200191508051906020019080838360005b8381101561073d578082015181840152602081019050610722565b50505050905090810190601f16801561076a5780820380516001836020036101000a031916815260200191505b509250505060405180910390a17ff3865eef141cd6675da8f4daf1a58923ca5873d9ade45d87b55d048d34c8bf1a816040518080602001828103825283818151815260200191508051906020019080838360005b838110156107d95780820151818401526020810190506107be565b50505050905090810190601f1680156108065780820380516001836020036101000a031916815260200191505b509250505060405180910390a15b50565b60005481565b60008061010260008473ffffffffffffffffffffffffffffffffffffffff16815260200190815260200160002054119050919050565b61085c3361081d565b156109a3577f5408fd7f5e5816164e1c98cc4d631233737963ce260f8ac2c5d85b895bfbc9ff8160006040518080602001838152602001828103825284818151815260200191508051906020019080838360005b838110156108cb5780820151818401526020810190506108b0565b50505050905090810190601f1680156108f85780820380516001836020036101000a031916815260200191505b50935050505060405180910390a17f6080dac389662cd5c2c1b74876cff3c343500a99e9f0bcd2488346545c732c2b816040518080602001828103825283818151815260200191508051906020019080838360005b8381101561096857808201518184015260208101905061094d565b50505050905090810190601f1680156109955780820380516001836020036101000a031916815260200191505b509250505060405180910390a15b50565b6109af3361081d565b15610a20577ff5258aee5f005d2bd983df8c969cd8db92fce883ceeab8c8a3f1e2f71aecb7ac8282604051808373ffffffffffffffffffffffffffffffffffffffff1673ffffffffffffffffffffffffffffffffffffffff1681526020018281526020019250505060405180910390a15b5050565b600080600061010260003373ffffffffffffffffffffffffffffffffffffffff1681526020019081526020016000205492506000831415610a6457610b32565b8260020a91506101036000856000191660001916815260200190815260200160002090506000828260010154161115610b315780600001600081548092919060010191905055508181600101600082825403925050819055507fc7fb647e59b18047309aa15aad418e5d7ca96d173ad704f1031a2c3d7591734b3385604051808373ffffffffffffffffffffffffffffffffffffffff1673ffffffffffffffffffffffffffffffffffffffff16815260200182600019166000191681526020019250505060405180910390a15b5b50505050565b80604051808281526020019150506040518091039020610b5781611253565b15610bb357600154821115610b6b57610bb2565b81600081905550610b7a61145f565b7facbdb084c721332ac59f9b8e392196c9eb0e4932862da8eb9beaf0dad4f550da826040518082815260200191505060405180910390a15b5b5050565b80604051808281526020019150506040518091039020610bd681611253565b15610c1b5781610105819055507f4b763fe790b8ee35d687c7519e4c28df97f1d0ecbc9812d7bb01ce1909e8ecf0826040518082815260200191505060405180910390a15b5050565b60008060008061010360008760001916600019168152602001908152602001600020925061010260008673ffffffffffffffffffffffffffffffffffffffff1681526020019081526020016000205491506000821415610c825760009350610c96565b8160020a9050600081846001015416141593505b50505092915050565b60008282604051808373ffffffffffffffffffffffffffffffffffffffff1673ffffffffffffffffffffffffffffffffffffffff166c010000000000000000000000000281526014018273ffffffffffffffffffffffffffffffffffffffff1673ffffffffffffffffffffffffffffffffffffffff166c01000000000000000000000000028152601401925050506040518091039020610d3e81611253565b15610ebd57610d4c8361081d565b15610d5657610ebc565b61010260008573ffffffffffffffffffffffffffffffffffffffff1681526020019081526020016000205491506000821415610d9157610ebc565b610d9961145f565b8273ffffffffffffffffffffffffffffffffffffffff1660028361010081101515610dc057fe5b0181905550600061010260008673ffffffffffffffffffffffffffffffffffffffff168152602001908152602001600020819055508161010260008573ffffffffffffffffffffffffffffffffffffffff168152602001908152602001600020819055507f05d866cd9c6000815d031b7ce30f30f643766eba16be13cff25924dc8ad820928484604051808373ffffffffffffffffffffffffffffffffffffffff1673ffffffffffffffffffffffffffffffffffffffff1681526020018273ffffffffffffffffffffffffffffffffffffffff1673ffffffffffffffffffffffffffffffffffffffff1681526020019250505060405180910390a15b5b50505050565b610ecc3361081d565b15610f70573073ffffffffffffffffffffffffffffffffffffffff168173ffffffffffffffffffffffffffffffffffffffff1614151515610f0c57600080fd5b7f8d30d41865a0b811b9545d879520d2dde9f4cc49e4241f486ad9752bc904b56581604051808273ffffffffffffffffffffffffffffffffffffffff1673ffffffffffffffffffffffffffffffffffffffff16815260200191505060405180910390a15b50565b610f7c3361081d565b15611026577f5408fd7f5e5816164e1c98cc4d631233737963ce260f8ac2c5d85b895bfbc9ff82826040518080602001838152602001828103825284818151815260200191508051906020019080838360005b83811015610fea578082015181840152602081019050610fcf565b50505050905090810190601f1680156110175780820380516001836020036101000a031916815260200191505b50935050505060405180910390a15b5050565b80604051808273ffffffffffffffffffffffffffffffffffffffff1673ffffffffffffffffffffffffffffffffffffffff166c01000000000000000000000000028152601401915050604051809103902061108481611253565b156111a1576110928261081d565b1561109c576111a0565b6110a461145f565b60fa6001541015156110ba576110b8611515565b505b60fa6001541015156110cb576111a0565b6001600081548092919060010191905055508173ffffffffffffffffffffffffffffffffffffffff1660026001546101008110151561110657fe5b018190555060015461010260008473ffffffffffffffffffffffffffffffffffffffff168152602001908152602001600020819055507fb251eb052afc73ffd02ffe85ad79990a8b3fed60d76dbc2fa2fdd7123dffd91482604051808273ffffffffffffffffffffffffffffffffffffffff1673ffffffffffffffffffffffffffffffffffffffff16815260200191505060405180910390a15b5b5050565b6111ae3361081d565b15611250577f692b13c4ae14384c86067c051aab033690eee637544b39272a7ce03d397911e3816040518080602001828103825283818151815260200191508051906020019080838360005b838110156112155780820151818401526020810190506111fa565b50505050905090810190601f1680156112425780820380516001836020036101000a031916815260200191505b509250505060405180910390a15b50565b60008060008061010260003373ffffffffffffffffffffffffffffffffffffffff168152602001908152602001600020549250600083141561129457611457565b61010360008660001916600019168152602001908152602001600020915060008260000154141561131a5760005482600001819055506000826001018190555061010480548091906001016112e9919061165c565b826002018190555084610104836002015481548110151561130657fe5b906000526020600020900181600019169055505b8260020a90506000818360010154161415611456577fe1c52dc63b719ade82e8bea94cc41a0d5d28e4aaf536adb5e9cccc9ff8c1aeda3386604051808373ffffffffffffffffffffffffffffffffffffffff1673ffffffffffffffffffffffffffffffffffffffff16815260200182600019166000191681526020019250505060405180910390a16001826000015411151561142e5761010461010360008760001916600019168152602001908152602001600020600201548154811015156113df57fe5b9060005260206000209001600090556101036000866000191660001916815260200190815260200160002060008082016000905560018201600090556002820160009055505060019350611457565b8160000160008154809291906001900391905055508082600101600082825417925050819055505b5b505050919050565b600080610104805490509150600090505b818110156115025760006001026101048281548110151561148d57fe5b906000526020600020900154600019161415156114f7576101036000610104838154811015156114b957fe5b906000526020600020900154600019166000191681526020019081526020016000206000808201600090556001820160009055600282016000905550505b806001019050611470565b61010460006115119190611688565b5050565b600080600190505b600154811015611658575b6001548110801561154b575060006002826101008110151561154657fe5b015414155b1561155d578080600101915050611528565b5b600180541180156115825750600060026001546101008110151561157e57fe5b0154145b1561159f576001600081548092919060019003919050555061155e565b600154811080156115c4575060006002600154610100811015156115bf57fe5b015414155b80156115e157506000600282610100811015156115dd57fe5b0154145b15611653576002600154610100811015156115f857fe5b01546002826101008110151561160a57fe5b01819055508061010260006002846101008110151561162557fe5b0154815260200190815260200160002081905550600060026001546101008110151561164d57fe5b01819055505b61151d565b5090565b8154818355818115116116835781836000526020600020918201910161168291906116a9565b5b505050565b50805460008255906000526020600020908101906116a691906116a9565b50565b6116cb91905b808211156116c75760008160009055506001016116af565b5090565b905600a165627a7a72305820e395e2f84ae823c4aa3f1318452dd5611470bd5f55557350fbada37e7e4d6c9c0029",
  "source": "pragma solidity ^0.4.19;\n\nimport \"./IPFSEvents.sol\";\nimport \"./Multimember.sol\";\n\ncontract IPFSProxy is IPFSEvents, Multimember {\n    uint public persistLimit;\n\n    event PersistLimitChanged(uint limit);\t\n    event ContractAdded(address pubKey,uint startBlock);\n    event ContractRemoved(address pubKey);\n\n    /**\n    * @dev Constructor - adds the owner of the contract to the list of valid members\n    */\n    function IPFSProxy(address[] _members,uint _required, uint _persistlimit) Multimember (_members, _required) public {\n        setTotalPersistLimit(_persistlimit);\n        for (uint i = 0; i < _members.length; ++i) {\n            MemberAdded(_members[i]);\n        }\n        addContract(this,block.number);\n    }\n\n    /**\n    * @dev Add hash to persistent storage\n    * @param _ipfsHash The ipfs hash to propagate.\n    * @param _ttl amount of time is seconds to persist this. 0 = infinite\n    */\n    function addHash(string _ipfsHash, uint _ttl) public onlymember {\n        HashAdded(_ipfsHash,_ttl);\n    }\n\n    /**\n    * @dev Remove hash from persistent storage\n    * @param _ipfsHash The ipfs hash to propagate.\t\n    */\n    function removeHash(string _ipfsHash) public onlymember {\n        HashRemoved(_ipfsHash);\n    }\n\n   /** \n    * Add a contract to watch list. Each proxy will then \n    * watch it for HashAdded and HashRemoved events \n    * and cache these events\n    * @param _contractAddress The contract address.\n    * @param _startBlock The startblock where to look for events.\n    */\n    function addContract(address _contractAddress,uint _startBlock) public onlymember {\n        ContractAdded(_contractAddress,_startBlock);\n    }\n\n    /**\n    * @dev Remove contract from watch list\n    */\n    function removeContract(address _contractAddress) public onlymember {\n        require(_contractAddress != address(this));\n        ContractRemoved(_contractAddress);\n    }\n\n   /** \n    * Add a metadata of an object. Each proxy will then \n    * read the ipfs hash file with the metadata about the object and parse it \n    */\n    function addMetadataObject(string _metadataHash) public onlymember {\n        HashAdded(_metadataHash,0);\n        MetadataObjectAdded(_metadataHash);\n    }\n\n    /** \n    * removed a metadata of an object.\n    */\n    function removeMetadataObject(string _metadataHash) public onlymember {\n        HashRemoved(_metadataHash);\n        MetadataObjectRemoved(_metadataHash);\n    }\n\n    /**\n    * @dev set total allowed upload\n    *\n    **/\n    function setTotalPersistLimit (uint _limit) public onlymanymembers(keccak256(_limit)) {\n        persistLimit = _limit;\n        PersistLimitChanged(_limit);\n    }\n}\n",
  "sourcePath": "/Users/sponnet/Documents/projects/IPFSConsortiumContracts/contracts/IPFSProxy.sol",
  "compiler": {
    "name": "solc",
    "version": "0.4.19+commit.c4cbbb05.Emscripten.clang"
  },
  "schemaVersion": "2.0.0",
  "updatedAt": "2018-04-12T20:42:46.670Z"
}