{
  "contractName": "IPFSProxy",
  "abi": [
    {
      "constant": false,
      "inputs": [
        {
          "name": "_member",
          "type": "address"
        }
      ],
      "name": "removeMember",
      "outputs": [],
      "payable": false,
      "stateMutability": "nonpayable",
      "type": "function"
    },
    {
      "constant": true,
      "inputs": [
        {
          "name": "",
          "type": "address"
        },
        {
          "name": "",
          "type": "address"
        }
      ],
      "name": "complained",
      "outputs": [
        {
          "name": "",
          "type": "bool"
        }
      ],
      "payable": false,
      "stateMutability": "view",
      "type": "function"
    },
    {
      "constant": true,
      "inputs": [],
      "name": "sizeLimit",
      "outputs": [
        {
          "name": "",
          "type": "uint256"
        }
      ],
      "payable": false,
      "stateMutability": "view",
      "type": "function"
    },
    {
      "constant": true,
      "inputs": [
        {
          "name": "",
          "type": "address"
        }
      ],
      "name": "complaint",
      "outputs": [
        {
          "name": "",
          "type": "uint256"
        }
      ],
      "payable": false,
      "stateMutability": "view",
      "type": "function"
    },
    {
      "constant": true,
      "inputs": [],
      "name": "m_numMembers",
      "outputs": [
        {
          "name": "",
          "type": "uint256"
        }
      ],
      "payable": false,
      "stateMutability": "view",
      "type": "function"
    },
    {
      "constant": true,
      "inputs": [],
      "name": "banThreshold",
      "outputs": [
        {
          "name": "",
          "type": "uint256"
        }
      ],
      "payable": false,
      "stateMutability": "view",
      "type": "function"
    },
    {
      "constant": true,
      "inputs": [],
      "name": "m_required",
      "outputs": [
        {
          "name": "",
          "type": "uint256"
        }
      ],
      "payable": false,
      "stateMutability": "view",
      "type": "function"
    },
    {
      "constant": true,
      "inputs": [
        {
          "name": "_addr",
          "type": "address"
        }
      ],
      "name": "isMember",
      "outputs": [
        {
          "name": "",
          "type": "bool"
        }
      ],
      "payable": false,
      "stateMutability": "view",
      "type": "function"
    },
    {
      "constant": false,
      "inputs": [
        {
          "name": "_operation",
          "type": "bytes32"
        }
      ],
      "name": "revoke",
      "outputs": [],
      "payable": false,
      "stateMutability": "nonpayable",
      "type": "function"
    },
    {
      "constant": false,
      "inputs": [
        {
          "name": "_newRequired",
          "type": "uint256"
        }
      ],
      "name": "changeRequirement",
      "outputs": [],
      "payable": false,
      "stateMutability": "nonpayable",
      "type": "function"
    },
    {
      "constant": true,
      "inputs": [
        {
          "name": "_operation",
          "type": "bytes32"
        },
        {
          "name": "_member",
          "type": "address"
        }
      ],
      "name": "hasConfirmed",
      "outputs": [
        {
          "name": "",
          "type": "bool"
        }
      ],
      "payable": false,
      "stateMutability": "view",
      "type": "function"
    },
    {
      "constant": false,
      "inputs": [
        {
          "name": "_from",
          "type": "address"
        },
        {
          "name": "_to",
          "type": "address"
        }
      ],
      "name": "changeMember",
      "outputs": [],
      "payable": false,
      "stateMutability": "nonpayable",
      "type": "function"
    },
    {
      "constant": false,
      "inputs": [
        {
          "name": "_member",
          "type": "address"
        }
      ],
      "name": "addMember",
      "outputs": [],
      "payable": false,
      "stateMutability": "nonpayable",
      "type": "function"
    },
    {
      "inputs": [],
      "payable": false,
      "stateMutability": "nonpayable",
      "type": "constructor"
    },
    {
      "anonymous": false,
      "inputs": [
        {
          "indexed": false,
          "name": "member",
          "type": "address"
        },
        {
          "indexed": false,
          "name": "pubKey",
          "type": "address"
        },
        {
          "indexed": false,
          "name": "ttl",
          "type": "uint256"
        }
      ],
      "name": "ContractAdded",
      "type": "event"
    },
    {
      "anonymous": false,
      "inputs": [
        {
          "indexed": false,
          "name": "member",
          "type": "address"
        },
        {
          "indexed": false,
          "name": "metadataHash",
          "type": "string"
        }
      ],
      "name": "MetadataContractAdded",
      "type": "event"
    },
    {
      "anonymous": false,
      "inputs": [
        {
          "indexed": false,
          "name": "member",
          "type": "address"
        },
        {
          "indexed": false,
          "name": "pubKey",
          "type": "address"
        }
      ],
      "name": "ContractRemoved",
      "type": "event"
    },
    {
      "anonymous": false,
      "inputs": [
        {
          "indexed": false,
          "name": "consoritumHash",
          "type": "string"
        }
      ],
      "name": "Banned",
      "type": "event"
    },
    {
      "anonymous": false,
      "inputs": [
        {
          "indexed": false,
          "name": "complainer",
          "type": "address"
        },
        {
          "indexed": false,
          "name": "member",
          "type": "address"
        },
        {
          "indexed": false,
          "name": "complaints",
          "type": "uint256"
        }
      ],
      "name": "BanAttempt",
      "type": "event"
    },
    {
      "anonymous": false,
      "inputs": [
        {
          "indexed": false,
          "name": "limit",
          "type": "uint256"
        }
      ],
      "name": "PersistLimitChanged",
      "type": "event"
    },
    {
      "anonymous": false,
      "inputs": [
        {
          "indexed": false,
          "name": "member",
          "type": "address"
        },
        {
          "indexed": false,
          "name": "operation",
          "type": "bytes32"
        }
      ],
      "name": "Confirmation",
      "type": "event"
    },
    {
      "anonymous": false,
      "inputs": [
        {
          "indexed": false,
          "name": "member",
          "type": "address"
        },
        {
          "indexed": false,
          "name": "operation",
          "type": "bytes32"
        }
      ],
      "name": "Revoke",
      "type": "event"
    },
    {
      "anonymous": false,
      "inputs": [
        {
          "indexed": false,
          "name": "oldMember",
          "type": "address"
        },
        {
          "indexed": false,
          "name": "newMember",
          "type": "address"
        }
      ],
      "name": "MemberChanged",
      "type": "event"
    },
    {
      "anonymous": false,
      "inputs": [
        {
          "indexed": false,
          "name": "newMember",
          "type": "address"
        }
      ],
      "name": "MemberAdded",
      "type": "event"
    },
    {
      "anonymous": false,
      "inputs": [
        {
          "indexed": false,
          "name": "oldMember",
          "type": "address"
        }
      ],
      "name": "MemberRemoved",
      "type": "event"
    },
    {
      "anonymous": false,
      "inputs": [
        {
          "indexed": false,
          "name": "newRequirement",
          "type": "uint256"
        }
      ],
      "name": "RequirementChanged",
      "type": "event"
    },
    {
      "anonymous": false,
      "inputs": [
        {
          "indexed": false,
          "name": "pubKey",
          "type": "address"
        },
        {
          "indexed": false,
          "name": "hashAdded",
          "type": "string"
        },
        {
          "indexed": false,
          "name": "ttl",
          "type": "uint256"
        }
      ],
      "name": "HashAdded",
      "type": "event"
    },
    {
      "anonymous": false,
      "inputs": [
        {
          "indexed": false,
          "name": "pubKey",
          "type": "address"
        },
        {
          "indexed": false,
          "name": "hashRemoved",
          "type": "string"
        }
      ],
      "name": "HashRemoved",
      "type": "event"
    },
    {
      "constant": false,
      "inputs": [
        {
          "name": "ipfsHash",
          "type": "string"
        },
        {
          "name": "ttl",
          "type": "uint256"
        }
      ],
      "name": "addHash",
      "outputs": [],
      "payable": false,
      "stateMutability": "nonpayable",
      "type": "function"
    },
    {
      "constant": false,
      "inputs": [
        {
          "name": "ipfsHash",
          "type": "string"
        }
      ],
      "name": "removeHash",
      "outputs": [],
      "payable": false,
      "stateMutability": "nonpayable",
      "type": "function"
    },
    {
      "constant": false,
      "inputs": [
        {
          "name": "toWatch",
          "type": "address"
        },
        {
          "name": "ttl",
          "type": "uint256"
        }
      ],
      "name": "addContract",
      "outputs": [],
      "payable": false,
      "stateMutability": "nonpayable",
      "type": "function"
    },
    {
      "constant": false,
      "inputs": [
        {
          "name": "_metadataHash",
          "type": "string"
        }
      ],
      "name": "metadataContractAdded",
      "outputs": [],
      "payable": false,
      "stateMutability": "nonpayable",
      "type": "function"
    },
    {
      "constant": false,
      "inputs": [
        {
          "name": "contractAddress",
          "type": "address"
        }
      ],
      "name": "removeContract",
      "outputs": [],
      "payable": false,
      "stateMutability": "nonpayable",
      "type": "function"
    },
    {
      "constant": false,
      "inputs": [
        {
          "name": "member",
          "type": "address"
        },
        {
          "name": "evidence",
          "type": "string"
        }
      ],
      "name": "banMember",
      "outputs": [],
      "payable": false,
      "stateMutability": "nonpayable",
      "type": "function"
    },
    {
      "constant": false,
      "inputs": [
        {
          "name": "threshold",
          "type": "uint256"
        }
      ],
      "name": "updateBanThreshold",
      "outputs": [],
      "payable": false,
      "stateMutability": "nonpayable",
      "type": "function"
    },
    {
      "constant": false,
      "inputs": [
        {
          "name": "limit",
          "type": "uint256"
        }
      ],
      "name": "setTotalPersistLimit",
      "outputs": [],
      "payable": false,
      "stateMutability": "nonpayable",
      "type": "function"
    }
  ],
  "bytecode": "0x606060405234156200001057600080fd5b6101098054806020026020016040519081016040528092919081815260200182805480156200009557602002820191906000526020600020905b8160009054906101000a900473ffffffffffffffffffffffffffffffffffffffff1673ffffffffffffffffffffffffffffffffffffffff16815260200190600101908083116200004a575b50505050506001600060018351016001819055503373ffffffffffffffffffffffffffffffffffffffff166002600161010081101515620000d257fe5b0181905550600161010260003373ffffffffffffffffffffffffffffffffffffffff16815260200190815260200160002081905550600090505b8251811015620001b45782818151811015156200012557fe5b9060200190602002015173ffffffffffffffffffffffffffffffffffffffff16600282600201610100811015156200015957fe5b018190555080600201610102600085848151811015156200017657fe5b9060200190602002015173ffffffffffffffffffffffffffffffffffffffff168152602001908152602001600020819055508060010190506200010c565b81600081905550505050620001df306000620002296401000000000262000d53176401000000009004565b620001ff6001620002f76401000000000262000cec176401000000009004565b620002236402540be4006200033f6401000000000262000f9d176401000000009004565b62000661565b6200024833620003be6401000000000262000d1d176401000000009004565b15156200025457600080fd5b7f059d7576e9633bca7696f2c9a469531f9ac98e62b3160b7fffcd804d18a7fc60338383604051808473ffffffffffffffffffffffffffffffffffffffff1673ffffffffffffffffffffffffffffffffffffffff1681526020018373ffffffffffffffffffffffffffffffffffffffff1673ffffffffffffffffffffffffffffffffffffffff168152602001828152602001935050505060405180910390a15050565b806040518082815260200191505060405180910390206200032c81620003f464010000000002620016a9176401000000009004565b156200033b5781610107819055505b5050565b806040518082815260200191505060405180910390206200037481620003f464010000000002620016a9176401000000009004565b15620003ba5781610108819055507f4b763fe790b8ee35d687c7519e4c28df97f1d0ecbc9812d7bb01ce1909e8ecf0826040518082815260200191505060405180910390a15b5050565b60008061010260008473ffffffffffffffffffffffffffffffffffffffff16815260200190815260200160002054119050919050565b60008060008061010260003373ffffffffffffffffffffffffffffffffffffffff1681526020019081526020016000205492506000831415620004375762000602565b610103600086600019166000191681526020019081526020016000209150600082600001541415620004c15760005482600001819055506000826001018190555061010480548091906001016200048f91906200060a565b8260020181905550846101048360020154815481101515620004ad57fe5b906000526020600020900181600019169055505b8260020a9050600081836001015416141562000601577fe1c52dc63b719ade82e8bea94cc41a0d5d28e4aaf536adb5e9cccc9ff8c1aeda3386604051808373ffffffffffffffffffffffffffffffffffffffff1673ffffffffffffffffffffffffffffffffffffffff16815260200182600019166000191681526020019250505060405180910390a160018260000154111515620005d95761010461010360008760001916600019168152602001908152602001600020600201548154811015156200058957fe5b906000526020600020900160009055610103600086600019166000191681526020019081526020016000206000808201600090556001820160009055600282016000905550506001935062000602565b8160000160008154809291906001900391905055508082600101600082825417925050819055505b5b505050919050565b815481835581811511620006345781836000526020600020918201910162000633919062000639565b5b505050565b6200065e91905b808211156200065a57600081600090555060010162000640565b5090565b90565b611b5080620006716000396000f30060606040526004361061011d576000357c0100000000000000000000000000000000000000000000000000000000900463ffffffff16806305c7d597146101225780630b1ca49a1461017f5780630fb4ecdf146101b8578063210fd2711461022857806325fcdad814610251578063264885311461029e578063300abd611461031a578063312ad4b914610343578063746c91711461036c5780638b278a3014610395578063a230c524146103b8578063b5522e8914610409578063b75c7dc61461044b578063ba51a6df14610472578063c0bb6c2714610495578063c2cf7326146104b8578063c353a89e14610516578063c375c2ef1461056e578063c96f5041146105a7578063ca6d56dc1461060d578063fa59d19914610646575b600080fd5b341561012d57600080fd5b61017d600480803590602001908201803590602001908080601f016020809104026020016040519081016040528093929190818152602001838380828437820191505050505050919050506106a3565b005b341561018a57600080fd5b6101b6600480803573ffffffffffffffffffffffffffffffffffffffff1690602001909190505061078a565b005b34156101c357600080fd5b61020e600480803573ffffffffffffffffffffffffffffffffffffffff1690602001909190803573ffffffffffffffffffffffffffffffffffffffff169060200190919050506108fb565b604051808215151515815260200191505060405180910390f35b341561023357600080fd5b61023b61092b565b6040518082815260200191505060405180910390f35b341561025c57600080fd5b610288600480803573ffffffffffffffffffffffffffffffffffffffff16906020019091905050610932565b6040518082815260200191505060405180910390f35b34156102a957600080fd5b610318600480803573ffffffffffffffffffffffffffffffffffffffff1690602001909190803590602001908201803590602001908080601f0160208091040260200160405190810160405280939291908181526020018383808284378201915050505050509190505061094b565b005b341561032557600080fd5b61032d610cd9565b6040518082815260200191505060405180910390f35b341561034e57600080fd5b610356610cdf565b6040518082815260200191505060405180910390f35b341561037757600080fd5b61037f610ce6565b6040518082815260200191505060405180910390f35b34156103a057600080fd5b6103b66004808035906020019091905050610cec565b005b34156103c357600080fd5b6103ef600480803573ffffffffffffffffffffffffffffffffffffffff16906020019091905050610d1d565b604051808215151515815260200191505060405180910390f35b341561041457600080fd5b610449600480803573ffffffffffffffffffffffffffffffffffffffff16906020019091908035906020019091905050610d53565b005b341561045657600080fd5b610470600480803560001916906020019091905050610e0a565b005b341561047d57600080fd5b6104936004808035906020019091905050610f1e565b005b34156104a057600080fd5b6104b66004808035906020019091905050610f9d565b005b34156104c357600080fd5b6104fc60048080356000191690602001909190803573ffffffffffffffffffffffffffffffffffffffff16906020019091905050611005565b604051808215151515815260200191505060405180910390f35b341561052157600080fd5b61056c600480803573ffffffffffffffffffffffffffffffffffffffff1690602001909190803573ffffffffffffffffffffffffffffffffffffffff16906020019091905050611085565b005b341561057957600080fd5b6105a5600480803573ffffffffffffffffffffffffffffffffffffffff169060200190919050506112a9565b005b34156105b257600080fd5b61060b600480803590602001908201803590602001908080601f01602080910402602001604051908101604052809392919081815260200183838082843782019150505050505091908035906020019091905050611357565b005b341561061857600080fd5b610644600480803573ffffffffffffffffffffffffffffffffffffffff16906020019091905050611447565b005b341561065157600080fd5b6106a1600480803590602001908201803590602001908080601f016020809104026020016040519081016040528093929190818152602001838380828437820191505050505050919050506115c2565b005b6106ac33610d1d565b15156106b757600080fd5b7fca48d34931d5bde17142b334b693a3d8ce0c5410b09508515f796c4edeece2333382604051808373ffffffffffffffffffffffffffffffffffffffff1673ffffffffffffffffffffffffffffffffffffffff16815260200180602001828103825283818151815260200191508051906020019080838360005b8381101561074c578082015181840152602081019050610731565b50505050905090810190601f1680156107795780820380516001836020036101000a031916815260200191505b50935050505060405180910390a150565b600081604051808273ffffffffffffffffffffffffffffffffffffffff1673ffffffffffffffffffffffffffffffffffffffff166c0100000000000000000000000002815260140191505060405180910390206107e6816116a9565b156108f65761010260008473ffffffffffffffffffffffffffffffffffffffff1681526020019081526020016000205491506000821415610826576108f5565b60018054036000541115610839576108f5565b60006002836101008110151561084b57fe5b0181905550600061010260008573ffffffffffffffffffffffffffffffffffffffff168152602001908152602001600020819055506108886118b5565b61089061196b565b507f6e76fb4c77256006d9c38ec7d82b45a8c8f3c27b1d6766fffc42dfb8de68449283604051808273ffffffffffffffffffffffffffffffffffffffff1673ffffffffffffffffffffffffffffffffffffffff16815260200191505060405180910390a15b5b505050565b6101056020528160005260406000206020528060005260406000206000915091509054906101000a900460ff1681565b6101085481565b6101066020528060005260406000206000915090505481565b61095433610d1d565b151561095f57600080fd5b61096882610d1d565b151561097357600080fd5b61010560003373ffffffffffffffffffffffffffffffffffffffff1673ffffffffffffffffffffffffffffffffffffffff16815260200190815260200160002060008373ffffffffffffffffffffffffffffffffffffffff1673ffffffffffffffffffffffffffffffffffffffff16815260200190815260200160002060009054906101000a900460ff16151515610a0a57600080fd5b600161010560003373ffffffffffffffffffffffffffffffffffffffff1673ffffffffffffffffffffffffffffffffffffffff16815260200190815260200160002060008473ffffffffffffffffffffffffffffffffffffffff1673ffffffffffffffffffffffffffffffffffffffff16815260200190815260200160002060006101000a81548160ff021916908315150217905550600161010660008473ffffffffffffffffffffffffffffffffffffffff1673ffffffffffffffffffffffffffffffffffffffff168152602001908152602001600020600082825401925050819055506101075461010660008473ffffffffffffffffffffffffffffffffffffffff1673ffffffffffffffffffffffffffffffffffffffff16815260200190815260200160002054101515610bf557610b448261078a565b610b4d82610d1d565b1515610bf0577fe9c2fbd5c4da96336898a171638c7891027728531326a4e0e590759b33755628816040518080602001828103825283818151815260200191508051906020019080838360005b83811015610bb5578082015181840152602081019050610b9a565b50505050905090810190601f168015610be25780820380516001836020036101000a031916815260200191505b509250505060405180910390a15b610cd5565b7fd2cf7704cfac41908cef775ac7e8e4359647bf2058f4b85278e308ae34c7c191338361010660008673ffffffffffffffffffffffffffffffffffffffff1673ffffffffffffffffffffffffffffffffffffffff16815260200190815260200160002054604051808473ffffffffffffffffffffffffffffffffffffffff1673ffffffffffffffffffffffffffffffffffffffff1681526020018373ffffffffffffffffffffffffffffffffffffffff1673ffffffffffffffffffffffffffffffffffffffff168152602001828152602001935050505060405180910390a15b5050565b60015481565b6101075481565b60005481565b80604051808281526020019150506040518091039020610d0b816116a9565b15610d195781610107819055505b5050565b60008061010260008473ffffffffffffffffffffffffffffffffffffffff16815260200190815260200160002054119050919050565b610d5c33610d1d565b1515610d6757600080fd5b7f059d7576e9633bca7696f2c9a469531f9ac98e62b3160b7fffcd804d18a7fc60338383604051808473ffffffffffffffffffffffffffffffffffffffff1673ffffffffffffffffffffffffffffffffffffffff1681526020018373ffffffffffffffffffffffffffffffffffffffff1673ffffffffffffffffffffffffffffffffffffffff168152602001828152602001935050505060405180910390a15050565b600080600061010260003373ffffffffffffffffffffffffffffffffffffffff1681526020019081526020016000205492506000831415610e4a57610f18565b8260020a91506101036000856000191660001916815260200190815260200160002090506000828260010154161115610f175780600001600081548092919060010191905055508181600101600082825403925050819055507fc7fb647e59b18047309aa15aad418e5d7ca96d173ad704f1031a2c3d7591734b3385604051808373ffffffffffffffffffffffffffffffffffffffff1673ffffffffffffffffffffffffffffffffffffffff16815260200182600019166000191681526020019250505060405180910390a15b5b50505050565b80604051808281526020019150506040518091039020610f3d816116a9565b15610f9957600154821115610f5157610f98565b81600081905550610f606118b5565b7facbdb084c721332ac59f9b8e392196c9eb0e4932862da8eb9beaf0dad4f550da826040518082815260200191505060405180910390a15b5b5050565b80604051808281526020019150506040518091039020610fbc816116a9565b156110015781610108819055507f4b763fe790b8ee35d687c7519e4c28df97f1d0ecbc9812d7bb01ce1909e8ecf0826040518082815260200191505060405180910390a15b5050565b60008060008061010360008760001916600019168152602001908152602001600020925061010260008673ffffffffffffffffffffffffffffffffffffffff1681526020019081526020016000205491506000821415611068576000935061107c565b8160020a9050600081846001015416141593505b50505092915050565b60008282604051808373ffffffffffffffffffffffffffffffffffffffff1673ffffffffffffffffffffffffffffffffffffffff166c010000000000000000000000000281526014018273ffffffffffffffffffffffffffffffffffffffff1673ffffffffffffffffffffffffffffffffffffffff166c01000000000000000000000000028152601401925050506040518091039020611124816116a9565b156112a35761113283610d1d565b1561113c576112a2565b61010260008573ffffffffffffffffffffffffffffffffffffffff1681526020019081526020016000205491506000821415611177576112a2565b61117f6118b5565b8273ffffffffffffffffffffffffffffffffffffffff16600283610100811015156111a657fe5b0181905550600061010260008673ffffffffffffffffffffffffffffffffffffffff168152602001908152602001600020819055508161010260008573ffffffffffffffffffffffffffffffffffffffff168152602001908152602001600020819055507f05d866cd9c6000815d031b7ce30f30f643766eba16be13cff25924dc8ad820928484604051808373ffffffffffffffffffffffffffffffffffffffff1673ffffffffffffffffffffffffffffffffffffffff1681526020018273ffffffffffffffffffffffffffffffffffffffff1673ffffffffffffffffffffffffffffffffffffffff1681526020019250505060405180910390a15b5b50505050565b6112b233610d1d565b15156112bd57600080fd5b7f1de42a421eef953b12e8dffca9f7ba12e7962c982fc649e5e2c32ea0e7e3ca643382604051808373ffffffffffffffffffffffffffffffffffffffff1673ffffffffffffffffffffffffffffffffffffffff1681526020018273ffffffffffffffffffffffffffffffffffffffff1673ffffffffffffffffffffffffffffffffffffffff1681526020019250505060405180910390a150565b61136033610d1d565b151561136b57600080fd5b7f860caf696acfb28a58ef6f4a46b7fc197a29e60739a95d692ac1522e9ea11925338383604051808473ffffffffffffffffffffffffffffffffffffffff1673ffffffffffffffffffffffffffffffffffffffff16815260200180602001838152602001828103825284818151815260200191508051906020019080838360005b838110156114075780820151818401526020810190506113ec565b50505050905090810190601f1680156114345780820380516001836020036101000a031916815260200191505b5094505050505060405180910390a15050565b80604051808273ffffffffffffffffffffffffffffffffffffffff1673ffffffffffffffffffffffffffffffffffffffff166c0100000000000000000000000002815260140191505060405180910390206114a1816116a9565b156115be576114af82610d1d565b156114b9576115bd565b6114c16118b5565b60fa6001541015156114d7576114d561196b565b505b60fa6001541015156114e8576115bd565b6001600081548092919060010191905055508173ffffffffffffffffffffffffffffffffffffffff1660026001546101008110151561152357fe5b018190555060015461010260008473ffffffffffffffffffffffffffffffffffffffff168152602001908152602001600020819055507fb251eb052afc73ffd02ffe85ad79990a8b3fed60d76dbc2fa2fdd7123dffd91482604051808273ffffffffffffffffffffffffffffffffffffffff1673ffffffffffffffffffffffffffffffffffffffff16815260200191505060405180910390a15b5b5050565b6115cb33610d1d565b15156115d657600080fd5b7f1c5a900544651f923f018310e949445eb80e82a5159edcedbd2b2deec2bbb4ee3382604051808373ffffffffffffffffffffffffffffffffffffffff1673ffffffffffffffffffffffffffffffffffffffff16815260200180602001828103825283818151815260200191508051906020019080838360005b8381101561166b578082015181840152602081019050611650565b50505050905090810190601f1680156116985780820380516001836020036101000a031916815260200191505b50935050505060405180910390a150565b60008060008061010260003373ffffffffffffffffffffffffffffffffffffffff16815260200190815260200160002054925060008314156116ea576118ad565b61010360008660001916600019168152602001908152602001600020915060008260000154141561177057600054826000018190555060008260010181905550610104805480919060010161173f9190611ab2565b826002018190555084610104836002015481548110151561175c57fe5b906000526020600020900181600019169055505b8260020a905060008183600101541614156118ac577fe1c52dc63b719ade82e8bea94cc41a0d5d28e4aaf536adb5e9cccc9ff8c1aeda3386604051808373ffffffffffffffffffffffffffffffffffffffff1673ffffffffffffffffffffffffffffffffffffffff16815260200182600019166000191681526020019250505060405180910390a16001826000015411151561188457610104610103600087600019166000191681526020019081526020016000206002015481548110151561183557fe5b90600052602060002090016000905561010360008660001916600019168152602001908152602001600020600080820160009055600182016000905560028201600090555050600193506118ad565b8160000160008154809291906001900391905055508082600101600082825417925050819055505b5b505050919050565b600080610104805490509150600090505b81811015611958576000600102610104828154811015156118e357fe5b9060005260206000209001546000191614151561194d5761010360006101048381548110151561190f57fe5b906000526020600020900154600019166000191681526020019081526020016000206000808201600090556001820160009055600282016000905550505b8060010190506118c6565b61010460006119679190611ade565b5050565b600080600190505b600154811015611aae575b600154811080156119a1575060006002826101008110151561199c57fe5b015414155b156119b357808060010191505061197e565b5b600180541180156119d8575060006002600154610100811015156119d457fe5b0154145b156119f557600160008154809291906001900391905055506119b4565b60015481108015611a1a57506000600260015461010081101515611a1557fe5b015414155b8015611a375750600060028261010081101515611a3357fe5b0154145b15611aa957600260015461010081101515611a4e57fe5b015460028261010081101515611a6057fe5b018190555080610102600060028461010081101515611a7b57fe5b01548152602001908152602001600020819055506000600260015461010081101515611aa357fe5b01819055505b611973565b5090565b815481835581811511611ad957818360005260206000209182019101611ad89190611aff565b5b505050565b5080546000825590600052602060002090810190611afc9190611aff565b50565b611b2191905b80821115611b1d576000816000905550600101611b05565b5090565b905600a165627a7a72305820a1fe08321fcf6b06db8817ed51cdc9e39cab59ab524d75a71bc5bcc893a061570029",
  "source": "pragma solidity ^0.4.11;\n\n\nimport \"./IPFSEvents.sol\";\nimport \"./Multimember.sol\";\n\n\ncontract IPFSProxy is IPFSEvents, Multimember {\n    mapping(address => mapping( address => bool)) public complained;\n    mapping(address => uint) public complaint;\n    uint public banThreshold;\n    uint public sizeLimit;\n    address[] members;\n    \n    /**\n    * @dev Throws if called by any account other than a valid member. \n    */\n    modifier onlyValidMembers {\n        require (isMember(msg.sender));\n        _;\n    }\n\n    event ContractAdded(address member, address pubKey, uint ttl);\n    event MetadataContractAdded(address member, string metadataHash);\n    event ContractRemoved(address member, address pubKey);\n    event Banned(string consoritumHash);\n    event BanAttempt(address complainer, address member, uint complaints);\n    event PersistLimitChanged(uint limit);\t\n\n    /**\n    * @dev Constructor - adds the owner of the contract to the list of valid members\n    */\n    function IPFSProxy() Multimember (members, 1) public {\n        addContract(this, 0);\n        updateBanThreshold(1);\n        setTotalPersistLimit(10000000000); //10 GB\n    }\n\n    /**\n    * @dev Add hash to persistent storage\n    * @param ipfsHash The ipfs hash to propagate.\n    * @param ttl amount of time is seconds to persist this. \n    */\n    function addHash(string ipfsHash, uint ttl) public onlyValidMembers {\n        HashAdded(msg.sender,ipfsHash,ttl);\n    }\n\n    /**\n    * @dev Remove hash from persistent storage\n    * @param ipfsHash The ipfs hash to propagate.\t\n    */\n    function removeHash(string ipfsHash) public onlyValidMembers {\n        HashRemoved(msg.sender,ipfsHash);\n    }\n\n    /** \n    * Add a contract to watch list. Each node will then \n    * watch it for `HashAdded(msg.sender,ipfsHash,ttlv);` \n    * events and it will cache these events\n    */\n    function addContract(address toWatch, uint ttl) public onlyValidMembers {\n        ContractAdded(msg.sender, toWatch, ttl);\n    }\n\n    /** \n    * Add a metadata of a contract to watch list. Each node will then \n    * read the ipfs hash file with the metadata about the contract \n    */\n    function metadataContractAdded(string _metadataHash) public onlyValidMembers {\n        MetadataContractAdded(msg.sender, _metadataHash);\n    }\n\n    /**\n    * @dev Remove contract from watch list\n    */\n    function removeContract(address contractAddress) public onlyValidMembers {\n        ContractRemoved(msg.sender,contractAddress);\n    }\n\n    /**\n    *@dev removes a member who exceeds the cap\n    */\n    function banMember (address member, string evidence) public onlyValidMembers {\n        require(isMember(member));\n        require(!complained[msg.sender][member]);\n        complained[msg.sender][member] = true;\n        complaint[member] += 1;\t\n        if (complaint[member] >= banThreshold) { \n            removeMember(member);\n            if (!isMember(member)) {\n                Banned(evidence);\n            } \n        } else {\n            BanAttempt(msg.sender, member, complaint[member]);\n        }\n    }\n\n    /**\n    * @dev update ban threshold\n    */\n    function updateBanThreshold (uint threshold) public onlymanymembers(keccak256(threshold)) {\n        banThreshold = threshold;\n    }\n\n    /**\n    * @dev set total allowed upload\n    *\n    **/\n    function setTotalPersistLimit (uint limit) public onlymanymembers(keccak256(limit)) {\n        sizeLimit = limit;\n        PersistLimitChanged(limit);\n    }\n}\n",
  "sourcePath": "/Users/sponnet/Documents/projects/IPFSConsortiumContracts/contracts/IPFSProxy.sol",
  "compiler": {
    "name": "solc",
    "version": "0.4.19+commit.c4cbbb05.Emscripten.clang"
  },
  "schemaVersion": "2.0.0",
  "updatedAt": "2018-03-19T08:51:10.917Z"
}