{
  "contractName": "IPFSProxy",
  "abi": [
    {
      "constant": false,
      "inputs": [
        {
          "name": "_member",
          "type": "address"
        }
      ],
      "name": "removeMember",
      "outputs": [],
      "payable": false,
      "stateMutability": "nonpayable",
      "type": "function"
    },
    {
      "constant": true,
      "inputs": [],
      "name": "persistLimit",
      "outputs": [
        {
          "name": "",
          "type": "uint256"
        }
      ],
      "payable": false,
      "stateMutability": "view",
      "type": "function"
    },
    {
      "constant": true,
      "inputs": [],
      "name": "m_numMembers",
      "outputs": [
        {
          "name": "",
          "type": "uint256"
        }
      ],
      "payable": false,
      "stateMutability": "view",
      "type": "function"
    },
    {
      "constant": true,
      "inputs": [],
      "name": "m_required",
      "outputs": [
        {
          "name": "",
          "type": "uint256"
        }
      ],
      "payable": false,
      "stateMutability": "view",
      "type": "function"
    },
    {
      "constant": true,
      "inputs": [
        {
          "name": "_addr",
          "type": "address"
        }
      ],
      "name": "isMember",
      "outputs": [
        {
          "name": "",
          "type": "bool"
        }
      ],
      "payable": false,
      "stateMutability": "view",
      "type": "function"
    },
    {
      "constant": false,
      "inputs": [
        {
          "name": "_operation",
          "type": "bytes32"
        }
      ],
      "name": "revoke",
      "outputs": [],
      "payable": false,
      "stateMutability": "nonpayable",
      "type": "function"
    },
    {
      "constant": false,
      "inputs": [
        {
          "name": "_newRequired",
          "type": "uint256"
        }
      ],
      "name": "changeRequirement",
      "outputs": [],
      "payable": false,
      "stateMutability": "nonpayable",
      "type": "function"
    },
    {
      "constant": true,
      "inputs": [
        {
          "name": "_operation",
          "type": "bytes32"
        },
        {
          "name": "_member",
          "type": "address"
        }
      ],
      "name": "hasConfirmed",
      "outputs": [
        {
          "name": "",
          "type": "bool"
        }
      ],
      "payable": false,
      "stateMutability": "view",
      "type": "function"
    },
    {
      "constant": false,
      "inputs": [
        {
          "name": "_from",
          "type": "address"
        },
        {
          "name": "_to",
          "type": "address"
        }
      ],
      "name": "changeMember",
      "outputs": [],
      "payable": false,
      "stateMutability": "nonpayable",
      "type": "function"
    },
    {
      "constant": false,
      "inputs": [
        {
          "name": "_member",
          "type": "address"
        }
      ],
      "name": "addMember",
      "outputs": [],
      "payable": false,
      "stateMutability": "nonpayable",
      "type": "function"
    },
    {
      "inputs": [
        {
          "name": "_members",
          "type": "address[]"
        },
        {
          "name": "_required",
          "type": "uint256"
        },
        {
          "name": "_persistlimit",
          "type": "uint256"
        }
      ],
      "payable": false,
      "stateMutability": "nonpayable",
      "type": "constructor"
    },
    {
      "anonymous": false,
      "inputs": [
        {
          "indexed": false,
          "name": "limit",
          "type": "uint256"
        }
      ],
      "name": "PersistLimitChanged",
      "type": "event"
    },
    {
      "anonymous": false,
      "inputs": [
        {
          "indexed": false,
          "name": "member",
          "type": "address"
        },
        {
          "indexed": false,
          "name": "operation",
          "type": "bytes32"
        }
      ],
      "name": "Confirmation",
      "type": "event"
    },
    {
      "anonymous": false,
      "inputs": [
        {
          "indexed": false,
          "name": "member",
          "type": "address"
        },
        {
          "indexed": false,
          "name": "operation",
          "type": "bytes32"
        }
      ],
      "name": "Revoke",
      "type": "event"
    },
    {
      "anonymous": false,
      "inputs": [
        {
          "indexed": false,
          "name": "oldMember",
          "type": "address"
        },
        {
          "indexed": false,
          "name": "newMember",
          "type": "address"
        }
      ],
      "name": "MemberChanged",
      "type": "event"
    },
    {
      "anonymous": false,
      "inputs": [
        {
          "indexed": false,
          "name": "newMember",
          "type": "address"
        }
      ],
      "name": "MemberAdded",
      "type": "event"
    },
    {
      "anonymous": false,
      "inputs": [
        {
          "indexed": false,
          "name": "oldMember",
          "type": "address"
        }
      ],
      "name": "MemberRemoved",
      "type": "event"
    },
    {
      "anonymous": false,
      "inputs": [
        {
          "indexed": false,
          "name": "newRequirement",
          "type": "uint256"
        }
      ],
      "name": "RequirementChanged",
      "type": "event"
    },
    {
      "anonymous": false,
      "inputs": [
        {
          "indexed": false,
          "name": "hash",
          "type": "string"
        },
        {
          "indexed": false,
          "name": "ttl",
          "type": "uint256"
        }
      ],
      "name": "HashAdded",
      "type": "event"
    },
    {
      "anonymous": false,
      "inputs": [
        {
          "indexed": false,
          "name": "hash",
          "type": "string"
        }
      ],
      "name": "HashRemoved",
      "type": "event"
    },
    {
      "anonymous": false,
      "inputs": [
        {
          "indexed": false,
          "name": "hash",
          "type": "string"
        }
      ],
      "name": "MetadataObjectAdded",
      "type": "event"
    },
    {
      "anonymous": false,
      "inputs": [
        {
          "indexed": false,
          "name": "hash",
          "type": "string"
        }
      ],
      "name": "MetadataObjectRemoved",
      "type": "event"
    },
    {
      "constant": false,
      "inputs": [
        {
          "name": "_ipfsHash",
          "type": "string"
        },
        {
          "name": "_ttl",
          "type": "uint256"
        }
      ],
      "name": "addHash",
      "outputs": [],
      "payable": false,
      "stateMutability": "nonpayable",
      "type": "function"
    },
    {
      "constant": false,
      "inputs": [
        {
          "name": "_ipfsHash",
          "type": "string"
        }
      ],
      "name": "removeHash",
      "outputs": [],
      "payable": false,
      "stateMutability": "nonpayable",
      "type": "function"
    },
    {
      "constant": false,
      "inputs": [
        {
          "name": "_metadataHash",
          "type": "string"
        }
      ],
      "name": "addMetadataObject",
      "outputs": [],
      "payable": false,
      "stateMutability": "nonpayable",
      "type": "function"
    },
    {
      "constant": false,
      "inputs": [
        {
          "name": "_metadataHash",
          "type": "string"
        }
      ],
      "name": "removeMetadataObject",
      "outputs": [],
      "payable": false,
      "stateMutability": "nonpayable",
      "type": "function"
    },
    {
      "constant": false,
      "inputs": [
        {
          "name": "_limit",
          "type": "uint256"
        }
      ],
      "name": "setTotalPersistLimit",
      "outputs": [],
      "payable": false,
      "stateMutability": "nonpayable",
      "type": "function"
    }
  ],
  "bytecode": "0x606060405234156200001057600080fd5b604051620019c6380380620019c6833981016040528080518201919060200180519060200190919080519060200190919050508282600060018351016001819055503373ffffffffffffffffffffffffffffffffffffffff1660026001610100811015156200007b57fe5b0181905550600161010260003373ffffffffffffffffffffffffffffffffffffffff16815260200190815260200160002081905550600090505b82518110156200015d578281815181101515620000ce57fe5b9060200190602002015173ffffffffffffffffffffffffffffffffffffffff16600282600201610100811015156200010257fe5b018190555080600201610102600085848151811015156200011f57fe5b9060200190602002015173ffffffffffffffffffffffffffffffffffffffff16815260200190815260200160002081905550806001019050620000b5565b8160008190555050505062000186816200018f6401000000000262000aa8176401000000009004565b5050506200047b565b80604051808281526020019150506040518091039020620001c4816200020e6401000000000262001094176401000000009004565b156200020a5781610105819055507f4b763fe790b8ee35d687c7519e4c28df97f1d0ecbc9812d7bb01ce1909e8ecf0826040518082815260200191505060405180910390a15b5050565b60008060008061010260003373ffffffffffffffffffffffffffffffffffffffff168152602001908152602001600020549250600083141562000251576200041c565b610103600086600019166000191681526020019081526020016000209150600082600001541415620002db576000548260000181905550600082600101819055506101048054809190600101620002a9919062000424565b8260020181905550846101048360020154815481101515620002c757fe5b906000526020600020900181600019169055505b8260020a905060008183600101541614156200041b577fe1c52dc63b719ade82e8bea94cc41a0d5d28e4aaf536adb5e9cccc9ff8c1aeda3386604051808373ffffffffffffffffffffffffffffffffffffffff1673ffffffffffffffffffffffffffffffffffffffff16815260200182600019166000191681526020019250505060405180910390a160018260000154111515620003f3576101046101036000876000191660001916815260200190815260200160002060020154815481101515620003a357fe5b90600052602060002090016000905561010360008660001916600019168152602001908152602001600020600080820160009055600182016000905560028201600090555050600193506200041c565b8160000160008154809291906001900391905055508082600101600082825417925050819055505b5b505050919050565b8154818355818115116200044e578183600052602060002091820191016200044d919062000453565b5b505050565b6200047891905b80821115620004745760008160009055506001016200045a565b5090565b90565b61153b806200048b6000396000f3006060604052600436106100db576000357c0100000000000000000000000000000000000000000000000000000000900463ffffffff1680630b1ca49a146100e05780631fe51f8214610119578063300abd6114610142578063553684421461016b578063746c9171146101c8578063a230c524146101f1578063af47752814610242578063b75c7dc61461029f578063ba51a6df146102c6578063c0bb6c27146102e9578063c2cf73261461030c578063c353a89e1461036a578063c96f5041146103c2578063ca6d56dc14610428578063fa59d19914610461575b600080fd5b34156100eb57600080fd5b610117600480803573ffffffffffffffffffffffffffffffffffffffff169060200190919050506104be565b005b341561012457600080fd5b61012c61062f565b6040518082815260200191505060405180910390f35b341561014d57600080fd5b610155610636565b6040518082815260200191505060405180910390f35b341561017657600080fd5b6101c6600480803590602001908201803590602001908080601f0160208091040260200160405190810160405280939291908181526020018383808284378201915050505050509190505061063c565b005b34156101d357600080fd5b6101db610786565b6040518082815260200191505060405180910390f35b34156101fc57600080fd5b610228600480803573ffffffffffffffffffffffffffffffffffffffff1690602001909190505061078c565b604051808215151515815260200191505060405180910390f35b341561024d57600080fd5b61029d600480803590602001908201803590602001908080601f016020809104026020016040519081016040528093929190818152602001838380828437820191505050505050919050506107c2565b005b34156102aa57600080fd5b6102c4600480803560001916906020019091905050610915565b005b34156102d157600080fd5b6102e76004808035906020019091905050610a29565b005b34156102f457600080fd5b61030a6004808035906020019091905050610aa8565b005b341561031757600080fd5b61035060048080356000191690602001909190803573ffffffffffffffffffffffffffffffffffffffff16906020019091905050610b10565b604051808215151515815260200191505060405180910390f35b341561037557600080fd5b6103c0600480803573ffffffffffffffffffffffffffffffffffffffff1690602001909190803573ffffffffffffffffffffffffffffffffffffffff16906020019091905050610b90565b005b34156103cd57600080fd5b610426600480803590602001908201803590602001908080601f01602080910402602001604051908101604052809392919081815260200183838082843782019150505050505091908035906020019091905050610db4565b005b341561043357600080fd5b61045f600480803573ffffffffffffffffffffffffffffffffffffffff16906020019091905050610e6b565b005b341561046c57600080fd5b6104bc600480803590602001908201803590602001908080601f01602080910402602001604051908101604052809392919081815260200183838082843782019150505050505091905050610fe6565b005b600081604051808273ffffffffffffffffffffffffffffffffffffffff1673ffffffffffffffffffffffffffffffffffffffff166c01000000000000000000000000028152601401915050604051809103902061051a81611094565b1561062a5761010260008473ffffffffffffffffffffffffffffffffffffffff168152602001908152602001600020549150600082141561055a57610629565b6001805403600054111561056d57610629565b60006002836101008110151561057f57fe5b0181905550600061010260008573ffffffffffffffffffffffffffffffffffffffff168152602001908152602001600020819055506105bc6112a0565b6105c4611356565b507f6e76fb4c77256006d9c38ec7d82b45a8c8f3c27b1d6766fffc42dfb8de68449283604051808273ffffffffffffffffffffffffffffffffffffffff1673ffffffffffffffffffffffffffffffffffffffff16815260200191505060405180910390a15b5b505050565b6101055481565b60015481565b6106453361078c565b15610783577f692b13c4ae14384c86067c051aab033690eee637544b39272a7ce03d397911e3816040518080602001828103825283818151815260200191508051906020019080838360005b838110156106ac578082015181840152602081019050610691565b50505050905090810190601f1680156106d95780820380516001836020036101000a031916815260200191505b509250505060405180910390a17ff3865eef141cd6675da8f4daf1a58923ca5873d9ade45d87b55d048d34c8bf1a816040518080602001828103825283818151815260200191508051906020019080838360005b8381101561074857808201518184015260208101905061072d565b50505050905090810190601f1680156107755780820380516001836020036101000a031916815260200191505b509250505060405180910390a15b50565b60005481565b60008061010260008473ffffffffffffffffffffffffffffffffffffffff16815260200190815260200160002054119050919050565b6107cb3361078c565b15610912577f5408fd7f5e5816164e1c98cc4d631233737963ce260f8ac2c5d85b895bfbc9ff8160006040518080602001838152602001828103825284818151815260200191508051906020019080838360005b8381101561083a57808201518184015260208101905061081f565b50505050905090810190601f1680156108675780820380516001836020036101000a031916815260200191505b50935050505060405180910390a17f6080dac389662cd5c2c1b74876cff3c343500a99e9f0bcd2488346545c732c2b816040518080602001828103825283818151815260200191508051906020019080838360005b838110156108d75780820151818401526020810190506108bc565b50505050905090810190601f1680156109045780820380516001836020036101000a031916815260200191505b509250505060405180910390a15b50565b600080600061010260003373ffffffffffffffffffffffffffffffffffffffff168152602001908152602001600020549250600083141561095557610a23565b8260020a91506101036000856000191660001916815260200190815260200160002090506000828260010154161115610a225780600001600081548092919060010191905055508181600101600082825403925050819055507fc7fb647e59b18047309aa15aad418e5d7ca96d173ad704f1031a2c3d7591734b3385604051808373ffffffffffffffffffffffffffffffffffffffff1673ffffffffffffffffffffffffffffffffffffffff16815260200182600019166000191681526020019250505060405180910390a15b5b50505050565b80604051808281526020019150506040518091039020610a4881611094565b15610aa457600154821115610a5c57610aa3565b81600081905550610a6b6112a0565b7facbdb084c721332ac59f9b8e392196c9eb0e4932862da8eb9beaf0dad4f550da826040518082815260200191505060405180910390a15b5b5050565b80604051808281526020019150506040518091039020610ac781611094565b15610b0c5781610105819055507f4b763fe790b8ee35d687c7519e4c28df97f1d0ecbc9812d7bb01ce1909e8ecf0826040518082815260200191505060405180910390a15b5050565b60008060008061010360008760001916600019168152602001908152602001600020925061010260008673ffffffffffffffffffffffffffffffffffffffff1681526020019081526020016000205491506000821415610b735760009350610b87565b8160020a9050600081846001015416141593505b50505092915050565b60008282604051808373ffffffffffffffffffffffffffffffffffffffff1673ffffffffffffffffffffffffffffffffffffffff166c010000000000000000000000000281526014018273ffffffffffffffffffffffffffffffffffffffff1673ffffffffffffffffffffffffffffffffffffffff166c01000000000000000000000000028152601401925050506040518091039020610c2f81611094565b15610dae57610c3d8361078c565b15610c4757610dad565b61010260008573ffffffffffffffffffffffffffffffffffffffff1681526020019081526020016000205491506000821415610c8257610dad565b610c8a6112a0565b8273ffffffffffffffffffffffffffffffffffffffff1660028361010081101515610cb157fe5b0181905550600061010260008673ffffffffffffffffffffffffffffffffffffffff168152602001908152602001600020819055508161010260008573ffffffffffffffffffffffffffffffffffffffff168152602001908152602001600020819055507f05d866cd9c6000815d031b7ce30f30f643766eba16be13cff25924dc8ad820928484604051808373ffffffffffffffffffffffffffffffffffffffff1673ffffffffffffffffffffffffffffffffffffffff1681526020018273ffffffffffffffffffffffffffffffffffffffff1673ffffffffffffffffffffffffffffffffffffffff1681526020019250505060405180910390a15b5b50505050565b610dbd3361078c565b15610e67577f5408fd7f5e5816164e1c98cc4d631233737963ce260f8ac2c5d85b895bfbc9ff82826040518080602001838152602001828103825284818151815260200191508051906020019080838360005b83811015610e2b578082015181840152602081019050610e10565b50505050905090810190601f168015610e585780820380516001836020036101000a031916815260200191505b50935050505060405180910390a15b5050565b80604051808273ffffffffffffffffffffffffffffffffffffffff1673ffffffffffffffffffffffffffffffffffffffff166c010000000000000000000000000281526014019150506040518091039020610ec581611094565b15610fe257610ed38261078c565b15610edd57610fe1565b610ee56112a0565b60fa600154101515610efb57610ef9611356565b505b60fa600154101515610f0c57610fe1565b6001600081548092919060010191905055508173ffffffffffffffffffffffffffffffffffffffff16600260015461010081101515610f4757fe5b018190555060015461010260008473ffffffffffffffffffffffffffffffffffffffff168152602001908152602001600020819055507fb251eb052afc73ffd02ffe85ad79990a8b3fed60d76dbc2fa2fdd7123dffd91482604051808273ffffffffffffffffffffffffffffffffffffffff1673ffffffffffffffffffffffffffffffffffffffff16815260200191505060405180910390a15b5b5050565b610fef3361078c565b15611091577f692b13c4ae14384c86067c051aab033690eee637544b39272a7ce03d397911e3816040518080602001828103825283818151815260200191508051906020019080838360005b8381101561105657808201518184015260208101905061103b565b50505050905090810190601f1680156110835780820380516001836020036101000a031916815260200191505b509250505060405180910390a15b50565b60008060008061010260003373ffffffffffffffffffffffffffffffffffffffff16815260200190815260200160002054925060008314156110d557611298565b61010360008660001916600019168152602001908152602001600020915060008260000154141561115b57600054826000018190555060008260010181905550610104805480919060010161112a919061149d565b826002018190555084610104836002015481548110151561114757fe5b906000526020600020900181600019169055505b8260020a90506000818360010154161415611297577fe1c52dc63b719ade82e8bea94cc41a0d5d28e4aaf536adb5e9cccc9ff8c1aeda3386604051808373ffffffffffffffffffffffffffffffffffffffff1673ffffffffffffffffffffffffffffffffffffffff16815260200182600019166000191681526020019250505060405180910390a16001826000015411151561126f57610104610103600087600019166000191681526020019081526020016000206002015481548110151561122057fe5b9060005260206000209001600090556101036000866000191660001916815260200190815260200160002060008082016000905560018201600090556002820160009055505060019350611298565b8160000160008154809291906001900391905055508082600101600082825417925050819055505b5b505050919050565b600080610104805490509150600090505b81811015611343576000600102610104828154811015156112ce57fe5b90600052602060002090015460001916141515611338576101036000610104838154811015156112fa57fe5b906000526020600020900154600019166000191681526020019081526020016000206000808201600090556001820160009055600282016000905550505b8060010190506112b1565b610104600061135291906114c9565b5050565b600080600190505b600154811015611499575b6001548110801561138c575060006002826101008110151561138757fe5b015414155b1561139e578080600101915050611369565b5b600180541180156113c3575060006002600154610100811015156113bf57fe5b0154145b156113e0576001600081548092919060019003919050555061139f565b600154811080156114055750600060026001546101008110151561140057fe5b015414155b8015611422575060006002826101008110151561141e57fe5b0154145b156114945760026001546101008110151561143957fe5b01546002826101008110151561144b57fe5b01819055508061010260006002846101008110151561146657fe5b0154815260200190815260200160002081905550600060026001546101008110151561148e57fe5b01819055505b61135e565b5090565b8154818355818115116114c4578183600052602060002091820191016114c391906114ea565b5b505050565b50805460008255906000526020600020908101906114e791906114ea565b50565b61150c91905b808211156115085760008160009055506001016114f0565b5090565b905600a165627a7a72305820f8f6f46772c5ac802b4240706c793df21e062da9ae7fd9beb3e111e7f85b49a30029",
  "source": "pragma solidity ^0.4.19;\n\nimport \"./IPFSEvents.sol\";\nimport \"./Multimember.sol\";\n\ncontract IPFSProxy is IPFSEvents, Multimember {\n    uint public persistLimit;\n\n    event PersistLimitChanged(uint limit);\t\n\n    /**\n    * @dev Constructor - adds the owner of the contract to the list of valid members\n    */\n    function IPFSProxy(address[] _members,uint _required, uint _persistlimit) Multimember (_members, _required) public {\n        setTotalPersistLimit(_persistlimit);\n    }\n\n    /**\n    * @dev Add hash to persistent storage\n    * @param _ipfsHash The ipfs hash to propagate.\n    * @param _ttl amount of time is seconds to persist this. 0 = infinite\n    */\n    function addHash(string _ipfsHash, uint _ttl) public onlymember {\n        HashAdded(_ipfsHash,_ttl);\n    }\n\n    /**\n    * @dev Remove hash from persistent storage\n    * @param _ipfsHash The ipfs hash to propagate.\t\n    */\n    function removeHash(string _ipfsHash) public onlymember {\n        HashRemoved(_ipfsHash);\n    }\n\n   /** \n    * Add a metadata of an object. Each node will then \n    * read the ipfs hash file with the metadata about the object and parse it \n    */\n    function addMetadataObject(string _metadataHash) public onlymember {\n        HashAdded(_metadataHash,0);\n        MetadataObjectAdded(_metadataHash);\n    }\n\n    /** \n    * removed a metadata of an object.\n    */\n    function removeMetadataObject(string _metadataHash) public onlymember {\n        HashRemoved(_metadataHash);\n        MetadataObjectRemoved(_metadataHash);\n    }\n\n    /**\n    * @dev set total allowed upload\n    *\n    **/\n    function setTotalPersistLimit (uint _limit) public onlymanymembers(keccak256(_limit)) {\n        persistLimit = _limit;\n        PersistLimitChanged(_limit);\n    }\n}\n",
  "sourcePath": "/Users/sponnet/Documents/projects/IPFSConsortiumContracts/contracts/IPFSProxy.sol",
  "compiler": {
    "name": "solc",
    "version": "0.4.19+commit.c4cbbb05.Emscripten.clang"
  },
  "schemaVersion": "2.0.0",
  "updatedAt": "2018-04-12T09:37:53.736Z"
}