{
  "contractName": "Multimember",
  "abi": [
    {
      "constant": true,
      "inputs": [],
      "name": "m_numMembers",
      "outputs": [
        {
          "name": "",
          "type": "uint256"
        }
      ],
      "payable": false,
      "stateMutability": "view",
      "type": "function"
    },
    {
      "constant": true,
      "inputs": [],
      "name": "m_required",
      "outputs": [
        {
          "name": "",
          "type": "uint256"
        }
      ],
      "payable": false,
      "stateMutability": "view",
      "type": "function"
    },
    {
      "inputs": [
        {
          "name": "_members",
          "type": "address[]"
        },
        {
          "name": "_required",
          "type": "uint256"
        }
      ],
      "payable": false,
      "stateMutability": "nonpayable",
      "type": "constructor"
    },
    {
      "anonymous": false,
      "inputs": [
        {
          "indexed": false,
          "name": "member",
          "type": "address"
        },
        {
          "indexed": false,
          "name": "operation",
          "type": "bytes32"
        }
      ],
      "name": "Confirmation",
      "type": "event"
    },
    {
      "anonymous": false,
      "inputs": [
        {
          "indexed": false,
          "name": "member",
          "type": "address"
        },
        {
          "indexed": false,
          "name": "operation",
          "type": "bytes32"
        }
      ],
      "name": "Revoke",
      "type": "event"
    },
    {
      "anonymous": false,
      "inputs": [
        {
          "indexed": false,
          "name": "oldMember",
          "type": "address"
        },
        {
          "indexed": false,
          "name": "newMember",
          "type": "address"
        }
      ],
      "name": "MemberChanged",
      "type": "event"
    },
    {
      "anonymous": false,
      "inputs": [
        {
          "indexed": false,
          "name": "newMember",
          "type": "address"
        }
      ],
      "name": "MemberAdded",
      "type": "event"
    },
    {
      "anonymous": false,
      "inputs": [
        {
          "indexed": false,
          "name": "oldMember",
          "type": "address"
        }
      ],
      "name": "MemberRemoved",
      "type": "event"
    },
    {
      "anonymous": false,
      "inputs": [
        {
          "indexed": false,
          "name": "newRequirement",
          "type": "uint256"
        }
      ],
      "name": "RequirementChanged",
      "type": "event"
    },
    {
      "constant": false,
      "inputs": [
        {
          "name": "_operation",
          "type": "bytes32"
        }
      ],
      "name": "revoke",
      "outputs": [],
      "payable": false,
      "stateMutability": "nonpayable",
      "type": "function"
    },
    {
      "constant": false,
      "inputs": [
        {
          "name": "_from",
          "type": "address"
        },
        {
          "name": "_to",
          "type": "address"
        }
      ],
      "name": "changeMember",
      "outputs": [],
      "payable": false,
      "stateMutability": "nonpayable",
      "type": "function"
    },
    {
      "constant": false,
      "inputs": [
        {
          "name": "_member",
          "type": "address"
        }
      ],
      "name": "addMember",
      "outputs": [],
      "payable": false,
      "stateMutability": "nonpayable",
      "type": "function"
    },
    {
      "constant": false,
      "inputs": [
        {
          "name": "_member",
          "type": "address"
        }
      ],
      "name": "removeMember",
      "outputs": [],
      "payable": false,
      "stateMutability": "nonpayable",
      "type": "function"
    },
    {
      "constant": false,
      "inputs": [
        {
          "name": "_newRequired",
          "type": "uint256"
        }
      ],
      "name": "changeRequirement",
      "outputs": [],
      "payable": false,
      "stateMutability": "nonpayable",
      "type": "function"
    },
    {
      "constant": true,
      "inputs": [
        {
          "name": "_addr",
          "type": "address"
        }
      ],
      "name": "isMember",
      "outputs": [
        {
          "name": "",
          "type": "bool"
        }
      ],
      "payable": false,
      "stateMutability": "view",
      "type": "function"
    },
    {
      "constant": true,
      "inputs": [
        {
          "name": "_operation",
          "type": "bytes32"
        },
        {
          "name": "_member",
          "type": "address"
        }
      ],
      "name": "hasConfirmed",
      "outputs": [
        {
          "name": "",
          "type": "bool"
        }
      ],
      "payable": false,
      "stateMutability": "view",
      "type": "function"
    }
  ],
  "bytecode": "0x6060604052341561000f57600080fd5b60405161102138038061102183398101604052808051820191906020018051906020019091905050600060018351016001819055503373ffffffffffffffffffffffffffffffffffffffff16600260016101008110151561006c57fe5b0181905550600161010260003373ffffffffffffffffffffffffffffffffffffffff16815260200190815260200160002081905550600090505b82518110156101495782818151811015156100bd57fe5b9060200190602002015173ffffffffffffffffffffffffffffffffffffffff16600282600201610100811015156100f057fe5b0181905550806002016101026000858481518110151561010c57fe5b9060200190602002015173ffffffffffffffffffffffffffffffffffffffff168152602001908152602001600020819055508060010190506100a6565b81600081905550505050610ebf806101626000396000f300606060405260043610610099576000357c0100000000000000000000000000000000000000000000000000000000900463ffffffff1680630b1ca49a1461009e578063300abd61146100d7578063746c917114610100578063a230c52414610129578063b75c7dc61461017a578063ba51a6df146101a1578063c2cf7326146101c4578063c353a89e14610222578063ca6d56dc1461027a575b600080fd5b34156100a957600080fd5b6100d5600480803573ffffffffffffffffffffffffffffffffffffffff169060200190919050506102b3565b005b34156100e257600080fd5b6100ea610424565b6040518082815260200191505060405180910390f35b341561010b57600080fd5b61011361042a565b6040518082815260200191505060405180910390f35b341561013457600080fd5b610160600480803573ffffffffffffffffffffffffffffffffffffffff16906020019091905050610430565b604051808215151515815260200191505060405180910390f35b341561018557600080fd5b61019f600480803560001916906020019091905050610466565b005b34156101ac57600080fd5b6101c2600480803590602001909190505061057a565b005b34156101cf57600080fd5b61020860048080356000191690602001909190803573ffffffffffffffffffffffffffffffffffffffff169060200190919050506105f9565b604051808215151515815260200191505060405180910390f35b341561022d57600080fd5b610278600480803573ffffffffffffffffffffffffffffffffffffffff1690602001909190803573ffffffffffffffffffffffffffffffffffffffff16906020019091905050610679565b005b341561028557600080fd5b6102b1600480803573ffffffffffffffffffffffffffffffffffffffff1690602001909190505061089d565b005b600081604051808273ffffffffffffffffffffffffffffffffffffffff1673ffffffffffffffffffffffffffffffffffffffff166c01000000000000000000000000028152601401915050604051809103902061030f81610a18565b1561041f5761010260008473ffffffffffffffffffffffffffffffffffffffff168152602001908152602001600020549150600082141561034f5761041e565b600180540360005411156103625761041e565b60006002836101008110151561037457fe5b0181905550600061010260008573ffffffffffffffffffffffffffffffffffffffff168152602001908152602001600020819055506103b1610c24565b6103b9610cda565b507f6e76fb4c77256006d9c38ec7d82b45a8c8f3c27b1d6766fffc42dfb8de68449283604051808273ffffffffffffffffffffffffffffffffffffffff1673ffffffffffffffffffffffffffffffffffffffff16815260200191505060405180910390a15b5b505050565b60015481565b60005481565b60008061010260008473ffffffffffffffffffffffffffffffffffffffff16815260200190815260200160002054119050919050565b600080600061010260003373ffffffffffffffffffffffffffffffffffffffff16815260200190815260200160002054925060008314156104a657610574565b8260020a915061010360008560001916600019168152602001908152602001600020905060008282600101541611156105735780600001600081548092919060010191905055508181600101600082825403925050819055507fc7fb647e59b18047309aa15aad418e5d7ca96d173ad704f1031a2c3d7591734b3385604051808373ffffffffffffffffffffffffffffffffffffffff1673ffffffffffffffffffffffffffffffffffffffff16815260200182600019166000191681526020019250505060405180910390a15b5b50505050565b8060405180828152602001915050604051809103902061059981610a18565b156105f5576001548211156105ad576105f4565b816000819055506105bc610c24565b7facbdb084c721332ac59f9b8e392196c9eb0e4932862da8eb9beaf0dad4f550da826040518082815260200191505060405180910390a15b5b5050565b60008060008061010360008760001916600019168152602001908152602001600020925061010260008673ffffffffffffffffffffffffffffffffffffffff168152602001908152602001600020549150600082141561065c5760009350610670565b8160020a9050600081846001015416141593505b50505092915050565b60008282604051808373ffffffffffffffffffffffffffffffffffffffff1673ffffffffffffffffffffffffffffffffffffffff166c010000000000000000000000000281526014018273ffffffffffffffffffffffffffffffffffffffff1673ffffffffffffffffffffffffffffffffffffffff166c0100000000000000000000000002815260140192505050604051809103902061071881610a18565b156108975761072683610430565b1561073057610896565b61010260008573ffffffffffffffffffffffffffffffffffffffff168152602001908152602001600020549150600082141561076b57610896565b610773610c24565b8273ffffffffffffffffffffffffffffffffffffffff166002836101008110151561079a57fe5b0181905550600061010260008673ffffffffffffffffffffffffffffffffffffffff168152602001908152602001600020819055508161010260008573ffffffffffffffffffffffffffffffffffffffff168152602001908152602001600020819055507f05d866cd9c6000815d031b7ce30f30f643766eba16be13cff25924dc8ad820928484604051808373ffffffffffffffffffffffffffffffffffffffff1673ffffffffffffffffffffffffffffffffffffffff1681526020018273ffffffffffffffffffffffffffffffffffffffff1673ffffffffffffffffffffffffffffffffffffffff1681526020019250505060405180910390a15b5b50505050565b80604051808273ffffffffffffffffffffffffffffffffffffffff1673ffffffffffffffffffffffffffffffffffffffff166c0100000000000000000000000002815260140191505060405180910390206108f781610a18565b15610a145761090582610430565b1561090f57610a13565b610917610c24565b60fa60015410151561092d5761092b610cda565b505b60fa60015410151561093e57610a13565b6001600081548092919060010191905055508173ffffffffffffffffffffffffffffffffffffffff1660026001546101008110151561097957fe5b018190555060015461010260008473ffffffffffffffffffffffffffffffffffffffff168152602001908152602001600020819055507fb251eb052afc73ffd02ffe85ad79990a8b3fed60d76dbc2fa2fdd7123dffd91482604051808273ffffffffffffffffffffffffffffffffffffffff1673ffffffffffffffffffffffffffffffffffffffff16815260200191505060405180910390a15b5b5050565b60008060008061010260003373ffffffffffffffffffffffffffffffffffffffff1681526020019081526020016000205492506000831415610a5957610c1c565b610103600086600019166000191681526020019081526020016000209150600082600001541415610adf576000548260000181905550600082600101819055506101048054809190600101610aae9190610e21565b8260020181905550846101048360020154815481101515610acb57fe5b906000526020600020900181600019169055505b8260020a90506000818360010154161415610c1b577fe1c52dc63b719ade82e8bea94cc41a0d5d28e4aaf536adb5e9cccc9ff8c1aeda3386604051808373ffffffffffffffffffffffffffffffffffffffff1673ffffffffffffffffffffffffffffffffffffffff16815260200182600019166000191681526020019250505060405180910390a160018260000154111515610bf3576101046101036000876000191660001916815260200190815260200160002060020154815481101515610ba457fe5b9060005260206000209001600090556101036000866000191660001916815260200190815260200160002060008082016000905560018201600090556002820160009055505060019350610c1c565b8160000160008154809291906001900391905055508082600101600082825417925050819055505b5b505050919050565b600080610104805490509150600090505b81811015610cc757600060010261010482815481101515610c5257fe5b90600052602060002090015460001916141515610cbc57610103600061010483815481101515610c7e57fe5b906000526020600020900154600019166000191681526020019081526020016000206000808201600090556001820160009055600282016000905550505b806001019050610c35565b6101046000610cd69190610e4d565b5050565b600080600190505b600154811015610e1d575b60015481108015610d105750600060028261010081101515610d0b57fe5b015414155b15610d22578080600101915050610ced565b5b60018054118015610d4757506000600260015461010081101515610d4357fe5b0154145b15610d645760016000815480929190600190039190505550610d23565b60015481108015610d8957506000600260015461010081101515610d8457fe5b015414155b8015610da65750600060028261010081101515610da257fe5b0154145b15610e1857600260015461010081101515610dbd57fe5b015460028261010081101515610dcf57fe5b018190555080610102600060028461010081101515610dea57fe5b01548152602001908152602001600020819055506000600260015461010081101515610e1257fe5b01819055505b610ce2565b5090565b815481835581811511610e4857818360005260206000209182019101610e479190610e6e565b5b505050565b5080546000825590600052602060002090810190610e6b9190610e6e565b50565b610e9091905b80821115610e8c576000816000905550600101610e74565b5090565b905600a165627a7a72305820a64b0f87b2577cf0f1a0c16a3e899ef0079f8865344e81f78b5882bc43d6908d0029",
  "source": "pragma solidity ^0.4.11;\n\n\ncontract Multimember {\n\n    // TYPES\n\n    // struct for the status of a pending operation.\n    struct PendingState {\n        uint yetNeeded;\n        uint membersDone;\n        uint index;\n    }\n\n    // EVENTS\n\n    // this contract only has seven types of events: it can accept a confirmation, in which case\n    // we record member and operation (hash) alongside it.\n    event Confirmation(address member, bytes32 operation);\n    event Revoke(address member, bytes32 operation);\n    // some others are in the case of an member changing.\n    event MemberChanged(address oldMember, address newMember);\n    event MemberAdded(address newMember);\n    event MemberRemoved(address oldMember);\n    // the last one is emitted if the required signatures change\n    event RequirementChanged(uint newRequirement);\n\n    // MODIFIERS\n\n    // simple single-sig function modifier.\n    modifier onlymember {\n        if (isMember(msg.sender))\n            _;\n    }\n    // multi-sig function modifier: the operation must have an intrinsic hash in order\n    // that later attempts can be realised as the same underlying operation and\n    // thus count as confirmations.\n    modifier onlymanymembers(bytes32 _operation) {\n        if (confirmAndCheck(_operation))\n            _;\n    }\n\n    // METHODS\n\n    // constructor is given number of sigs required to do protected \"onlymanymembers\" transactions\n    // as well as the selection of addresses capable of confirming them.\n    function Multimember(address[] _members, uint _required) public {\n        m_numMembers = _members.length + 1;\n        m_members[1] = uint(msg.sender);\n        m_memberIndex[uint(msg.sender)] = 1;\n        for (uint i = 0; i < _members.length; ++i) {\n            m_members[2 + i] = uint(_members[i]);\n            m_memberIndex[uint(_members[i])] = 2 + i;\n        }\n        m_required = _required;\n    }\n    \n    // Revokes a prior confirmation of the given operation\n    function revoke(bytes32 _operation) external {\n        uint memberIndex = m_memberIndex[uint(msg.sender)];\n        // make sure they're an member\n        if (memberIndex == 0) \n            return;\n        uint memberIndexBit = 2**memberIndex;\n        var pending = m_pending[_operation];\n        if (pending.membersDone & memberIndexBit > 0) {\n            pending.yetNeeded++;\n            pending.membersDone -= memberIndexBit;\n            Revoke(msg.sender, _operation);\n        }\n    }\n    \n    // Replaces an member `_from` with another `_to`.\n    function changeMember(address _from, address _to) onlymanymembers(keccak256(_from,_to)) external {\n        if (isMember(_to)) \n            return;\n        uint memberIndex = m_memberIndex[uint(_from)];\n        if (memberIndex == 0) \n            return;\n\n        clearPending();\n        m_members[memberIndex] = uint(_to);\n        m_memberIndex[uint(_from)] = 0;\n        m_memberIndex[uint(_to)] = memberIndex;\n        MemberChanged(_from, _to);\n    }\n    \n    function addMember(address _member) onlymanymembers(keccak256(_member)) public {\n        if (isMember(_member)) \n            return;\n\n        clearPending();\n        if (m_numMembers >= MAXMEMBERS)\n            reorganizeMembers();\n        if (m_numMembers >= MAXMEMBERS)\n            return;\n        m_numMembers++;\n        m_members[m_numMembers] = uint(_member);\n        m_memberIndex[uint(_member)] = m_numMembers;\n        MemberAdded(_member);\n    }\n    \n    function removeMember(address _member) onlymanymembers(keccak256(_member)) public {\n        uint memberIndex = m_memberIndex[uint(_member)];\n        if (memberIndex == 0) \n            return;\n        if (m_required > m_numMembers - 1) \n            return;\n\n        m_members[memberIndex] = 0;\n        m_memberIndex[uint(_member)] = 0;\n        clearPending();\n        reorganizeMembers(); //make sure m_numMembers is equal to the number of members and always points to the optimal free slot\n        MemberRemoved(_member);\n    }\n    \n    function changeRequirement(uint _newRequired) onlymanymembers(keccak256(_newRequired)) external {\n        if (_newRequired > m_numMembers) \n            return;\n        m_required = _newRequired;\n        clearPending();\n        RequirementChanged(_newRequired);\n    }\n    \n    function isMember(address _addr) public constant returns (bool) { \n        return m_memberIndex[uint(_addr)] > 0;\n    }\n    \n    function hasConfirmed(bytes32 _operation, address _member) external constant returns (bool) {\n        var pending = m_pending[_operation];\n        uint memberIndex = m_memberIndex[uint(_member)];\n\n        // make sure they're an member\n        if (memberIndex == 0) \n            return false;\n\n        // determine the bit to set for this member.\n        uint memberIndexBit = 2**memberIndex;\n        return !(pending.membersDone & memberIndexBit == 0);\n    }\n    \n    // INTERNAL METHODS\n\n    function confirmAndCheck(bytes32 _operation) internal returns (bool) {\n        // determine what index the present sender is:\n        uint memberIndex = m_memberIndex[uint(msg.sender)];\n        // make sure they're an member\n        if (memberIndex == 0) \n            return;\n\n        var pending = m_pending[_operation];\n        // if we're not yet working on this operation, switch over and reset the confirmation status.\n        if (pending.yetNeeded == 0) {\n            // reset count of confirmations needed.\n            pending.yetNeeded = m_required;\n            // reset which members have confirmed (none) - set our bitmap to 0.\n            pending.membersDone = 0;\n            pending.index = m_pendingIndex.length++;\n            m_pendingIndex[pending.index] = _operation;\n        }\n        // determine the bit to set for this member.\n        uint memberIndexBit = 2**memberIndex;\n        // make sure we (the message sender) haven't confirmed this operation previously.\n        if (pending.membersDone & memberIndexBit == 0) {\n            Confirmation(msg.sender, _operation);\n            // ok - check if count is enough to go ahead.\n            if (pending.yetNeeded <= 1) {\n                // enough confirmations: reset and run interior.\n                delete m_pendingIndex[m_pending[_operation].index];\n                delete m_pending[_operation];\n                return true;\n            } else {\n                // not enough: record that this member in particular confirmed.\n                pending.yetNeeded--;\n                pending.membersDone |= memberIndexBit;\n            }\n        }\n    }\n\n    function reorganizeMembers() private returns (bool) {\n        uint free = 1;\n        while (free < m_numMembers) {\n            while (free < m_numMembers && m_members[free] != 0) {\n                free++;\n            } \n\n            while (m_numMembers > 1 && m_members[m_numMembers] == 0) {\n                m_numMembers--;\n            } \n\n            if (free < m_numMembers && m_members[m_numMembers] != 0 && m_members[free] == 0) {\n                m_members[free] = m_members[m_numMembers];\n                m_memberIndex[m_members[free]] = free;\n                m_members[m_numMembers] = 0;\n            }\n        }\n    }\n    \n    function clearPending() internal {\n        uint length = m_pendingIndex.length;\n        for (uint i = 0; i < length; ++i) {\n            if (m_pendingIndex[i] != 0) {\n                delete m_pending[m_pendingIndex[i]];\n            }\n        }\n        delete m_pendingIndex;\n    }\n        \n    // FIELDS\n\n    // the number of members that must confirm the same operation before it is run.\n    uint public m_required;\n    // pointer used to find a free slot in m_members\n    uint public m_numMembers;\n    \n    // list of members\n    uint[256] m_members;\n    uint constant MAXMEMBERS = 250;\n    // index on the list of members to allow reverse lookup\n    mapping(uint => uint) m_memberIndex;\n    // the ongoing operations.\n    mapping(bytes32 => PendingState) m_pending;\n    bytes32[] m_pendingIndex;\n}",
  "sourcePath": "/Users/edu/IPFSConsortium/IPFSConsortiumContracts/contracts/Multimember.sol",
  "compiler": {
    "name": "solc",
    "version": "0.4.19+commit.c4cbbb05.Emscripten.clang"
  },
  "schemaVersion": "2.0.0",
  "updatedAt": "2018-02-27T19:59:02.089Z"
}